{
  "contractName": "ERC721",
  "abi": [
    {
      "inputs": [],
      "stateMutability": "nonpayable",
      "type": "constructor"
    },
    {
      "anonymous": false,
      "inputs": [
        {
          "indexed": true,
          "internalType": "address",
          "name": "owner",
          "type": "address"
        },
        {
          "indexed": true,
          "internalType": "address",
          "name": "approved",
          "type": "address"
        },
        {
          "indexed": true,
          "internalType": "uint256",
          "name": "tokenId",
          "type": "uint256"
        }
      ],
      "name": "Approval",
      "type": "event"
    },
    {
      "anonymous": false,
      "inputs": [
        {
          "indexed": true,
          "internalType": "address",
          "name": "owner",
          "type": "address"
        },
        {
          "indexed": true,
          "internalType": "address",
          "name": "operator",
          "type": "address"
        },
        {
          "indexed": false,
          "internalType": "bool",
          "name": "approved",
          "type": "bool"
        }
      ],
      "name": "ApprovalForAll",
      "type": "event"
    },
    {
      "anonymous": false,
      "inputs": [
        {
          "indexed": false,
          "internalType": "address",
          "name": "prevOwner",
          "type": "address"
        },
        {
          "indexed": false,
          "internalType": "address",
          "name": "newOwner",
          "type": "address"
        }
      ],
      "name": "OwnershipTransfered",
      "type": "event"
    },
    {
      "anonymous": false,
      "inputs": [
        {
          "indexed": false,
          "internalType": "bool",
          "name": "_status",
          "type": "bool"
        },
        {
          "indexed": false,
          "internalType": "address",
          "name": "_triggerAddress",
          "type": "address"
        }
      ],
      "name": "PausableStatus",
      "type": "event"
    },
    {
      "anonymous": false,
      "inputs": [
        {
          "indexed": true,
          "internalType": "address",
          "name": "from",
          "type": "address"
        },
        {
          "indexed": true,
          "internalType": "address",
          "name": "to",
          "type": "address"
        },
        {
          "indexed": true,
          "internalType": "uint256",
          "name": "tokenId",
          "type": "uint256"
        }
      ],
      "name": "Transfer",
      "type": "event"
    },
    {
      "inputs": [],
      "name": "getOwner",
      "outputs": [
        {
          "internalType": "address",
          "name": "",
          "type": "address"
        }
      ],
      "stateMutability": "view",
      "type": "function"
    },
    {
      "inputs": [
        {
          "internalType": "bool",
          "name": "_newStatus",
          "type": "bool"
        }
      ],
      "name": "setPausable",
      "outputs": [],
      "stateMutability": "nonpayable",
      "type": "function"
    },
    {
      "inputs": [
        {
          "internalType": "bytes4",
          "name": "interfaceId",
          "type": "bytes4"
        }
      ],
      "name": "supportsInterface",
      "outputs": [
        {
          "internalType": "bool",
          "name": "",
          "type": "bool"
        }
      ],
      "stateMutability": "view",
      "type": "function"
    },
    {
      "inputs": [
        {
          "internalType": "address",
          "name": "newOwner",
          "type": "address"
        }
      ],
      "name": "transferOwnership",
      "outputs": [],
      "stateMutability": "nonpayable",
      "type": "function"
    },
    {
      "inputs": [
        {
          "internalType": "address",
          "name": "owner",
          "type": "address"
        }
      ],
      "name": "balanceOf",
      "outputs": [
        {
          "internalType": "uint256",
          "name": "",
          "type": "uint256"
        }
      ],
      "stateMutability": "view",
      "type": "function"
    },
    {
      "inputs": [
        {
          "internalType": "uint256",
          "name": "tokenId",
          "type": "uint256"
        }
      ],
      "name": "ownerOf",
      "outputs": [
        {
          "internalType": "address",
          "name": "",
          "type": "address"
        }
      ],
      "stateMutability": "view",
      "type": "function"
    },
    {
      "inputs": [
        {
          "internalType": "address",
          "name": "to",
          "type": "address"
        },
        {
          "internalType": "uint256",
          "name": "tokenId",
          "type": "uint256"
        }
      ],
      "name": "approve",
      "outputs": [],
      "stateMutability": "nonpayable",
      "type": "function"
    },
    {
      "inputs": [
        {
          "internalType": "uint256",
          "name": "tokenId",
          "type": "uint256"
        }
      ],
      "name": "getApproved",
      "outputs": [
        {
          "internalType": "address",
          "name": "",
          "type": "address"
        }
      ],
      "stateMutability": "view",
      "type": "function"
    },
    {
      "inputs": [
        {
          "internalType": "address",
          "name": "to",
          "type": "address"
        },
        {
          "internalType": "bool",
          "name": "approved",
          "type": "bool"
        }
      ],
      "name": "setApprovalForAll",
      "outputs": [],
      "stateMutability": "nonpayable",
      "type": "function"
    },
    {
      "inputs": [
        {
          "internalType": "address",
          "name": "owner",
          "type": "address"
        },
        {
          "internalType": "address",
          "name": "operator",
          "type": "address"
        }
      ],
      "name": "isApprovedForAll",
      "outputs": [
        {
          "internalType": "bool",
          "name": "",
          "type": "bool"
        }
      ],
      "stateMutability": "view",
      "type": "function"
    },
    {
      "inputs": [
        {
          "internalType": "address",
          "name": "from",
          "type": "address"
        },
        {
          "internalType": "address",
          "name": "to",
          "type": "address"
        },
        {
          "internalType": "uint256",
          "name": "tokenId",
          "type": "uint256"
        }
      ],
      "name": "transferFrom",
      "outputs": [],
      "stateMutability": "nonpayable",
      "type": "function"
    },
    {
      "inputs": [
        {
          "internalType": "address",
          "name": "from",
          "type": "address"
        },
        {
          "internalType": "address",
          "name": "to",
          "type": "address"
        },
        {
          "internalType": "uint256",
          "name": "tokenId",
          "type": "uint256"
        }
      ],
      "name": "safeTransferFrom",
      "outputs": [],
      "stateMutability": "nonpayable",
      "type": "function"
    },
    {
      "inputs": [
        {
          "internalType": "address",
          "name": "from",
          "type": "address"
        },
        {
          "internalType": "address",
          "name": "to",
          "type": "address"
        },
        {
          "internalType": "uint256",
          "name": "tokenId",
          "type": "uint256"
        },
        {
          "internalType": "bytes",
          "name": "_data",
          "type": "bytes"
        }
      ],
      "name": "safeTransferFrom",
      "outputs": [],
      "stateMutability": "nonpayable",
      "type": "function"
    }
  ],
  "bytecode": "0x60806040523480156200001157600080fd5b50336000806101000a81548173ffffffffffffffffffffffffffffffffffffffff021916908373ffffffffffffffffffffffffffffffffffffffff1602179055507f0d18b5fd22306e373229b9439188228edca81207d1667f604daf6cef8aa3ee673333604051620000859291906200018e565b60405180910390a160008060146101000a81548160ff021916908315150217905550620000bf6301ffc9a760e01b620000dd60201b60201c565b620000d76380ac58cd60e01b620000dd60201b60201c565b620001ef565b63ffffffff60e01b817bffffffffffffffffffffffffffffffffffffffffffffffffffffffff191614156200011157600080fd5b6001806000837bffffffffffffffffffffffffffffffffffffffffffffffffffffffff19167bffffffffffffffffffffffffffffffffffffffffffffffffffffffff1916815260200190815260200160002060006101000a81548160ff02191690831515021790555050565b6200018881620001bb565b82525050565b6000604082019050620001a560008301856200017d565b620001b460208301846200017d565b9392505050565b6000620001c882620001cf565b9050919050565b600073ffffffffffffffffffffffffffffffffffffffff82169050919050565b611aab80620001ff6000396000f3fe608060405234801561001057600080fd5b50600436106100cf5760003560e01c806370a082311161008c578063a22cb46511610066578063a22cb46514610222578063b88d4fde1461023e578063e985e9c51461025a578063f2fde38b1461028a576100cf565b806370a08231146101b8578063736d323a146101e8578063893d20e814610204576100cf565b806301ffc9a7146100d4578063081812fc14610104578063095ea7b31461013457806323b872dd1461015057806342842e0e1461016c5780636352211e14610188575b600080fd5b6100ee60048036038101906100e9919061133f565b6102a6565b6040516100fb9190611716565b60405180910390f35b61011e60048036038101906101199190611391565b61030e565b60405161012b9190611686565b60405180910390f35b61014e600480360381019061014991906112da565b61035d565b005b61016a600480360381019061016591906111d4565b610547565b005b610186600480360381019061018191906111d4565b6105b2565b005b6101a2600480360381019061019d9190611391565b6105e4565b6040516101af9190611686565b60405180910390f35b6101d260048036038101906101cd919061116f565b610633565b6040516101df919061187a565b60405180910390f35b61020260048036038101906101fd9190611316565b610683565b005b61020c61076e565b6040516102199190611686565b60405180910390f35b61023c6004803603810190610237919061129e565b610797565b005b61025860048036038101906102539190611223565b6108cd565b005b610274600480360381019061026f9190611198565b61093b565b6040516102819190611716565b60405180910390f35b6102a4600480360381019061029f919061116f565b6109cf565b005b600060016000837bffffffffffffffffffffffffffffffffffffffffffffffffffffffff19167bffffffffffffffffffffffffffffffffffffffffffffffffffffffff1916815260200190815260200160002060009054906101000a900460ff169050919050565b600061031982610b49565b61032257600080fd5b6003600083815260200190815260200160002060009054906101000a900473ffffffffffffffffffffffffffffffffffffffff169050919050565b61036681610b49565b61036f57600080fd5b60006002600083815260200190815260200160002060009054906101000a900473ffffffffffffffffffffffffffffffffffffffff1690508073ffffffffffffffffffffffffffffffffffffffff168373ffffffffffffffffffffffffffffffffffffffff161415610416576040517f08c379a000000000000000000000000000000000000000000000000000000000815260040161040d906117da565b60405180910390fd5b8073ffffffffffffffffffffffffffffffffffffffff163373ffffffffffffffffffffffffffffffffffffffff1614806104565750610455813361093b565b5b610495576040517f08c379a000000000000000000000000000000000000000000000000000000000815260040161048c906117ba565b60405180910390fd5b826003600084815260200190815260200160002060006101000a81548173ffffffffffffffffffffffffffffffffffffffff021916908373ffffffffffffffffffffffffffffffffffffffff160217905550818373ffffffffffffffffffffffffffffffffffffffff163373ffffffffffffffffffffffffffffffffffffffff167f8c5be1e5ebec7d5bd14f71427d1e84f3dd0314c0f7b2291e5b200ac8c7c3b92560405160405180910390a4505050565b61055081610b49565b61055957600080fd5b6105633382610bbb565b6105a2576040517f08c379a0000000000000000000000000000000000000000000000000000000008152600401610599906117fa565b60405180910390fd5b6105ad838383610c50565b505050565b6105bb81610b49565b6105c457600080fd5b6105df838383604051806020016040528060008152506108cd565b505050565b60006105ef82610b49565b6105f857600080fd5b6002600083815260200190815260200160002060009054906101000a900473ffffffffffffffffffffffffffffffffffffffff169050919050565b600061067c600460008473ffffffffffffffffffffffffffffffffffffffff1673ffffffffffffffffffffffffffffffffffffffff168152602001908152602001600020610ef4565b9050919050565b60008054906101000a900473ffffffffffffffffffffffffffffffffffffffff1673ffffffffffffffffffffffffffffffffffffffff163373ffffffffffffffffffffffffffffffffffffffff1614610711576040517f08c379a00000000000000000000000000000000000000000000000000000000081526004016107089061175a565b60405180910390fd5b801515600060149054906101000a905050507f765b92da8b9fa48aefa40c871e948fe27f74aa6821a8cd0bd44340ea68571590600060149054906101000a900460ff1633604051610763929190611731565b60405180910390a150565b60008060009054906101000a900473ffffffffffffffffffffffffffffffffffffffff16905090565b3373ffffffffffffffffffffffffffffffffffffffff168273ffffffffffffffffffffffffffffffffffffffff1614156107d057600080fd5b80600560003373ffffffffffffffffffffffffffffffffffffffff1673ffffffffffffffffffffffffffffffffffffffff16815260200190815260200160002060008473ffffffffffffffffffffffffffffffffffffffff1673ffffffffffffffffffffffffffffffffffffffff16815260200190815260200160002060006101000a81548160ff0219169083151502179055508173ffffffffffffffffffffffffffffffffffffffff163373ffffffffffffffffffffffffffffffffffffffff167f17307eab39ab6107e8899845ad3d59bd9653f200f220920489ca2b5937696c31836040516108c19190611716565b60405180910390a35050565b6108d682610b49565b6108df57600080fd5b6108ea848484610547565b6108f684848484610f02565b610935576040517f08c379a000000000000000000000000000000000000000000000000000000000815260040161092c9061181a565b60405180910390fd5b50505050565b6000600560008473ffffffffffffffffffffffffffffffffffffffff1673ffffffffffffffffffffffffffffffffffffffff16815260200190815260200160002060008373ffffffffffffffffffffffffffffffffffffffff1673ffffffffffffffffffffffffffffffffffffffff16815260200190815260200160002060009054906101000a900460ff16905092915050565b60008054906101000a900473ffffffffffffffffffffffffffffffffffffffff1673ffffffffffffffffffffffffffffffffffffffff163373ffffffffffffffffffffffffffffffffffffffff1614610a5d576040517f08c379a0000000000000000000000000000000000000000000000000000000008152600401610a549061175a565b60405180910390fd5b600073ffffffffffffffffffffffffffffffffffffffff168173ffffffffffffffffffffffffffffffffffffffff161415610acd576040517f08c379a0000000000000000000000000000000000000000000000000000000008152600401610ac49061183a565b60405180910390fd5b806000806101000a81548173ffffffffffffffffffffffffffffffffffffffff021916908373ffffffffffffffffffffffffffffffffffffffff1602179055507f0d18b5fd22306e373229b9439188228edca81207d1667f604daf6cef8aa3ee673382604051610b3e9291906116a1565b60405180910390a150565b6000806002600084815260200190815260200160002060009054906101000a900473ffffffffffffffffffffffffffffffffffffffff169050600073ffffffffffffffffffffffffffffffffffffffff168173ffffffffffffffffffffffffffffffffffffffff161415915050919050565b600080610bc7836105e4565b90508073ffffffffffffffffffffffffffffffffffffffff168473ffffffffffffffffffffffffffffffffffffffff161480610c3657508373ffffffffffffffffffffffffffffffffffffffff16610c1e8461030e565b73ffffffffffffffffffffffffffffffffffffffff16145b80610c475750610c46818561093b565b5b91505092915050565b8273ffffffffffffffffffffffffffffffffffffffff166002600083815260200190815260200160002060009054906101000a900473ffffffffffffffffffffffffffffffffffffffff1673ffffffffffffffffffffffffffffffffffffffff1614610cf1576040517f08c379a0000000000000000000000000000000000000000000000000000000008152600401610ce89061185a565b60405180910390fd5b600073ffffffffffffffffffffffffffffffffffffffff168273ffffffffffffffffffffffffffffffffffffffff161415610d61576040517f08c379a0000000000000000000000000000000000000000000000000000000008152600401610d589061177a565b60405180910390fd5b60006003600083815260200190815260200160002060006101000a81548173ffffffffffffffffffffffffffffffffffffffff021916908373ffffffffffffffffffffffffffffffffffffffff160217905550610dfb600460008573ffffffffffffffffffffffffffffffffffffffff1673ffffffffffffffffffffffffffffffffffffffff168152602001908152602001600020611019565b610e42600460008473ffffffffffffffffffffffffffffffffffffffff1673ffffffffffffffffffffffffffffffffffffffff168152602001908152602001600020611075565b816002600083815260200190815260200160002060006101000a81548173ffffffffffffffffffffffffffffffffffffffff021916908373ffffffffffffffffffffffffffffffffffffffff160217905550808273ffffffffffffffffffffffffffffffffffffffff168473ffffffffffffffffffffffffffffffffffffffff167fddf252ad1be2c89b69c2b068fc378daa952ba7f163c4a11628f55a4df523b3ef60405160405180910390a4505050565b600081600001549050919050565b6000610f238473ffffffffffffffffffffffffffffffffffffffff1661108b565b610f305760019050611011565b60008473ffffffffffffffffffffffffffffffffffffffff1663150b7a02338887876040518563ffffffff1660e01b8152600401610f7194939291906116ca565b602060405180830381600087803b158015610f8b57600080fd5b505af1158015610f9f573d6000803e3d6000fd5b505050506040513d601f19601f82011682018060405250810190610fc39190611368565b905063150b7a0260e01b7bffffffffffffffffffffffffffffffffffffffffffffffffffffffff1916817bffffffffffffffffffffffffffffffffffffffffffffffffffffffff1916149150505b949350505050565b60008160000154905060008111611065576040517f08c379a000000000000000000000000000000000000000000000000000000000815260040161105c9061179a565b60405180910390fd5b6001810382600001819055505050565b6001816000016000828254019250508190555050565b600080823b905060008111915050919050565b60006110b16110ac846118c6565b611895565b9050828152602081018484840111156110c957600080fd5b6110d4848285611997565b509392505050565b6000813590506110eb81611a19565b92915050565b60008135905061110081611a30565b92915050565b60008135905061111581611a47565b92915050565b60008151905061112a81611a47565b92915050565b600082601f83011261114157600080fd5b813561115184826020860161109e565b91505092915050565b60008135905061116981611a5e565b92915050565b60006020828403121561118157600080fd5b600061118f848285016110dc565b91505092915050565b600080604083850312156111ab57600080fd5b60006111b9858286016110dc565b92505060206111ca858286016110dc565b9150509250929050565b6000806000606084860312156111e957600080fd5b60006111f7868287016110dc565b9350506020611208868287016110dc565b92505060406112198682870161115a565b9150509250925092565b6000806000806080858703121561123957600080fd5b6000611247878288016110dc565b9450506020611258878288016110dc565b93505060406112698782880161115a565b925050606085013567ffffffffffffffff81111561128657600080fd5b61129287828801611130565b91505092959194509250565b600080604083850312156112b157600080fd5b60006112bf858286016110dc565b92505060206112d0858286016110f1565b9150509250929050565b600080604083850312156112ed57600080fd5b60006112fb858286016110dc565b925050602061130c8582860161115a565b9150509250929050565b60006020828403121561132857600080fd5b6000611336848285016110f1565b91505092915050565b60006020828403121561135157600080fd5b600061135f84828501611106565b91505092915050565b60006020828403121561137a57600080fd5b60006113888482850161111b565b91505092915050565b6000602082840312156113a357600080fd5b60006113b18482850161115a565b91505092915050565b6113c381611923565b82525050565b6113d281611935565b82525050565b60006113e3826118f6565b6113ed8185611901565b93506113fd8185602086016119a6565b61140681611a08565b840191505092915050565b600061141e602583611912565b91507f4f6e6c7920746865206f776e65722063616e2063616c6c20746869732066756e60008301527f6374696f6e0000000000000000000000000000000000000000000000000000006020830152604082019050919050565b6000611484601e83611912565b91507f526563656976696e672061646472657373206973206e6f742076616c696400006000830152602082019050919050565b60006114c4601b83611912565b91507f436f756e7465723a2064656372656d656e74206f766572666c6f7700000000006000830152602082019050919050565b6000611504601f83611912565b91507f53656e646572206973206e6f74206f776e6572206f7220617070726f766564006000830152602082019050919050565b6000611544601f83611912565b91507f52656365697665722069732073616d6520617320746f6b656e206f776e6572006000830152602082019050919050565b6000611584600c83611912565b91507f4e6f7420617070726f76656400000000000000000000000000000000000000006000830152602082019050919050565b60006115c4600c83611912565b91507f4e6f7420726563656976656400000000000000000000000000000000000000006000830152602082019050919050565b6000611604601983611912565b91507f506173736564206164647265737320697320696e76616c6964000000000000006000830152602082019050919050565b6000611644601983611912565b91507f53656e646572206973206e6f7420746f6b656e206f776e6572000000000000006000830152602082019050919050565b6116808161198d565b82525050565b600060208201905061169b60008301846113ba565b92915050565b60006040820190506116b660008301856113ba565b6116c360208301846113ba565b9392505050565b60006080820190506116df60008301876113ba565b6116ec60208301866113ba565b6116f96040830185611677565b818103606083015261170b81846113d8565b905095945050505050565b600060208201905061172b60008301846113c9565b92915050565b600060408201905061174660008301856113c9565b61175360208301846113ba565b9392505050565b6000602082019050818103600083015261177381611411565b9050919050565b6000602082019050818103600083015261179381611477565b9050919050565b600060208201905081810360008301526117b3816114b7565b9050919050565b600060208201905081810360008301526117d3816114f7565b9050919050565b600060208201905081810360008301526117f381611537565b9050919050565b6000602082019050818103600083015261181381611577565b9050919050565b60006020820190508181036000830152611833816115b7565b9050919050565b60006020820190508181036000830152611853816115f7565b9050919050565b6000602082019050818103600083015261187381611637565b9050919050565b600060208201905061188f6000830184611677565b92915050565b6000604051905081810181811067ffffffffffffffff821117156118bc576118bb6119d9565b5b8060405250919050565b600067ffffffffffffffff8211156118e1576118e06119d9565b5b601f19601f8301169050602081019050919050565b600081519050919050565b600082825260208201905092915050565b600082825260208201905092915050565b600061192e8261196d565b9050919050565b60008115159050919050565b60007fffffffff0000000000000000000000000000000000000000000000000000000082169050919050565b600073ffffffffffffffffffffffffffffffffffffffff82169050919050565b6000819050919050565b82818337600083830152505050565b60005b838110156119c45780820151818401526020810190506119a9565b838111156119d3576000848401525b50505050565b7f4e487b7100000000000000000000000000000000000000000000000000000000600052604160045260246000fd5b6000601f19601f8301169050919050565b611a2281611923565b8114611a2d57600080fd5b50565b611a3981611935565b8114611a4457600080fd5b50565b611a5081611941565b8114611a5b57600080fd5b50565b611a678161198d565b8114611a7257600080fd5b5056fea2646970667358221220eba1a86313c1037c889c1254cebff88fab05a5c78eaeef0f7dd3fd05963d64b664736f6c63430008000033",
  "immutableReferences": {},
  "source": "// SPDX-License-Identifier: MIT\r\n\r\npragma solidity ^0.8.0;\r\n\r\nimport 'openzeppelin-solidity/contracts/utils/Address.sol';\r\nimport 'openzeppelin-solidity/contracts/utils/Counters.sol';\r\nimport 'openzeppelin-solidity/contracts/utils/math/SafeMath.sol';\r\nimport 'openzeppelin-solidity/contracts/token/ERC721/IERC721Receiver.sol';\r\nimport \"./Oraclize.sol\";\r\n\r\ncontract Ownable {\r\n    address private _owner;\r\n    \r\n    event OwnershipTransfered(address prevOwner, address newOwner);\r\n\r\n    constructor() {\r\n        _owner = msg.sender;\r\n        emit OwnershipTransfered(msg.sender, msg.sender);\r\n    }\r\n\r\n    /**\r\n     * @dev get current owner of contract\r\n     */\r\n    function getOwner() public view returns (address) {\r\n        return _owner;\r\n    }\r\n\r\n    /**\r\n     * @dev modifier to restrict function access to only contract owner\r\n     */\r\n    modifier onlyOwner() {\r\n        require(msg.sender == _owner, \"Only the owner can call this function\");\r\n        _;\r\n    }\r\n\r\n    /**\r\n     * @dev transfer contract ownership and emit respective event\r\n     * @param newOwner address of owner contract is transfered to\r\n     * only callable by current owner\r\n     */\r\n    function transferOwnership(address newOwner) public onlyOwner {\r\n        require(newOwner != address(0), \"Passed address is invalid\");\r\n\r\n        _owner = newOwner;\r\n        emit OwnershipTransfered(msg.sender, newOwner);\r\n    }\r\n}\r\n\r\ncontract Pausable is Ownable {    \r\n    /**\r\n     * @dev status of contract\r\n     */\r\n    bool private _paused;\r\n\r\n    event PausableStatus(bool _status, address _triggerAddress);\r\n\r\n    constructor() Ownable() {\r\n        _paused = false;\r\n    }\r\n\r\n    /**\r\n     * @dev owner can pause contract\r\n     */\r\n    function setPausable(bool _newStatus) public onlyOwner {\r\n        _paused == _newStatus;\r\n        \r\n        emit PausableStatus(_paused, msg.sender);\r\n    }\r\n\r\n    /**\r\n     * @dev modifier to allow function to run when contract is paused\r\n     */\r\n    modifier onlyPaused()  {\r\n        require(_paused == true, \"Contract is not paused\");\r\n        _;\r\n    }\r\n\r\n    /**\r\n     * @dev modifier to allow function to run when contract is running (!paused)\r\n     */\r\n    modifier onlyNotPaused() {\r\n        require(_paused == false, \"Contract is paused\");\r\n        _;\r\n    }\r\n}\r\n\r\ncontract ERC165 {\r\n    bytes4 private constant _INTERFACE_ID_ERC165 = 0x01ffc9a7;\r\n\r\n    /**\r\n     * @dev a mapping of interface id to whether or not it's supported\r\n     */\r\n    mapping(bytes4 => bool) private _supportedInterfaces;\r\n\r\n    /**\r\n     * @dev A contract implementing SupportsInterfaceWithLookup\r\n     * implement ERC165 itself\r\n     */\r\n    constructor () {\r\n        _registerInterface(_INTERFACE_ID_ERC165);\r\n    }\r\n\r\n    /**\r\n     * @dev implement supportsInterface(bytes4) using a lookup table\r\n     */\r\n    function supportsInterface(bytes4 interfaceId) external view returns (bool) {\r\n        return _supportedInterfaces[interfaceId];\r\n    }\r\n\r\n    /**\r\n     * @dev internal method for registering an interface\r\n     */\r\n    function _registerInterface(bytes4 interfaceId) internal {\r\n        require(interfaceId != 0xffffffff);\r\n        _supportedInterfaces[interfaceId] = true;\r\n    }\r\n}\r\n\r\ncontract ERC721 is Pausable, ERC165 {\r\n\r\n    event Transfer(address indexed from, address indexed to, uint256 indexed tokenId);\r\n\r\n    event Approval(address indexed owner, address indexed approved, uint256 indexed tokenId);\r\n\r\n    event ApprovalForAll(address indexed owner, address indexed operator, bool approved);\r\n    \r\n    using SafeMath for uint256;\r\n    using Address for address;\r\n    using Counters for Counters.Counter;\r\n\r\n    // Equals to `bytes4(keccak256(\"onERC721Received(address,address,uint256,bytes)\"))`\r\n    // which can be also obtained as `IERC721Receiver(0).onERC721Received.selector`\r\n    bytes4 private constant _ERC721_RECEIVED = 0x150b7a02;\r\n\r\n    // Mapping from token ID to owner\r\n    mapping (uint256 => address) private _tokenOwner;\r\n\r\n    // Mapping from token ID to approved address\r\n    mapping (uint256 => address) private _tokenApprovals;\r\n\r\n    // Mapping from owner to number of owned token\r\n    // IMPORTANT: this mapping uses Counters lib which is used to protect overflow when incrementing/decrementing a uint\r\n    // use the following functions when interacting with Counters: increment(), decrement(), and current() to get the value\r\n    // see: https://github.com/OpenZeppelin/openzeppelin-solidity/blob/master/contracts/drafts/Counters.sol\r\n    mapping (address => Counters.Counter) private _ownedTokensCount;\r\n\r\n    // Mapping from owner to operator approvals\r\n    mapping (address => mapping (address => bool)) private _operatorApprovals;\r\n\r\n    bytes4 private constant _INTERFACE_ID_ERC721 = 0x80ac58cd;\r\n\r\n    constructor () {\r\n        // register the supported interfaces to conform to ERC721 via ERC165\r\n        _registerInterface(_INTERFACE_ID_ERC721);\r\n    }\r\n\r\n    /**\r\n     * @dev get amount of owned tokens for account\r\n     * @param owner account balance to be checked for\r\n     */\r\n    function balanceOf(address owner) public view returns (uint256) {\r\n        return _ownedTokensCount[owner].current();\r\n    }\r\n\r\n    /**\r\n     * @dev retrieve owner of a token if it exists\r\n     * @param tokenId token ID owner to be retrieved for \r\n     */\r\n    function ownerOf(uint256 tokenId) public view returns (address) {\r\n        require(_exists(tokenId));\r\n        return _tokenOwner[tokenId];\r\n    }\r\n\r\n    /**\r\n     * @dev Approves another address to transfer the given token ID\r\n     * @param to address to be approved for transferral\r\n     * @param tokenId token ID the address gets transferral approved for\r\n     */\r\n    function approve(address to, uint256 tokenId) public {\r\n        require(_exists(tokenId));\r\n\r\n        address currOwner = _tokenOwner[tokenId];\r\n\r\n        require(to != currOwner, \"Receiver is same as token owner\");\r\n        require(msg.sender == currOwner || isApprovedForAll(currOwner, msg.sender), \"Sender is not owner or approved\");\r\n\r\n        _tokenApprovals[tokenId] = to;\r\n\r\n        emit Approval(msg.sender, to, tokenId);\r\n    }\r\n\r\n    /**\r\n     * @dev Approves another address to transfer the given token ID\r\n     * @param tokenId token ID for which approved addresses are returned\r\n     * @return address which has approval\r\n     */\r\n    function getApproved(uint256 tokenId) public view returns (address) {\r\n        require(_exists(tokenId));\r\n        return _tokenApprovals[tokenId];\r\n    }\r\n\r\n    /**\r\n     * @dev Sets or unsets the approval of a given operator\r\n     * An operator is allowed to transfer all tokens of the sender on their behalf\r\n     * @param to operator address to set the approval\r\n     * @param approved representing the status of the approval to be set\r\n     */\r\n    function setApprovalForAll(address to, bool approved) public {\r\n        require(to != msg.sender);\r\n        _operatorApprovals[msg.sender][to] = approved;\r\n        emit ApprovalForAll(msg.sender, to, approved);\r\n    }\r\n\r\n    /**\r\n     * @dev Tells whether an operator is approved by a given owner\r\n     * @param owner owner address which you want to query the approval of\r\n     * @param operator operator address which you want to query the approval of\r\n     * @return bool whether the given operator is approved by the given owner\r\n     */\r\n    function isApprovedForAll(address owner, address operator) public view returns (bool) {\r\n        return _operatorApprovals[owner][operator];\r\n    }\r\n\r\n    /**\r\n     * @dev transfer token from one address to another\r\n     * @param from address from wich the token will be transferred from\r\n     * @param to address to which token will be address\r\n     * @param tokenId token ID to be transferred\r\n     */\r\n    function transferFrom(address from, address to, uint256 tokenId) public {\r\n        require(_exists(tokenId));\r\n        require(_isApprovedOrOwner(msg.sender, tokenId), \"Not approved\");\r\n\r\n        _transferFrom(from, to, tokenId);\r\n    }\r\n\r\n    /**\r\n     * @dev safe transfer token from one address to another\r\n     * @param from address from wich the token will be transferred from\r\n     * @param to address to which token will be address\r\n     * @param tokenId token ID to be transferred\r\n     */\r\n    function safeTransferFrom(address from, address to, uint256 tokenId) public {\r\n        require(_exists(tokenId));\r\n        safeTransferFrom(from, to, tokenId, \"\");\r\n    }\r\n\r\n    /**\r\n     * @dev safe transfer token from one address to another\r\n     * @param from address from wich the token will be transferred from\r\n     * @param to address to which token will be address\r\n     * @param tokenId token ID to be transferred\r\n     */\r\n    function safeTransferFrom(address from, address to, uint256 tokenId, bytes memory _data) public {\r\n        require(_exists(tokenId));\r\n        transferFrom(from, to, tokenId);\r\n        require(_checkOnERC721Received(from, to, tokenId, _data), \"Not received\");\r\n    }\r\n\r\n    /**\r\n     * @dev Returns whether the specified token exists\r\n     * @param tokenId uint256 ID of the token to query the existence of\r\n     * @return bool whether the token exists\r\n     */\r\n    function _exists(uint256 tokenId) internal view returns (bool) {\r\n        address owner = _tokenOwner[tokenId];\r\n        return owner != address(0);\r\n    }\r\n\r\n    /**\r\n     * @dev Returns whether the given spender can transfer a given token ID\r\n     * @param spender address of the spender to query\r\n     * @param tokenId uint256 ID of the token to be transferred\r\n     * @return bool whether the msg.sender is approved for the given token ID,\r\n     * is an operator of the owner, or is the owner of the token\r\n     */\r\n    function _isApprovedOrOwner(address spender, uint256 tokenId) internal view returns (bool) {\r\n        address owner = ownerOf(tokenId);\r\n        return (spender == owner || getApproved(tokenId) == spender || isApprovedForAll(owner, spender));\r\n    }\r\n\r\n    /**\r\n     * @dev mint a new token and set owner\r\n     * @param to address to which token will be addressed\r\n     * @param tokenId token ID to be minted\r\n     */\r\n     function _mint(address to, uint256 tokenId) internal {\r\n\r\n        require(_tokenOwner[tokenId] == address(0), \"Token already exist\");\r\n        require(to != address(0), \"Address invalid\");\r\n        \r\n        _tokenOwner[tokenId] = to;\r\n        _ownedTokensCount[to].increment();\r\n\r\n        emit Transfer(msg.sender, to, tokenId);\r\n\r\n    }\r\n\r\n    /**\r\n     * @dev Internal function to transfer ownership of a given token ID to another address\r\n     */\r\n    function _transferFrom(address from, address to, uint256 tokenId) internal {\r\n\r\n        require(_tokenOwner[tokenId] == from, \"Sender is not token owner\");\r\n        require(to != address(0), \"Receiving address is not valid\");\r\n\r\n        _tokenApprovals[tokenId] = address(0);\r\n\r\n        _ownedTokensCount[from].decrement();\r\n        _ownedTokensCount[to].increment();\r\n        _tokenOwner[tokenId] = to;\r\n\r\n        emit Transfer(from, to, tokenId);\r\n    }\r\n\r\n    /**\r\n     * @dev Internal function to invoke `onERC721Received` on a target address\r\n     * The call is not executed if the target address is not a contract\r\n     * @param from address representing the previous owner of the given token ID\r\n     * @param to target address that will receive the tokens\r\n     * @param tokenId uint256 ID of the token to be transferred\r\n     * @param _data bytes optional data to send along with the call\r\n     * @return bool whether the call correctly returned the expected magic value\r\n     */\r\n    function _checkOnERC721Received(address from, address to, uint256 tokenId, bytes memory _data)\r\n        internal returns (bool)\r\n    {\r\n        if (!to.isContract()) {\r\n            return true;\r\n        }\r\n\r\n        bytes4 retval = IERC721Receiver(to).onERC721Received(msg.sender, from, tokenId, _data);\r\n        return (retval == _ERC721_RECEIVED);\r\n    }\r\n\r\n    /**\r\n     * @dev Private function to clear current approval of a given token ID\r\n     */\r\n    function _clearApproval(uint256 tokenId) private {\r\n        if (_tokenApprovals[tokenId] != address(0)) {\r\n            _tokenApprovals[tokenId] = address(0);\r\n        }\r\n    }\r\n}\r\n\r\ncontract ERC721Enumerable is ERC165, ERC721 {\r\n    // Mapping from owner to list of owned token IDs\r\n    mapping(address => uint256[]) private _ownedTokens;\r\n\r\n    // Mapping from token ID to index of the owner tokens list\r\n    mapping(uint256 => uint256) private _ownedTokensIndex;\r\n\r\n    // Array with all token ids, used for enumeration\r\n    uint256[] private _allTokens;\r\n\r\n    // Mapping from token id to position in the allTokens array\r\n    mapping(uint256 => uint256) private _allTokensIndex;\r\n\r\n    bytes4 private constant _INTERFACE_ID_ERC721_ENUMERABLE = 0x780e9d63;\r\n    /**\r\n     * @dev Constructor function\r\n     */\r\n    constructor () {\r\n        // register the supported interface to conform to ERC721Enumerable via ERC165\r\n        _registerInterface(_INTERFACE_ID_ERC721_ENUMERABLE);\r\n    }\r\n\r\n    /**\r\n     * @dev Gets the token ID at a given index of the tokens list of the requested owner\r\n     * @param owner address owning the tokens list to be accessed\r\n     * @param index uint256 representing the index to be accessed of the requested tokens list\r\n     * @return uint256 token ID at the given index of the tokens list owned by the requested address\r\n     */\r\n    function tokenOfOwnerByIndex(address owner, uint256 index) public view returns (uint256) {\r\n        require(index < balanceOf(owner));\r\n        return _ownedTokens[owner][index];\r\n    }\r\n\r\n    /**\r\n     * @dev Gets the total amount of tokens stored by the contract\r\n     * @return uint256 representing the total amount of tokens\r\n     */\r\n    function totalSupply() public view returns (uint256) {\r\n        return _allTokens.length;\r\n    }\r\n\r\n    /**\r\n     * @dev Gets the token ID at a given index of all the tokens in this contract\r\n     * Reverts if the index is greater or equal to the total number of tokens\r\n     * @param index uint256 representing the index to be accessed of the tokens list\r\n     * @return uint256 token ID at the given index of the tokens list\r\n     */\r\n    function tokenByIndex(uint256 index) public view returns (uint256) {\r\n        require(index < totalSupply());\r\n        return _allTokens[index];\r\n    }\r\n\r\n    /**\r\n     * @dev Internal function to transfer ownership of a given token ID to another address.\r\n     * As opposed to transferFrom, this imposes no restrictions on msg.sender.\r\n     * @param from current owner of the token\r\n     * @param to address to receive the ownership of the given token ID\r\n     * @param tokenId uint256 ID of the token to be transferred\r\n     */\r\n    function _transferFromEnumeration(address from, address to, uint256 tokenId) internal {\r\n        super._transferFrom(from, to, tokenId);\r\n\r\n        _removeTokenFromOwnerEnumeration(from, tokenId);\r\n\r\n        _addTokenToOwnerEnumeration(to, tokenId);\r\n    }\r\n\r\n    /**\r\n     * @dev Internal function to mint a new token\r\n     * Reverts if the given token ID already exists\r\n     * @param to address the beneficiary that will own the minted token\r\n     * @param tokenId uint256 ID of the token to be minted\r\n     */\r\n    function _mintEnumerable(address to, uint256 tokenId) internal {\r\n        super._mint(to, tokenId);\r\n\r\n        _addTokenToOwnerEnumeration(to, tokenId);\r\n\r\n        _addTokenToAllTokensEnumeration(tokenId);\r\n    }\r\n\r\n    /**\r\n     * @dev Gets the list of token IDs of the requested owner\r\n     * @param owner address owning the tokens\r\n     * @return uint256[] List of token IDs owned by the requested address\r\n     */\r\n    function _tokensOfOwner(address owner) internal view returns (uint256[] storage) {\r\n        return _ownedTokens[owner];\r\n    }\r\n\r\n    /**\r\n     * @dev Private function to add a token to this extension's ownership-tracking data structures.\r\n     * @param to address representing the new owner of the given token ID\r\n     * @param tokenId uint256 ID of the token to be added to the tokens list of the given address\r\n     */\r\n    function _addTokenToOwnerEnumeration(address to, uint256 tokenId) private {\r\n        _ownedTokensIndex[tokenId] = _ownedTokens[to].length;\r\n        _ownedTokens[to].push(tokenId);\r\n    }\r\n\r\n    /**\r\n     * @dev Private function to add a token to this extension's token tracking data structures.\r\n     * @param tokenId uint256 ID of the token to be added to the tokens list\r\n     */\r\n    function _addTokenToAllTokensEnumeration(uint256 tokenId) private {\r\n        _allTokensIndex[tokenId] = _allTokens.length;\r\n        _allTokens.push(tokenId);\r\n    }\r\n\r\n    /**\r\n     * @dev Private function to remove a token from this extension's ownership-tracking data structures. Note that\r\n     * while the token is not assigned a new owner, the _ownedTokensIndex mapping is _not_ updated: this allows for\r\n     * gas optimizations e.g. when performing a transfer operation (avoiding double writes).\r\n     * This has O(1) time complexity, but alters the order of the _ownedTokens array.\r\n     * @param from address representing the previous owner of the given token ID\r\n     * @param tokenId uint256 ID of the token to be removed from the tokens list of the given address\r\n     */\r\n    function _removeTokenFromOwnerEnumeration(address from, uint256 tokenId) private {\r\n        // To prevent a gap in from's tokens array, we store the last token in the index of the token to delete, and\r\n        // then delete the last slot (swap and pop).\r\n\r\n        uint256 lastTokenIndex = _ownedTokens[from].length - 1;\r\n        uint256 tokenIndex = _ownedTokensIndex[tokenId];\r\n\r\n        // When the token to delete is the last token, the swap operation is unnecessary\r\n        if (tokenIndex != lastTokenIndex) {\r\n            uint256 lastTokenId = _ownedTokens[from][lastTokenIndex];\r\n\r\n            _ownedTokens[from][tokenIndex] = lastTokenId; // Move the last token to the slot of the to-delete token\r\n            _ownedTokensIndex[lastTokenId] = tokenIndex; // Update the moved token's index\r\n        }\r\n\r\n        // This also deletes the contents at the last position of the array\r\n        _ownedTokens[from].pop();\r\n\r\n        // Note that _ownedTokensIndex[tokenId] hasn't been cleared: it still points to the old slot (now occupied by\r\n        // lastTokenId, or just over the end of the array if the token was the last one).\r\n    }\r\n\r\n    /**\r\n     * @dev Private function to remove a token from this extension's token tracking data structures.\r\n     * This has O(1) time complexity, but alters the order of the _allTokens array.\r\n     * @param tokenId uint256 ID of the token to be removed from the tokens list\r\n     */\r\n    function _removeTokenFromAllTokensEnumeration(uint256 tokenId) private {\r\n        // To prevent a gap in the tokens array, we store the last token in the index of the token to delete, and\r\n        // then delete the last slot (swap and pop).\r\n\r\n        uint256 lastTokenIndex = _allTokens.length - 1;\r\n        uint256 tokenIndex = _allTokensIndex[tokenId];\r\n\r\n        // When the token to delete is the last token, the swap operation is unnecessary. However, since this occurs so\r\n        // rarely (when the last minted token is burnt) that we still do the swap here to avoid the gas cost of adding\r\n        // an 'if' statement (like in _removeTokenFromOwnerEnumeration)\r\n        uint256 lastTokenId = _allTokens[lastTokenIndex];\r\n\r\n        _allTokens[tokenIndex] = lastTokenId; // Move the last token to the slot of the to-delete token\r\n        _allTokensIndex[lastTokenId] = tokenIndex; // Update the moved token's index\r\n\r\n        // This also deletes the contents at the last position of the array\r\n        _allTokens.pop();\r\n        _allTokensIndex[tokenId] = 0;\r\n    }\r\n}\r\n\r\ncontract ERC721Metadata is ERC721Enumerable, usingOraclize {\r\n    \r\n    string private _name;\r\n    string private _symbol;\r\n    string private _baseTokenURI;\r\n\r\n    mapping (uint256 => string) private _tokenURIs;\r\n\r\n    bytes4 private constant _INTERFACE_ID_ERC721_METADATA = 0x5b5e139f;\r\n\r\n    constructor (string memory newName, string memory newSymbol, string memory newBaseTokenURI) {\r\n        _name = newName;\r\n        _symbol = newSymbol;\r\n        _baseTokenURI = newBaseTokenURI;\r\n        _registerInterface(_INTERFACE_ID_ERC721_METADATA);\r\n    }\r\n\r\n    // getter functions   \r\n    function name() external view returns (string memory) {\r\n        return _name;\r\n    }\r\n\r\n    function symbol() external view returns (string memory) {\r\n        return _symbol;\r\n    }\r\n\r\n    function baseTokenURI() external view returns (string memory) {\r\n        return _baseTokenURI;\r\n    }\r\n\r\n    function tokenURI(uint256 _tokenId) external view returns (string memory) {\r\n        require(_exists(_tokenId));\r\n        return _tokenURIs[_tokenId];\r\n    }\r\n\r\n    // TODO: Create an internal function to set the tokenURI of a specified tokenId\r\n    // It should be the _baseTokenURI + the tokenId in string form\r\n    // TIP #1: use strConcat() from the imported oraclizeAPI lib to set the complete token URI\r\n    // TIP #2: you can also use uint2str() to convert a uint to a string\r\n        // see https://github.com/oraclize/ethereum-api/blob/master/oraclizeAPI_0.5.sol for strConcat()\r\n    // require the token exists before setting\r\n    function _setTokenURI(uint tokenId) internal {\r\n        require(_exists(tokenId));\r\n        string memory _tokenURI = usingOraclize.strConcat(_baseTokenURI, usingOraclize.uint2str(tokenId));\r\n        _tokenURIs[tokenId] = _tokenURI;\r\n    }\r\n\r\n}\r\n\r\n//  TODO's: Create CustomERC721Token contract that inherits from the ERC721Metadata contract. You can name this contract as you please\r\n//  1) Pass in appropriate values for the inherited ERC721Metadata contract\r\n//      - make the base token uri: https://s3-us-west-2.amazonaws.com/udacity-blockchain/capstone/\r\n//  2) create a public mint() that does the following:\r\n//      -can only be executed by the contract owner\r\n//      -takes in a 'to' address, tokenId, and tokenURI as parameters\r\n//      -returns a true boolean upon completion of the function\r\n//      -calls the superclass mint and setTokenURI functions\r\n\r\ncontract propertyERC721Token is ERC721Metadata {\r\n    constructor(\r\n        string memory name,\r\n        string memory symbol,\r\n        string memory baseURI\r\n    ) ERC721Metadata(name, symbol, baseURI) {}\r\n\r\n    /**\r\n     * @dev public function to mint new tokens\r\n     * @param tokenId uint256 ID of the token to be added to the tokens list\r\n     * @param to owner address of the new token\r\n     */\r\n    function mint(address to, uint256 tokenId) public onlyOwner onlyNotPaused returns (bool) {\r\n        super._mintEnumerable(to, tokenId);\r\n        super._setTokenURI(tokenId);\r\n        return true;\r\n    }\r\n}\r\n\r\n",
  "sourcePath": "C:/Users/Daniel/Documents/GitHub/Property-Title_Smart-Contract/eth-contracts/contracts/ERC721Mintable.sol",
  "compiler": {
    "name": "solc",
    "version": "0.8.0+commit.c7dfd78e.Emscripten.clang"
  },
  "schemaVersion": "3.4.1",
  "updatedAt": "2021-09-19T23:17:15.825Z",
  "devdoc": {
    "kind": "dev",
    "methods": {
      "approve(address,uint256)": {
        "details": "Approves another address to transfer the given token ID",
        "params": {
          "to": "address to be approved for transferral",
          "tokenId": "token ID the address gets transferral approved for"
        }
      },
      "balanceOf(address)": {
        "details": "get amount of owned tokens for account",
        "params": {
          "owner": "account balance to be checked for"
        }
      },
      "getApproved(uint256)": {
        "details": "Approves another address to transfer the given token ID",
        "params": {
          "tokenId": "token ID for which approved addresses are returned"
        },
        "returns": {
          "_0": "address which has approval"
        }
      },
      "getOwner()": {
        "details": "get current owner of contract"
      },
      "isApprovedForAll(address,address)": {
        "details": "Tells whether an operator is approved by a given owner",
        "params": {
          "operator": "operator address which you want to query the approval of",
          "owner": "owner address which you want to query the approval of"
        },
        "returns": {
          "_0": "bool whether the given operator is approved by the given owner"
        }
      },
      "ownerOf(uint256)": {
        "details": "retrieve owner of a token if it exists",
        "params": {
          "tokenId": "token ID owner to be retrieved for "
        }
      },
      "safeTransferFrom(address,address,uint256)": {
        "details": "safe transfer token from one address to another",
        "params": {
          "from": "address from wich the token will be transferred from",
          "to": "address to which token will be address",
          "tokenId": "token ID to be transferred"
        }
      },
      "safeTransferFrom(address,address,uint256,bytes)": {
        "details": "safe transfer token from one address to another",
        "params": {
          "from": "address from wich the token will be transferred from",
          "to": "address to which token will be address",
          "tokenId": "token ID to be transferred"
        }
      },
      "setApprovalForAll(address,bool)": {
        "details": "Sets or unsets the approval of a given operator An operator is allowed to transfer all tokens of the sender on their behalf",
        "params": {
          "approved": "representing the status of the approval to be set",
          "to": "operator address to set the approval"
        }
      },
      "setPausable(bool)": {
        "details": "owner can pause contract"
      },
      "supportsInterface(bytes4)": {
        "details": "implement supportsInterface(bytes4) using a lookup table"
      },
      "transferFrom(address,address,uint256)": {
        "details": "transfer token from one address to another",
        "params": {
          "from": "address from wich the token will be transferred from",
          "to": "address to which token will be address",
          "tokenId": "token ID to be transferred"
        }
      },
      "transferOwnership(address)": {
        "details": "transfer contract ownership and emit respective event",
        "params": {
          "newOwner": "address of owner contract is transfered to only callable by current owner"
        }
      }
    },
    "version": 1
  },
  "userdoc": {
    "kind": "user",
    "methods": {},
    "version": 1
  }
}