{
  "contractName": "ERC721Metadata",
  "abi": [
    {
      "inputs": [
        {
          "internalType": "string",
          "name": "newName",
          "type": "string"
        },
        {
          "internalType": "string",
          "name": "newSymbol",
          "type": "string"
        },
        {
          "internalType": "string",
          "name": "newBaseTokenURI",
          "type": "string"
        }
      ],
      "stateMutability": "nonpayable",
      "type": "constructor"
    },
    {
      "anonymous": false,
      "inputs": [
        {
          "indexed": true,
          "internalType": "address",
          "name": "owner",
          "type": "address"
        },
        {
          "indexed": true,
          "internalType": "address",
          "name": "approved",
          "type": "address"
        },
        {
          "indexed": true,
          "internalType": "uint256",
          "name": "tokenId",
          "type": "uint256"
        }
      ],
      "name": "Approval",
      "type": "event"
    },
    {
      "anonymous": false,
      "inputs": [
        {
          "indexed": true,
          "internalType": "address",
          "name": "owner",
          "type": "address"
        },
        {
          "indexed": true,
          "internalType": "address",
          "name": "operator",
          "type": "address"
        },
        {
          "indexed": false,
          "internalType": "bool",
          "name": "approved",
          "type": "bool"
        }
      ],
      "name": "ApprovalForAll",
      "type": "event"
    },
    {
      "anonymous": false,
      "inputs": [
        {
          "indexed": false,
          "internalType": "address",
          "name": "prevOwner",
          "type": "address"
        },
        {
          "indexed": false,
          "internalType": "address",
          "name": "newOwner",
          "type": "address"
        }
      ],
      "name": "OwnershipTransfered",
      "type": "event"
    },
    {
      "anonymous": false,
      "inputs": [
        {
          "indexed": false,
          "internalType": "bool",
          "name": "_status",
          "type": "bool"
        },
        {
          "indexed": false,
          "internalType": "address",
          "name": "_triggerAddress",
          "type": "address"
        }
      ],
      "name": "PausableStatus",
      "type": "event"
    },
    {
      "anonymous": false,
      "inputs": [
        {
          "indexed": true,
          "internalType": "address",
          "name": "from",
          "type": "address"
        },
        {
          "indexed": true,
          "internalType": "address",
          "name": "to",
          "type": "address"
        },
        {
          "indexed": true,
          "internalType": "uint256",
          "name": "tokenId",
          "type": "uint256"
        }
      ],
      "name": "Transfer",
      "type": "event"
    },
    {
      "inputs": [
        {
          "internalType": "bytes32",
          "name": "_myid",
          "type": "bytes32"
        },
        {
          "internalType": "string",
          "name": "_result",
          "type": "string"
        }
      ],
      "name": "__callback",
      "outputs": [],
      "stateMutability": "nonpayable",
      "type": "function"
    },
    {
      "inputs": [
        {
          "internalType": "bytes32",
          "name": "_myid",
          "type": "bytes32"
        },
        {
          "internalType": "string",
          "name": "_result",
          "type": "string"
        },
        {
          "internalType": "bytes",
          "name": "_proof",
          "type": "bytes"
        }
      ],
      "name": "__callback",
      "outputs": [],
      "stateMutability": "nonpayable",
      "type": "function"
    },
    {
      "inputs": [
        {
          "internalType": "address",
          "name": "to",
          "type": "address"
        },
        {
          "internalType": "uint256",
          "name": "tokenId",
          "type": "uint256"
        }
      ],
      "name": "approve",
      "outputs": [],
      "stateMutability": "nonpayable",
      "type": "function"
    },
    {
      "inputs": [
        {
          "internalType": "address",
          "name": "owner",
          "type": "address"
        }
      ],
      "name": "balanceOf",
      "outputs": [
        {
          "internalType": "uint256",
          "name": "",
          "type": "uint256"
        }
      ],
      "stateMutability": "view",
      "type": "function"
    },
    {
      "inputs": [
        {
          "internalType": "uint256",
          "name": "tokenId",
          "type": "uint256"
        }
      ],
      "name": "getApproved",
      "outputs": [
        {
          "internalType": "address",
          "name": "",
          "type": "address"
        }
      ],
      "stateMutability": "view",
      "type": "function"
    },
    {
      "inputs": [],
      "name": "getOwner",
      "outputs": [
        {
          "internalType": "address",
          "name": "",
          "type": "address"
        }
      ],
      "stateMutability": "view",
      "type": "function"
    },
    {
      "inputs": [
        {
          "internalType": "address",
          "name": "owner",
          "type": "address"
        },
        {
          "internalType": "address",
          "name": "operator",
          "type": "address"
        }
      ],
      "name": "isApprovedForAll",
      "outputs": [
        {
          "internalType": "bool",
          "name": "",
          "type": "bool"
        }
      ],
      "stateMutability": "view",
      "type": "function"
    },
    {
      "inputs": [
        {
          "internalType": "uint256",
          "name": "tokenId",
          "type": "uint256"
        }
      ],
      "name": "ownerOf",
      "outputs": [
        {
          "internalType": "address",
          "name": "",
          "type": "address"
        }
      ],
      "stateMutability": "view",
      "type": "function"
    },
    {
      "inputs": [
        {
          "internalType": "address",
          "name": "from",
          "type": "address"
        },
        {
          "internalType": "address",
          "name": "to",
          "type": "address"
        },
        {
          "internalType": "uint256",
          "name": "tokenId",
          "type": "uint256"
        }
      ],
      "name": "safeTransferFrom",
      "outputs": [],
      "stateMutability": "nonpayable",
      "type": "function"
    },
    {
      "inputs": [
        {
          "internalType": "address",
          "name": "from",
          "type": "address"
        },
        {
          "internalType": "address",
          "name": "to",
          "type": "address"
        },
        {
          "internalType": "uint256",
          "name": "tokenId",
          "type": "uint256"
        },
        {
          "internalType": "bytes",
          "name": "_data",
          "type": "bytes"
        }
      ],
      "name": "safeTransferFrom",
      "outputs": [],
      "stateMutability": "nonpayable",
      "type": "function"
    },
    {
      "inputs": [
        {
          "internalType": "address",
          "name": "to",
          "type": "address"
        },
        {
          "internalType": "bool",
          "name": "approved",
          "type": "bool"
        }
      ],
      "name": "setApprovalForAll",
      "outputs": [],
      "stateMutability": "nonpayable",
      "type": "function"
    },
    {
      "inputs": [
        {
          "internalType": "bool",
          "name": "_newStatus",
          "type": "bool"
        }
      ],
      "name": "setPausable",
      "outputs": [],
      "stateMutability": "nonpayable",
      "type": "function"
    },
    {
      "inputs": [
        {
          "internalType": "bytes4",
          "name": "interfaceId",
          "type": "bytes4"
        }
      ],
      "name": "supportsInterface",
      "outputs": [
        {
          "internalType": "bool",
          "name": "",
          "type": "bool"
        }
      ],
      "stateMutability": "view",
      "type": "function"
    },
    {
      "inputs": [
        {
          "internalType": "uint256",
          "name": "index",
          "type": "uint256"
        }
      ],
      "name": "tokenByIndex",
      "outputs": [
        {
          "internalType": "uint256",
          "name": "",
          "type": "uint256"
        }
      ],
      "stateMutability": "view",
      "type": "function"
    },
    {
      "inputs": [
        {
          "internalType": "address",
          "name": "owner",
          "type": "address"
        },
        {
          "internalType": "uint256",
          "name": "index",
          "type": "uint256"
        }
      ],
      "name": "tokenOfOwnerByIndex",
      "outputs": [
        {
          "internalType": "uint256",
          "name": "",
          "type": "uint256"
        }
      ],
      "stateMutability": "view",
      "type": "function"
    },
    {
      "inputs": [],
      "name": "totalSupply",
      "outputs": [
        {
          "internalType": "uint256",
          "name": "",
          "type": "uint256"
        }
      ],
      "stateMutability": "view",
      "type": "function"
    },
    {
      "inputs": [
        {
          "internalType": "address",
          "name": "from",
          "type": "address"
        },
        {
          "internalType": "address",
          "name": "to",
          "type": "address"
        },
        {
          "internalType": "uint256",
          "name": "tokenId",
          "type": "uint256"
        }
      ],
      "name": "transferFrom",
      "outputs": [],
      "stateMutability": "nonpayable",
      "type": "function"
    },
    {
      "inputs": [
        {
          "internalType": "address",
          "name": "newOwner",
          "type": "address"
        }
      ],
      "name": "transferOwnership",
      "outputs": [],
      "stateMutability": "nonpayable",
      "type": "function"
    },
    {
      "inputs": [],
      "name": "name",
      "outputs": [
        {
          "internalType": "string",
          "name": "",
          "type": "string"
        }
      ],
      "stateMutability": "view",
      "type": "function"
    },
    {
      "inputs": [],
      "name": "symbol",
      "outputs": [
        {
          "internalType": "string",
          "name": "",
          "type": "string"
        }
      ],
      "stateMutability": "view",
      "type": "function"
    },
    {
      "inputs": [],
      "name": "baseTokenURI",
      "outputs": [
        {
          "internalType": "string",
          "name": "",
          "type": "string"
        }
      ],
      "stateMutability": "view",
      "type": "function"
    },
    {
      "inputs": [
        {
          "internalType": "uint256",
          "name": "_tokenId",
          "type": "uint256"
        }
      ],
      "name": "tokenURI",
      "outputs": [
        {
          "internalType": "string",
          "name": "",
          "type": "string"
        }
      ],
      "stateMutability": "view",
      "type": "function"
    }
  ],
  "bytecode": "0x60806040523480156200001157600080fd5b506040516200287c3803806200287c833981810160405281019062000037919062000342565b336000806101000a81548173ffffffffffffffffffffffffffffffffffffffff021916908373ffffffffffffffffffffffffffffffffffffffff1602179055507f0d18b5fd22306e373229b9439188228edca81207d1667f604daf6cef8aa3ee673333604051620000aa929190620003f4565b60405180910390a160008060146101000a81548160ff021916908315150217905550620000e46301ffc9a760e01b6200018060201b60201c565b620000fc6380ac58cd60e01b6200018060201b60201c565b6200011463780e9d6360e01b6200018060201b60201c565b82600f90805190602001906200012c92919062000220565b5081601090805190602001906200014592919062000220565b5080601190805190602001906200015e92919062000220565b5062000177635b5e139f60e01b6200018060201b60201c565b50505062000586565b63ffffffff60e01b817bffffffffffffffffffffffffffffffffffffffffffffffffffffffff19161415620001b457600080fd5b6001806000837bffffffffffffffffffffffffffffffffffffffffffffffffffffffff19167bffffffffffffffffffffffffffffffffffffffffffffffffffffffff1916815260200190815260200160002060006101000a81548160ff02191690831515021790555050565b8280546200022e90620004f2565b90600052602060002090601f0160209004810192826200025257600085556200029e565b82601f106200026d57805160ff19168380011785556200029e565b828001600101855582156200029e579182015b828111156200029d57825182559160200191906001019062000280565b5b509050620002ad9190620002b1565b5090565b5b80821115620002cc576000816000905550600101620002b2565b5090565b6000620002e7620002e18462000455565b62000421565b9050828152602081018484840111156200030057600080fd5b6200030d848285620004bc565b509392505050565b600082601f8301126200032757600080fd5b815162000339848260208601620002d0565b91505092915050565b6000806000606084860312156200035857600080fd5b600084015167ffffffffffffffff8111156200037357600080fd5b620003818682870162000315565b935050602084015167ffffffffffffffff8111156200039f57600080fd5b620003ad8682870162000315565b925050604084015167ffffffffffffffff811115620003cb57600080fd5b620003d98682870162000315565b9150509250925092565b620003ee8162000488565b82525050565b60006040820190506200040b6000830185620003e3565b6200041a6020830184620003e3565b9392505050565b6000604051905081810181811067ffffffffffffffff821117156200044b576200044a62000557565b5b8060405250919050565b600067ffffffffffffffff82111562000473576200047262000557565b5b601f19601f8301169050602081019050919050565b600062000495826200049c565b9050919050565b600073ffffffffffffffffffffffffffffffffffffffff82169050919050565b60005b83811015620004dc578082015181840152602081019050620004bf565b83811115620004ec576000848401525b50505050565b600060028204905060018216806200050b57607f821691505b6020821081141562000522576200052162000528565b5b50919050565b7f4e487b7100000000000000000000000000000000000000000000000000000000600052602260045260246000fd5b7f4e487b7100000000000000000000000000000000000000000000000000000000600052604160045260246000fd5b6122e680620005966000396000f3fe608060405234801561001057600080fd5b50600436106101425760003560e01c80636352211e116100b8578063a22cb4651161007c578063a22cb46514610387578063b88d4fde146103a3578063c87b56dd146103bf578063d547cfb7146103ef578063e985e9c51461040d578063f2fde38b1461043d57610142565b80636352211e146102cf57806370a08231146102ff578063736d323a1461032f578063893d20e81461034b57806395d89b411461036957610142565b806323b872dd1161010a57806323b872dd146101ff57806327dc297e1461021b5780632f745c591461023757806338bbfa501461026757806342842e0e146102835780634f6ccce71461029f57610142565b806301ffc9a71461014757806306fdde0314610177578063081812fc14610195578063095ea7b3146101c557806318160ddd146101e1575b600080fd5b610161600480360381019061015c9190611a62565b610459565b60405161016e9190611e72565b60405180910390f35b61017f6104c1565b60405161018c9190611eb6565b60405180910390f35b6101af60048036038101906101aa9190611ab4565b610553565b6040516101bc9190611de2565b60405180910390f35b6101df60048036038101906101da919061192a565b6105a2565b005b6101e961078c565b6040516101f69190611ff8565b60405180910390f35b61021960048036038101906102149190611824565b610799565b005b6102356004803603810190610230919061198f565b610804565b005b610251600480360381019061024c919061192a565b610886565b60405161025e9190611ff8565b60405180910390f35b610281600480360381019061027c91906119e3565b610926565b005b61029d60048036038101906102989190611824565b610949565b005b6102b960048036038101906102b49190611ab4565b61097b565b6040516102c69190611ff8565b60405180910390f35b6102e960048036038101906102e49190611ab4565b6109dc565b6040516102f69190611de2565b60405180910390f35b610319600480360381019061031491906117bf565b610a2b565b6040516103269190611ff8565b60405180910390f35b61034960048036038101906103449190611966565b610a7b565b005b610353610b66565b6040516103609190611de2565b60405180910390f35b610371610b8f565b60405161037e9190611eb6565b60405180910390f35b6103a1600480360381019061039c91906118ee565b610c21565b005b6103bd60048036038101906103b89190611873565b610d57565b005b6103d960048036038101906103d49190611ab4565b610dc5565b6040516103e69190611eb6565b60405180910390f35b6103f7610e7c565b6040516104049190611eb6565b60405180910390f35b610427600480360381019061042291906117e8565b610f0e565b6040516104349190611e72565b60405180910390f35b610457600480360381019061045291906117bf565b610fa2565b005b600060016000837bffffffffffffffffffffffffffffffffffffffffffffffffffffffff19167bffffffffffffffffffffffffffffffffffffffffffffffffffffffff1916815260200190815260200160002060009054906101000a900460ff169050919050565b6060600f80546104d09061219c565b80601f01602080910402602001604051908101604052809291908181526020018280546104fc9061219c565b80156105495780601f1061051e57610100808354040283529160200191610549565b820191906000526020600020905b81548152906001019060200180831161052c57829003601f168201915b5050505050905090565b600061055e8261111c565b61056757600080fd5b6003600083815260200190815260200160002060009054906101000a900473ffffffffffffffffffffffffffffffffffffffff169050919050565b6105ab8161111c565b6105b457600080fd5b60006002600083815260200190815260200160002060009054906101000a900473ffffffffffffffffffffffffffffffffffffffff1690508073ffffffffffffffffffffffffffffffffffffffff168373ffffffffffffffffffffffffffffffffffffffff16141561065b576040517f08c379a000000000000000000000000000000000000000000000000000000000815260040161065290611f58565b60405180910390fd5b8073ffffffffffffffffffffffffffffffffffffffff163373ffffffffffffffffffffffffffffffffffffffff16148061069b575061069a8133610f0e565b5b6106da576040517f08c379a00000000000000000000000000000000000000000000000000000000081526004016106d190611f38565b60405180910390fd5b826003600084815260200190815260200160002060006101000a81548173ffffffffffffffffffffffffffffffffffffffff021916908373ffffffffffffffffffffffffffffffffffffffff160217905550818373ffffffffffffffffffffffffffffffffffffffff163373ffffffffffffffffffffffffffffffffffffffff167f8c5be1e5ebec7d5bd14f71427d1e84f3dd0314c0f7b2291e5b200ac8c7c3b92560405160405180910390a4505050565b6000600880549050905090565b6107a28161111c565b6107ab57600080fd5b6107b5338261118e565b6107f4576040517f08c379a00000000000000000000000000000000000000000000000000000000081526004016107eb90611f78565b60405180910390fd5b6107ff838383611223565b505050565b6108828282600067ffffffffffffffff81111561084a577f4e487b7100000000000000000000000000000000000000000000000000000000600052604160045260246000fd5b6040519080825280601f01601f19166020018201604052801561087c5781602001600182028036833780820191505090505b50610926565b5050565b600061089183610a2b565b821061089c57600080fd5b600660008473ffffffffffffffffffffffffffffffffffffffff1673ffffffffffffffffffffffffffffffffffffffff1681526020019081526020016000208281548110610913577f4e487b7100000000000000000000000000000000000000000000000000000000600052603260045260246000fd5b9060005260206000200154905092915050565b6000801b600d60008060001b815260200190815260200160002081905550505050565b6109528161111c565b61095b57600080fd5b61097683838360405180602001604052806000815250610d57565b505050565b600061098561078c565b821061099057600080fd5b600882815481106109ca577f4e487b7100000000000000000000000000000000000000000000000000000000600052603260045260246000fd5b90600052602060002001549050919050565b60006109e78261111c565b6109f057600080fd5b6002600083815260200190815260200160002060009054906101000a900473ffffffffffffffffffffffffffffffffffffffff169050919050565b6000610a74600460008473ffffffffffffffffffffffffffffffffffffffff1673ffffffffffffffffffffffffffffffffffffffff1681526020019081526020016000206114c7565b9050919050565b60008054906101000a900473ffffffffffffffffffffffffffffffffffffffff1673ffffffffffffffffffffffffffffffffffffffff163373ffffffffffffffffffffffffffffffffffffffff1614610b09576040517f08c379a0000000000000000000000000000000000000000000000000000000008152600401610b0090611ed8565b60405180910390fd5b801515600060149054906101000a905050507f765b92da8b9fa48aefa40c871e948fe27f74aa6821a8cd0bd44340ea68571590600060149054906101000a900460ff1633604051610b5b929190611e8d565b60405180910390a150565b60008060009054906101000a900473ffffffffffffffffffffffffffffffffffffffff16905090565b606060108054610b9e9061219c565b80601f0160208091040260200160405190810160405280929190818152602001828054610bca9061219c565b8015610c175780601f10610bec57610100808354040283529160200191610c17565b820191906000526020600020905b815481529060010190602001808311610bfa57829003601f168201915b5050505050905090565b3373ffffffffffffffffffffffffffffffffffffffff168273ffffffffffffffffffffffffffffffffffffffff161415610c5a57600080fd5b80600560003373ffffffffffffffffffffffffffffffffffffffff1673ffffffffffffffffffffffffffffffffffffffff16815260200190815260200160002060008473ffffffffffffffffffffffffffffffffffffffff1673ffffffffffffffffffffffffffffffffffffffff16815260200190815260200160002060006101000a81548160ff0219169083151502179055508173ffffffffffffffffffffffffffffffffffffffff163373ffffffffffffffffffffffffffffffffffffffff167f17307eab39ab6107e8899845ad3d59bd9653f200f220920489ca2b5937696c3183604051610d4b9190611e72565b60405180910390a35050565b610d608261111c565b610d6957600080fd5b610d74848484610799565b610d80848484846114d5565b610dbf576040517f08c379a0000000000000000000000000000000000000000000000000000000008152600401610db690611f98565b60405180910390fd5b50505050565b6060610dd08261111c565b610dd957600080fd5b601260008381526020019081526020016000208054610df79061219c565b80601f0160208091040260200160405190810160405280929190818152602001828054610e239061219c565b8015610e705780601f10610e4557610100808354040283529160200191610e70565b820191906000526020600020905b815481529060010190602001808311610e5357829003601f168201915b50505050509050919050565b606060118054610e8b9061219c565b80601f0160208091040260200160405190810160405280929190818152602001828054610eb79061219c565b8015610f045780601f10610ed957610100808354040283529160200191610f04565b820191906000526020600020905b815481529060010190602001808311610ee757829003601f168201915b5050505050905090565b6000600560008473ffffffffffffffffffffffffffffffffffffffff1673ffffffffffffffffffffffffffffffffffffffff16815260200190815260200160002060008373ffffffffffffffffffffffffffffffffffffffff1673ffffffffffffffffffffffffffffffffffffffff16815260200190815260200160002060009054906101000a900460ff16905092915050565b60008054906101000a900473ffffffffffffffffffffffffffffffffffffffff1673ffffffffffffffffffffffffffffffffffffffff163373ffffffffffffffffffffffffffffffffffffffff1614611030576040517f08c379a000000000000000000000000000000000000000000000000000000000815260040161102790611ed8565b60405180910390fd5b600073ffffffffffffffffffffffffffffffffffffffff168173ffffffffffffffffffffffffffffffffffffffff1614156110a0576040517f08c379a000000000000000000000000000000000000000000000000000000000815260040161109790611fb8565b60405180910390fd5b806000806101000a81548173ffffffffffffffffffffffffffffffffffffffff021916908373ffffffffffffffffffffffffffffffffffffffff1602179055507f0d18b5fd22306e373229b9439188228edca81207d1667f604daf6cef8aa3ee673382604051611111929190611dfd565b60405180910390a150565b6000806002600084815260200190815260200160002060009054906101000a900473ffffffffffffffffffffffffffffffffffffffff169050600073ffffffffffffffffffffffffffffffffffffffff168173ffffffffffffffffffffffffffffffffffffffff161415915050919050565b60008061119a836109dc565b90508073ffffffffffffffffffffffffffffffffffffffff168473ffffffffffffffffffffffffffffffffffffffff16148061120957508373ffffffffffffffffffffffffffffffffffffffff166111f184610553565b73ffffffffffffffffffffffffffffffffffffffff16145b8061121a57506112198185610f0e565b5b91505092915050565b8273ffffffffffffffffffffffffffffffffffffffff166002600083815260200190815260200160002060009054906101000a900473ffffffffffffffffffffffffffffffffffffffff1673ffffffffffffffffffffffffffffffffffffffff16146112c4576040517f08c379a00000000000000000000000000000000000000000000000000000000081526004016112bb90611fd8565b60405180910390fd5b600073ffffffffffffffffffffffffffffffffffffffff168273ffffffffffffffffffffffffffffffffffffffff161415611334576040517f08c379a000000000000000000000000000000000000000000000000000000000815260040161132b90611ef8565b60405180910390fd5b60006003600083815260200190815260200160002060006101000a81548173ffffffffffffffffffffffffffffffffffffffff021916908373ffffffffffffffffffffffffffffffffffffffff1602179055506113ce600460008573ffffffffffffffffffffffffffffffffffffffff1673ffffffffffffffffffffffffffffffffffffffff1681526020019081526020016000206115ec565b611415600460008473ffffffffffffffffffffffffffffffffffffffff1673ffffffffffffffffffffffffffffffffffffffff168152602001908152602001600020611648565b816002600083815260200190815260200160002060006101000a81548173ffffffffffffffffffffffffffffffffffffffff021916908373ffffffffffffffffffffffffffffffffffffffff160217905550808273ffffffffffffffffffffffffffffffffffffffff168473ffffffffffffffffffffffffffffffffffffffff167fddf252ad1be2c89b69c2b068fc378daa952ba7f163c4a11628f55a4df523b3ef60405160405180910390a4505050565b600081600001549050919050565b60006114f68473ffffffffffffffffffffffffffffffffffffffff1661165e565b61150357600190506115e4565b60008473ffffffffffffffffffffffffffffffffffffffff1663150b7a02338887876040518563ffffffff1660e01b81526004016115449493929190611e26565b602060405180830381600087803b15801561155e57600080fd5b505af1158015611572573d6000803e3d6000fd5b505050506040513d601f19601f820116820180604052508101906115969190611a8b565b905063150b7a0260e01b7bffffffffffffffffffffffffffffffffffffffffffffffffffffffff1916817bffffffffffffffffffffffffffffffffffffffffffffffffffffffff1916149150505b949350505050565b60008160000154905060008111611638576040517f08c379a000000000000000000000000000000000000000000000000000000000815260040161162f90611f18565b60405180910390fd5b6001810382600001819055505050565b6001816000016000828254019250508190555050565b600080823b905060008111915050919050565b600061168461167f84612044565b612013565b90508281526020810184848401111561169c57600080fd5b6116a784828561215a565b509392505050565b60006116c26116bd84612074565b612013565b9050828152602081018484840111156116da57600080fd5b6116e584828561215a565b509392505050565b6000813590506116fc8161223d565b92915050565b60008135905061171181612254565b92915050565b6000813590506117268161226b565b92915050565b60008135905061173b81612282565b92915050565b60008151905061175081612282565b92915050565b600082601f83011261176757600080fd5b8135611777848260208601611671565b91505092915050565b600082601f83011261179157600080fd5b81356117a18482602086016116af565b91505092915050565b6000813590506117b981612299565b92915050565b6000602082840312156117d157600080fd5b60006117df848285016116ed565b91505092915050565b600080604083850312156117fb57600080fd5b6000611809858286016116ed565b925050602061181a858286016116ed565b9150509250929050565b60008060006060848603121561183957600080fd5b6000611847868287016116ed565b9350506020611858868287016116ed565b9250506040611869868287016117aa565b9150509250925092565b6000806000806080858703121561188957600080fd5b6000611897878288016116ed565b94505060206118a8878288016116ed565b93505060406118b9878288016117aa565b925050606085013567ffffffffffffffff8111156118d657600080fd5b6118e287828801611756565b91505092959194509250565b6000806040838503121561190157600080fd5b600061190f858286016116ed565b925050602061192085828601611702565b9150509250929050565b6000806040838503121561193d57600080fd5b600061194b858286016116ed565b925050602061195c858286016117aa565b9150509250929050565b60006020828403121561197857600080fd5b600061198684828501611702565b91505092915050565b600080604083850312156119a257600080fd5b60006119b085828601611717565b925050602083013567ffffffffffffffff8111156119cd57600080fd5b6119d985828601611780565b9150509250929050565b6000806000606084860312156119f857600080fd5b6000611a0686828701611717565b935050602084013567ffffffffffffffff811115611a2357600080fd5b611a2f86828701611780565b925050604084013567ffffffffffffffff811115611a4c57600080fd5b611a5886828701611756565b9150509250925092565b600060208284031215611a7457600080fd5b6000611a828482850161172c565b91505092915050565b600060208284031215611a9d57600080fd5b6000611aab84828501611741565b91505092915050565b600060208284031215611ac657600080fd5b6000611ad4848285016117aa565b91505092915050565b611ae6816120dc565b82525050565b611af5816120ee565b82525050565b6000611b06826120a4565b611b1081856120ba565b9350611b20818560208601612169565b611b298161222c565b840191505092915050565b6000611b3f826120af565b611b4981856120cb565b9350611b59818560208601612169565b611b628161222c565b840191505092915050565b6000611b7a6025836120cb565b91507f4f6e6c7920746865206f776e65722063616e2063616c6c20746869732066756e60008301527f6374696f6e0000000000000000000000000000000000000000000000000000006020830152604082019050919050565b6000611be0601e836120cb565b91507f526563656976696e672061646472657373206973206e6f742076616c696400006000830152602082019050919050565b6000611c20601b836120cb565b91507f436f756e7465723a2064656372656d656e74206f766572666c6f7700000000006000830152602082019050919050565b6000611c60601f836120cb565b91507f53656e646572206973206e6f74206f776e6572206f7220617070726f766564006000830152602082019050919050565b6000611ca0601f836120cb565b91507f52656365697665722069732073616d6520617320746f6b656e206f776e6572006000830152602082019050919050565b6000611ce0600c836120cb565b91507f4e6f7420617070726f76656400000000000000000000000000000000000000006000830152602082019050919050565b6000611d20600c836120cb565b91507f4e6f7420726563656976656400000000000000000000000000000000000000006000830152602082019050919050565b6000611d606019836120cb565b91507f506173736564206164647265737320697320696e76616c6964000000000000006000830152602082019050919050565b6000611da06019836120cb565b91507f53656e646572206973206e6f7420746f6b656e206f776e6572000000000000006000830152602082019050919050565b611ddc81612150565b82525050565b6000602082019050611df76000830184611add565b92915050565b6000604082019050611e126000830185611add565b611e1f6020830184611add565b9392505050565b6000608082019050611e3b6000830187611add565b611e486020830186611add565b611e556040830185611dd3565b8181036060830152611e678184611afb565b905095945050505050565b6000602082019050611e876000830184611aec565b92915050565b6000604082019050611ea26000830185611aec565b611eaf6020830184611add565b9392505050565b60006020820190508181036000830152611ed08184611b34565b905092915050565b60006020820190508181036000830152611ef181611b6d565b9050919050565b60006020820190508181036000830152611f1181611bd3565b9050919050565b60006020820190508181036000830152611f3181611c13565b9050919050565b60006020820190508181036000830152611f5181611c53565b9050919050565b60006020820190508181036000830152611f7181611c93565b9050919050565b60006020820190508181036000830152611f9181611cd3565b9050919050565b60006020820190508181036000830152611fb181611d13565b9050919050565b60006020820190508181036000830152611fd181611d53565b9050919050565b60006020820190508181036000830152611ff181611d93565b9050919050565b600060208201905061200d6000830184611dd3565b92915050565b6000604051905081810181811067ffffffffffffffff8211171561203a576120396121fd565b5b8060405250919050565b600067ffffffffffffffff82111561205f5761205e6121fd565b5b601f19601f8301169050602081019050919050565b600067ffffffffffffffff82111561208f5761208e6121fd565b5b601f19601f8301169050602081019050919050565b600081519050919050565b600081519050919050565b600082825260208201905092915050565b600082825260208201905092915050565b60006120e782612130565b9050919050565b60008115159050919050565b6000819050919050565b60007fffffffff0000000000000000000000000000000000000000000000000000000082169050919050565b600073ffffffffffffffffffffffffffffffffffffffff82169050919050565b6000819050919050565b82818337600083830152505050565b60005b8381101561218757808201518184015260208101905061216c565b83811115612196576000848401525b50505050565b600060028204905060018216806121b457607f821691505b602082108114156121c8576121c76121ce565b5b50919050565b7f4e487b7100000000000000000000000000000000000000000000000000000000600052602260045260246000fd5b7f4e487b7100000000000000000000000000000000000000000000000000000000600052604160045260246000fd5b6000601f19601f8301169050919050565b612246816120dc565b811461225157600080fd5b50565b61225d816120ee565b811461226857600080fd5b50565b612274816120fa565b811461227f57600080fd5b50565b61228b81612104565b811461229657600080fd5b50565b6122a281612150565b81146122ad57600080fd5b5056fea26469706673582212201ba44a51219d0472f9a3380a533abc9b2c67d479cafbb35b6f18548d5f51f85364736f6c63430008000033",
  "immutableReferences": {},
  "source": "// SPDX-License-Identifier: MIT\r\n\r\npragma solidity ^0.8.0;\r\n\r\nimport 'openzeppelin-solidity/contracts/utils/Address.sol';\r\nimport 'openzeppelin-solidity/contracts/utils/Counters.sol';\r\nimport 'openzeppelin-solidity/contracts/utils/math/SafeMath.sol';\r\nimport 'openzeppelin-solidity/contracts/token/ERC721/IERC721Receiver.sol';\r\nimport \"./Oraclize.sol\";\r\n\r\ncontract Ownable {\r\n    address private _owner;\r\n    \r\n    event OwnershipTransfered(address prevOwner, address newOwner);\r\n\r\n    constructor() {\r\n        _owner = msg.sender;\r\n        emit OwnershipTransfered(msg.sender, msg.sender);\r\n    }\r\n\r\n    /**\r\n     * @dev get current owner of contract\r\n     */\r\n    function getOwner() public view returns (address) {\r\n        return _owner;\r\n    }\r\n\r\n    /**\r\n     * @dev modifier to restrict function access to only contract owner\r\n     */\r\n    modifier onlyOwner() {\r\n        require(msg.sender == _owner, \"Only the owner can call this function\");\r\n        _;\r\n    }\r\n\r\n    /**\r\n     * @dev transfer contract ownership and emit respective event\r\n     * @param newOwner address of owner contract is transfered to\r\n     * only callable by current owner\r\n     */\r\n    function transferOwnership(address newOwner) public onlyOwner {\r\n        require(newOwner != address(0), \"Passed address is invalid\");\r\n\r\n        _owner = newOwner;\r\n        emit OwnershipTransfered(msg.sender, newOwner);\r\n    }\r\n}\r\n\r\ncontract Pausable is Ownable {    \r\n    /**\r\n     * @dev status of contract\r\n     */\r\n    bool private _paused;\r\n\r\n    event PausableStatus(bool _status, address _triggerAddress);\r\n\r\n    constructor() Ownable() {\r\n        _paused = false;\r\n    }\r\n\r\n    /**\r\n     * @dev owner can pause contract\r\n     */\r\n    function setPausable(bool _newStatus) public onlyOwner {\r\n        _paused == _newStatus;\r\n        \r\n        emit PausableStatus(_paused, msg.sender);\r\n    }\r\n\r\n    /**\r\n     * @dev modifier to allow function to run when contract is paused\r\n     */\r\n    modifier onlyPaused()  {\r\n        require(_paused == true, \"Contract is not paused\");\r\n        _;\r\n    }\r\n\r\n    /**\r\n     * @dev modifier to allow function to run when contract is running (!paused)\r\n     */\r\n    modifier onlyNotPaused() {\r\n        require(_paused == false, \"Contract is paused\");\r\n        _;\r\n    }\r\n}\r\n\r\ncontract ERC165 {\r\n    bytes4 private constant _INTERFACE_ID_ERC165 = 0x01ffc9a7;\r\n\r\n    /**\r\n     * @dev a mapping of interface id to whether or not it's supported\r\n     */\r\n    mapping(bytes4 => bool) private _supportedInterfaces;\r\n\r\n    /**\r\n     * @dev A contract implementing SupportsInterfaceWithLookup\r\n     * implement ERC165 itself\r\n     */\r\n    constructor () {\r\n        _registerInterface(_INTERFACE_ID_ERC165);\r\n    }\r\n\r\n    /**\r\n     * @dev implement supportsInterface(bytes4) using a lookup table\r\n     */\r\n    function supportsInterface(bytes4 interfaceId) external view returns (bool) {\r\n        return _supportedInterfaces[interfaceId];\r\n    }\r\n\r\n    /**\r\n     * @dev internal method for registering an interface\r\n     */\r\n    function _registerInterface(bytes4 interfaceId) internal {\r\n        require(interfaceId != 0xffffffff);\r\n        _supportedInterfaces[interfaceId] = true;\r\n    }\r\n}\r\n\r\ncontract ERC721 is Pausable, ERC165 {\r\n\r\n    event Transfer(address indexed from, address indexed to, uint256 indexed tokenId);\r\n\r\n    event Approval(address indexed owner, address indexed approved, uint256 indexed tokenId);\r\n\r\n    event ApprovalForAll(address indexed owner, address indexed operator, bool approved);\r\n    \r\n    using SafeMath for uint256;\r\n    using Address for address;\r\n    using Counters for Counters.Counter;\r\n\r\n    // Equals to `bytes4(keccak256(\"onERC721Received(address,address,uint256,bytes)\"))`\r\n    // which can be also obtained as `IERC721Receiver(0).onERC721Received.selector`\r\n    bytes4 private constant _ERC721_RECEIVED = 0x150b7a02;\r\n\r\n    // Mapping from token ID to owner\r\n    mapping (uint256 => address) private _tokenOwner;\r\n\r\n    // Mapping from token ID to approved address\r\n    mapping (uint256 => address) private _tokenApprovals;\r\n\r\n    // Mapping from owner to number of owned token\r\n    // IMPORTANT: this mapping uses Counters lib which is used to protect overflow when incrementing/decrementing a uint\r\n    // use the following functions when interacting with Counters: increment(), decrement(), and current() to get the value\r\n    // see: https://github.com/OpenZeppelin/openzeppelin-solidity/blob/master/contracts/drafts/Counters.sol\r\n    mapping (address => Counters.Counter) private _ownedTokensCount;\r\n\r\n    // Mapping from owner to operator approvals\r\n    mapping (address => mapping (address => bool)) private _operatorApprovals;\r\n\r\n    bytes4 private constant _INTERFACE_ID_ERC721 = 0x80ac58cd;\r\n\r\n    constructor () {\r\n        // register the supported interfaces to conform to ERC721 via ERC165\r\n        _registerInterface(_INTERFACE_ID_ERC721);\r\n    }\r\n\r\n    /**\r\n     * @dev get amount of owned tokens for account\r\n     * @param owner account balance to be checked for\r\n     */\r\n    function balanceOf(address owner) public view returns (uint256) {\r\n        return _ownedTokensCount[owner].current();\r\n    }\r\n\r\n    /**\r\n     * @dev retrieve owner of a token if it exists\r\n     * @param tokenId token ID owner to be retrieved for \r\n     */\r\n    function ownerOf(uint256 tokenId) public view returns (address) {\r\n        require(_exists(tokenId));\r\n        return _tokenOwner[tokenId];\r\n    }\r\n\r\n    /**\r\n     * @dev Approves another address to transfer the given token ID\r\n     * @param to address to be approved for transferral\r\n     * @param tokenId token ID the address gets transferral approved for\r\n     */\r\n    function approve(address to, uint256 tokenId) public {\r\n        require(_exists(tokenId));\r\n\r\n        address currOwner = _tokenOwner[tokenId];\r\n\r\n        require(to != currOwner, \"Receiver is same as token owner\");\r\n        require(msg.sender == currOwner || isApprovedForAll(currOwner, msg.sender), \"Sender is not owner or approved\");\r\n\r\n        _tokenApprovals[tokenId] = to;\r\n\r\n        emit Approval(msg.sender, to, tokenId);\r\n    }\r\n\r\n    /**\r\n     * @dev Approves another address to transfer the given token ID\r\n     * @param tokenId token ID for which approved addresses are returned\r\n     * @return address which has approval\r\n     */\r\n    function getApproved(uint256 tokenId) public view returns (address) {\r\n        require(_exists(tokenId));\r\n        return _tokenApprovals[tokenId];\r\n    }\r\n\r\n    /**\r\n     * @dev Sets or unsets the approval of a given operator\r\n     * An operator is allowed to transfer all tokens of the sender on their behalf\r\n     * @param to operator address to set the approval\r\n     * @param approved representing the status of the approval to be set\r\n     */\r\n    function setApprovalForAll(address to, bool approved) public {\r\n        require(to != msg.sender);\r\n        _operatorApprovals[msg.sender][to] = approved;\r\n        emit ApprovalForAll(msg.sender, to, approved);\r\n    }\r\n\r\n    /**\r\n     * @dev Tells whether an operator is approved by a given owner\r\n     * @param owner owner address which you want to query the approval of\r\n     * @param operator operator address which you want to query the approval of\r\n     * @return bool whether the given operator is approved by the given owner\r\n     */\r\n    function isApprovedForAll(address owner, address operator) public view returns (bool) {\r\n        return _operatorApprovals[owner][operator];\r\n    }\r\n\r\n    /**\r\n     * @dev transfer token from one address to another\r\n     * @param from address from wich the token will be transferred from\r\n     * @param to address to which token will be address\r\n     * @param tokenId token ID to be transferred\r\n     */\r\n    function transferFrom(address from, address to, uint256 tokenId) public {\r\n        require(_exists(tokenId));\r\n        require(_isApprovedOrOwner(msg.sender, tokenId), \"Not approved\");\r\n\r\n        _transferFrom(from, to, tokenId);\r\n    }\r\n\r\n    /**\r\n     * @dev safe transfer token from one address to another\r\n     * @param from address from wich the token will be transferred from\r\n     * @param to address to which token will be address\r\n     * @param tokenId token ID to be transferred\r\n     */\r\n    function safeTransferFrom(address from, address to, uint256 tokenId) public {\r\n        require(_exists(tokenId));\r\n        safeTransferFrom(from, to, tokenId, \"\");\r\n    }\r\n\r\n    /**\r\n     * @dev safe transfer token from one address to another\r\n     * @param from address from wich the token will be transferred from\r\n     * @param to address to which token will be address\r\n     * @param tokenId token ID to be transferred\r\n     */\r\n    function safeTransferFrom(address from, address to, uint256 tokenId, bytes memory _data) public {\r\n        require(_exists(tokenId));\r\n        transferFrom(from, to, tokenId);\r\n        require(_checkOnERC721Received(from, to, tokenId, _data), \"Not received\");\r\n    }\r\n\r\n    /**\r\n     * @dev Returns whether the specified token exists\r\n     * @param tokenId uint256 ID of the token to query the existence of\r\n     * @return bool whether the token exists\r\n     */\r\n    function _exists(uint256 tokenId) internal view returns (bool) {\r\n        address owner = _tokenOwner[tokenId];\r\n        return owner != address(0);\r\n    }\r\n\r\n    /**\r\n     * @dev Returns whether the given spender can transfer a given token ID\r\n     * @param spender address of the spender to query\r\n     * @param tokenId uint256 ID of the token to be transferred\r\n     * @return bool whether the msg.sender is approved for the given token ID,\r\n     * is an operator of the owner, or is the owner of the token\r\n     */\r\n    function _isApprovedOrOwner(address spender, uint256 tokenId) internal view returns (bool) {\r\n        address owner = ownerOf(tokenId);\r\n        return (spender == owner || getApproved(tokenId) == spender || isApprovedForAll(owner, spender));\r\n    }\r\n\r\n    /**\r\n     * @dev mint a new token and set owner\r\n     * @param to address to which token will be addressed\r\n     * @param tokenId token ID to be minted\r\n     */\r\n     function _mint(address to, uint256 tokenId) internal {\r\n\r\n        require(_tokenOwner[tokenId] == address(0), \"Token already exist\");\r\n        require(to != address(0), \"Address invalid\");\r\n        \r\n        _tokenOwner[tokenId] = to;\r\n        _ownedTokensCount[to].increment();\r\n\r\n        emit Transfer(msg.sender, to, tokenId);\r\n\r\n    }\r\n\r\n    /**\r\n     * @dev Internal function to transfer ownership of a given token ID to another address\r\n     */\r\n    function _transferFrom(address from, address to, uint256 tokenId) internal {\r\n\r\n        require(_tokenOwner[tokenId] == from, \"Sender is not token owner\");\r\n        require(to != address(0), \"Receiving address is not valid\");\r\n\r\n        _tokenApprovals[tokenId] = address(0);\r\n\r\n        _ownedTokensCount[from].decrement();\r\n        _ownedTokensCount[to].increment();\r\n        _tokenOwner[tokenId] = to;\r\n\r\n        emit Transfer(from, to, tokenId);\r\n    }\r\n\r\n    /**\r\n     * @dev Internal function to invoke `onERC721Received` on a target address\r\n     * The call is not executed if the target address is not a contract\r\n     * @param from address representing the previous owner of the given token ID\r\n     * @param to target address that will receive the tokens\r\n     * @param tokenId uint256 ID of the token to be transferred\r\n     * @param _data bytes optional data to send along with the call\r\n     * @return bool whether the call correctly returned the expected magic value\r\n     */\r\n    function _checkOnERC721Received(address from, address to, uint256 tokenId, bytes memory _data)\r\n        internal returns (bool)\r\n    {\r\n        if (!to.isContract()) {\r\n            return true;\r\n        }\r\n\r\n        bytes4 retval = IERC721Receiver(to).onERC721Received(msg.sender, from, tokenId, _data);\r\n        return (retval == _ERC721_RECEIVED);\r\n    }\r\n\r\n    /**\r\n     * @dev Private function to clear current approval of a given token ID\r\n     */\r\n    function _clearApproval(uint256 tokenId) private {\r\n        if (_tokenApprovals[tokenId] != address(0)) {\r\n            _tokenApprovals[tokenId] = address(0);\r\n        }\r\n    }\r\n}\r\n\r\ncontract ERC721Enumerable is ERC165, ERC721 {\r\n    // Mapping from owner to list of owned token IDs\r\n    mapping(address => uint256[]) private _ownedTokens;\r\n\r\n    // Mapping from token ID to index of the owner tokens list\r\n    mapping(uint256 => uint256) private _ownedTokensIndex;\r\n\r\n    // Array with all token ids, used for enumeration\r\n    uint256[] private _allTokens;\r\n\r\n    // Mapping from token id to position in the allTokens array\r\n    mapping(uint256 => uint256) private _allTokensIndex;\r\n\r\n    bytes4 private constant _INTERFACE_ID_ERC721_ENUMERABLE = 0x780e9d63;\r\n    /**\r\n     * @dev Constructor function\r\n     */\r\n    constructor () {\r\n        // register the supported interface to conform to ERC721Enumerable via ERC165\r\n        _registerInterface(_INTERFACE_ID_ERC721_ENUMERABLE);\r\n    }\r\n\r\n    /**\r\n     * @dev Gets the token ID at a given index of the tokens list of the requested owner\r\n     * @param owner address owning the tokens list to be accessed\r\n     * @param index uint256 representing the index to be accessed of the requested tokens list\r\n     * @return uint256 token ID at the given index of the tokens list owned by the requested address\r\n     */\r\n    function tokenOfOwnerByIndex(address owner, uint256 index) public view returns (uint256) {\r\n        require(index < balanceOf(owner));\r\n        return _ownedTokens[owner][index];\r\n    }\r\n\r\n    /**\r\n     * @dev Gets the total amount of tokens stored by the contract\r\n     * @return uint256 representing the total amount of tokens\r\n     */\r\n    function totalSupply() public view returns (uint256) {\r\n        return _allTokens.length;\r\n    }\r\n\r\n    /**\r\n     * @dev Gets the token ID at a given index of all the tokens in this contract\r\n     * Reverts if the index is greater or equal to the total number of tokens\r\n     * @param index uint256 representing the index to be accessed of the tokens list\r\n     * @return uint256 token ID at the given index of the tokens list\r\n     */\r\n    function tokenByIndex(uint256 index) public view returns (uint256) {\r\n        require(index < totalSupply());\r\n        return _allTokens[index];\r\n    }\r\n\r\n    /**\r\n     * @dev Internal function to transfer ownership of a given token ID to another address.\r\n     * As opposed to transferFrom, this imposes no restrictions on msg.sender.\r\n     * @param from current owner of the token\r\n     * @param to address to receive the ownership of the given token ID\r\n     * @param tokenId uint256 ID of the token to be transferred\r\n     */\r\n    function _transferFromEnumeration(address from, address to, uint256 tokenId) internal {\r\n        super._transferFrom(from, to, tokenId);\r\n\r\n        _removeTokenFromOwnerEnumeration(from, tokenId);\r\n\r\n        _addTokenToOwnerEnumeration(to, tokenId);\r\n    }\r\n\r\n    /**\r\n     * @dev Internal function to mint a new token\r\n     * Reverts if the given token ID already exists\r\n     * @param to address the beneficiary that will own the minted token\r\n     * @param tokenId uint256 ID of the token to be minted\r\n     */\r\n    function _mintEnumerable(address to, uint256 tokenId) internal {\r\n        super._mint(to, tokenId);\r\n\r\n        _addTokenToOwnerEnumeration(to, tokenId);\r\n\r\n        _addTokenToAllTokensEnumeration(tokenId);\r\n    }\r\n\r\n    /**\r\n     * @dev Gets the list of token IDs of the requested owner\r\n     * @param owner address owning the tokens\r\n     * @return uint256[] List of token IDs owned by the requested address\r\n     */\r\n    function _tokensOfOwner(address owner) internal view returns (uint256[] storage) {\r\n        return _ownedTokens[owner];\r\n    }\r\n\r\n    /**\r\n     * @dev Private function to add a token to this extension's ownership-tracking data structures.\r\n     * @param to address representing the new owner of the given token ID\r\n     * @param tokenId uint256 ID of the token to be added to the tokens list of the given address\r\n     */\r\n    function _addTokenToOwnerEnumeration(address to, uint256 tokenId) private {\r\n        _ownedTokensIndex[tokenId] = _ownedTokens[to].length;\r\n        _ownedTokens[to].push(tokenId);\r\n    }\r\n\r\n    /**\r\n     * @dev Private function to add a token to this extension's token tracking data structures.\r\n     * @param tokenId uint256 ID of the token to be added to the tokens list\r\n     */\r\n    function _addTokenToAllTokensEnumeration(uint256 tokenId) private {\r\n        _allTokensIndex[tokenId] = _allTokens.length;\r\n        _allTokens.push(tokenId);\r\n    }\r\n\r\n    /**\r\n     * @dev Private function to remove a token from this extension's ownership-tracking data structures. Note that\r\n     * while the token is not assigned a new owner, the _ownedTokensIndex mapping is _not_ updated: this allows for\r\n     * gas optimizations e.g. when performing a transfer operation (avoiding double writes).\r\n     * This has O(1) time complexity, but alters the order of the _ownedTokens array.\r\n     * @param from address representing the previous owner of the given token ID\r\n     * @param tokenId uint256 ID of the token to be removed from the tokens list of the given address\r\n     */\r\n    function _removeTokenFromOwnerEnumeration(address from, uint256 tokenId) private {\r\n        // To prevent a gap in from's tokens array, we store the last token in the index of the token to delete, and\r\n        // then delete the last slot (swap and pop).\r\n\r\n        uint256 lastTokenIndex = _ownedTokens[from].length - 1;\r\n        uint256 tokenIndex = _ownedTokensIndex[tokenId];\r\n\r\n        // When the token to delete is the last token, the swap operation is unnecessary\r\n        if (tokenIndex != lastTokenIndex) {\r\n            uint256 lastTokenId = _ownedTokens[from][lastTokenIndex];\r\n\r\n            _ownedTokens[from][tokenIndex] = lastTokenId; // Move the last token to the slot of the to-delete token\r\n            _ownedTokensIndex[lastTokenId] = tokenIndex; // Update the moved token's index\r\n        }\r\n\r\n        // This also deletes the contents at the last position of the array\r\n        _ownedTokens[from].pop();\r\n\r\n        // Note that _ownedTokensIndex[tokenId] hasn't been cleared: it still points to the old slot (now occupied by\r\n        // lastTokenId, or just over the end of the array if the token was the last one).\r\n    }\r\n\r\n    /**\r\n     * @dev Private function to remove a token from this extension's token tracking data structures.\r\n     * This has O(1) time complexity, but alters the order of the _allTokens array.\r\n     * @param tokenId uint256 ID of the token to be removed from the tokens list\r\n     */\r\n    function _removeTokenFromAllTokensEnumeration(uint256 tokenId) private {\r\n        // To prevent a gap in the tokens array, we store the last token in the index of the token to delete, and\r\n        // then delete the last slot (swap and pop).\r\n\r\n        uint256 lastTokenIndex = _allTokens.length - 1;\r\n        uint256 tokenIndex = _allTokensIndex[tokenId];\r\n\r\n        // When the token to delete is the last token, the swap operation is unnecessary. However, since this occurs so\r\n        // rarely (when the last minted token is burnt) that we still do the swap here to avoid the gas cost of adding\r\n        // an 'if' statement (like in _removeTokenFromOwnerEnumeration)\r\n        uint256 lastTokenId = _allTokens[lastTokenIndex];\r\n\r\n        _allTokens[tokenIndex] = lastTokenId; // Move the last token to the slot of the to-delete token\r\n        _allTokensIndex[lastTokenId] = tokenIndex; // Update the moved token's index\r\n\r\n        // This also deletes the contents at the last position of the array\r\n        _allTokens.pop();\r\n        _allTokensIndex[tokenId] = 0;\r\n    }\r\n}\r\n\r\ncontract ERC721Metadata is ERC721Enumerable, usingOraclize {\r\n    \r\n    string private _name;\r\n    string private _symbol;\r\n    string private _baseTokenURI;\r\n\r\n    mapping (uint256 => string) private _tokenURIs;\r\n\r\n    bytes4 private constant _INTERFACE_ID_ERC721_METADATA = 0x5b5e139f;\r\n\r\n    constructor (string memory newName, string memory newSymbol, string memory newBaseTokenURI) {\r\n        _name = newName;\r\n        _symbol = newSymbol;\r\n        _baseTokenURI = newBaseTokenURI;\r\n        _registerInterface(_INTERFACE_ID_ERC721_METADATA);\r\n    }\r\n\r\n    // getter functions   \r\n    function name() external view returns (string memory) {\r\n        return _name;\r\n    }\r\n\r\n    function symbol() external view returns (string memory) {\r\n        return _symbol;\r\n    }\r\n\r\n    function baseTokenURI() external view returns (string memory) {\r\n        return _baseTokenURI;\r\n    }\r\n\r\n    function tokenURI(uint256 _tokenId) external view returns (string memory) {\r\n        require(_exists(_tokenId));\r\n        return _tokenURIs[_tokenId];\r\n    }\r\n\r\n    // TODO: Create an internal function to set the tokenURI of a specified tokenId\r\n    // It should be the _baseTokenURI + the tokenId in string form\r\n    // TIP #1: use strConcat() from the imported oraclizeAPI lib to set the complete token URI\r\n    // TIP #2: you can also use uint2str() to convert a uint to a string\r\n        // see https://github.com/oraclize/ethereum-api/blob/master/oraclizeAPI_0.5.sol for strConcat()\r\n    // require the token exists before setting\r\n    function _setTokenURI(uint tokenId) internal {\r\n        require(_exists(tokenId));\r\n        string memory _tokenURI = usingOraclize.strConcat(_baseTokenURI, usingOraclize.uint2str(tokenId));\r\n        _tokenURIs[tokenId] = _tokenURI;\r\n    }\r\n\r\n}\r\n\r\n//  TODO's: Create CustomERC721Token contract that inherits from the ERC721Metadata contract. You can name this contract as you please\r\n//  1) Pass in appropriate values for the inherited ERC721Metadata contract\r\n//      - make the base token uri: https://s3-us-west-2.amazonaws.com/udacity-blockchain/capstone/\r\n//  2) create a public mint() that does the following:\r\n//      -can only be executed by the contract owner\r\n//      -takes in a 'to' address, tokenId, and tokenURI as parameters\r\n//      -returns a true boolean upon completion of the function\r\n//      -calls the superclass mint and setTokenURI functions\r\n\r\ncontract propertyERC721Token is ERC721Metadata {\r\n    constructor(\r\n        string memory name,\r\n        string memory symbol,\r\n        string memory baseURI\r\n    ) ERC721Metadata(name, symbol, baseURI) {}\r\n\r\n    /**\r\n     * @dev public function to mint new tokens\r\n     * @param tokenId uint256 ID of the token to be added to the tokens list\r\n     * @param to owner address of the new token\r\n     */\r\n    function mint(address to, uint256 tokenId) public onlyOwner onlyNotPaused returns (bool) {\r\n        super._mintEnumerable(to, tokenId);\r\n        super._setTokenURI(tokenId);\r\n        return true;\r\n    }\r\n}\r\n\r\n",
  "sourcePath": "C:/Users/Daniel/Documents/GitHub/Property-Title_Smart-Contract/eth-contracts/contracts/ERC721Mintable.sol",
  "compiler": {
    "name": "solc",
    "version": "0.8.0+commit.c7dfd78e.Emscripten.clang"
  },
  "schemaVersion": "3.4.1",
  "updatedAt": "2021-09-19T23:17:16.031Z",
  "devdoc": {
    "kind": "dev",
    "methods": {
      "__callback(bytes32,string)": {
        "details": "The following `__callback` functions are just placeholders ideally      meant to be defined in child contract when proofs are used.      The function bodies simply silence compiler warnings."
      },
      "approve(address,uint256)": {
        "details": "Approves another address to transfer the given token ID",
        "params": {
          "to": "address to be approved for transferral",
          "tokenId": "token ID the address gets transferral approved for"
        }
      },
      "balanceOf(address)": {
        "details": "get amount of owned tokens for account",
        "params": {
          "owner": "account balance to be checked for"
        }
      },
      "getApproved(uint256)": {
        "details": "Approves another address to transfer the given token ID",
        "params": {
          "tokenId": "token ID for which approved addresses are returned"
        },
        "returns": {
          "_0": "address which has approval"
        }
      },
      "getOwner()": {
        "details": "get current owner of contract"
      },
      "isApprovedForAll(address,address)": {
        "details": "Tells whether an operator is approved by a given owner",
        "params": {
          "operator": "operator address which you want to query the approval of",
          "owner": "owner address which you want to query the approval of"
        },
        "returns": {
          "_0": "bool whether the given operator is approved by the given owner"
        }
      },
      "ownerOf(uint256)": {
        "details": "retrieve owner of a token if it exists",
        "params": {
          "tokenId": "token ID owner to be retrieved for "
        }
      },
      "safeTransferFrom(address,address,uint256)": {
        "details": "safe transfer token from one address to another",
        "params": {
          "from": "address from wich the token will be transferred from",
          "to": "address to which token will be address",
          "tokenId": "token ID to be transferred"
        }
      },
      "safeTransferFrom(address,address,uint256,bytes)": {
        "details": "safe transfer token from one address to another",
        "params": {
          "from": "address from wich the token will be transferred from",
          "to": "address to which token will be address",
          "tokenId": "token ID to be transferred"
        }
      },
      "setApprovalForAll(address,bool)": {
        "details": "Sets or unsets the approval of a given operator An operator is allowed to transfer all tokens of the sender on their behalf",
        "params": {
          "approved": "representing the status of the approval to be set",
          "to": "operator address to set the approval"
        }
      },
      "setPausable(bool)": {
        "details": "owner can pause contract"
      },
      "supportsInterface(bytes4)": {
        "details": "implement supportsInterface(bytes4) using a lookup table"
      },
      "tokenByIndex(uint256)": {
        "details": "Gets the token ID at a given index of all the tokens in this contract Reverts if the index is greater or equal to the total number of tokens",
        "params": {
          "index": "uint256 representing the index to be accessed of the tokens list"
        },
        "returns": {
          "_0": "uint256 token ID at the given index of the tokens list"
        }
      },
      "tokenOfOwnerByIndex(address,uint256)": {
        "details": "Gets the token ID at a given index of the tokens list of the requested owner",
        "params": {
          "index": "uint256 representing the index to be accessed of the requested tokens list",
          "owner": "address owning the tokens list to be accessed"
        },
        "returns": {
          "_0": "uint256 token ID at the given index of the tokens list owned by the requested address"
        }
      },
      "totalSupply()": {
        "details": "Gets the total amount of tokens stored by the contract",
        "returns": {
          "_0": "uint256 representing the total amount of tokens"
        }
      },
      "transferFrom(address,address,uint256)": {
        "details": "transfer token from one address to another",
        "params": {
          "from": "address from wich the token will be transferred from",
          "to": "address to which token will be address",
          "tokenId": "token ID to be transferred"
        }
      },
      "transferOwnership(address)": {
        "details": "transfer contract ownership and emit respective event",
        "params": {
          "newOwner": "address of owner contract is transfered to only callable by current owner"
        }
      }
    },
    "version": 1
  },
  "userdoc": {
    "kind": "user",
    "methods": {},
    "version": 1
  }
}