{
  "contractName": "propertyERC721Token",
  "abi": [
    {
      "inputs": [
        {
          "internalType": "string",
          "name": "name",
          "type": "string"
        },
        {
          "internalType": "string",
          "name": "symbol",
          "type": "string"
        },
        {
          "internalType": "string",
          "name": "baseURI",
          "type": "string"
        }
      ],
      "stateMutability": "nonpayable",
      "type": "constructor"
    },
    {
      "anonymous": false,
      "inputs": [
        {
          "indexed": true,
          "internalType": "address",
          "name": "owner",
          "type": "address"
        },
        {
          "indexed": true,
          "internalType": "address",
          "name": "approved",
          "type": "address"
        },
        {
          "indexed": true,
          "internalType": "uint256",
          "name": "tokenId",
          "type": "uint256"
        }
      ],
      "name": "Approval",
      "type": "event"
    },
    {
      "anonymous": false,
      "inputs": [
        {
          "indexed": true,
          "internalType": "address",
          "name": "owner",
          "type": "address"
        },
        {
          "indexed": true,
          "internalType": "address",
          "name": "operator",
          "type": "address"
        },
        {
          "indexed": false,
          "internalType": "bool",
          "name": "approved",
          "type": "bool"
        }
      ],
      "name": "ApprovalForAll",
      "type": "event"
    },
    {
      "anonymous": false,
      "inputs": [
        {
          "indexed": false,
          "internalType": "address",
          "name": "prevOwner",
          "type": "address"
        },
        {
          "indexed": false,
          "internalType": "address",
          "name": "newOwner",
          "type": "address"
        }
      ],
      "name": "OwnershipTransfered",
      "type": "event"
    },
    {
      "anonymous": false,
      "inputs": [
        {
          "indexed": false,
          "internalType": "bool",
          "name": "_status",
          "type": "bool"
        },
        {
          "indexed": false,
          "internalType": "address",
          "name": "_triggerAddress",
          "type": "address"
        }
      ],
      "name": "PausableStatus",
      "type": "event"
    },
    {
      "anonymous": false,
      "inputs": [
        {
          "indexed": true,
          "internalType": "address",
          "name": "from",
          "type": "address"
        },
        {
          "indexed": true,
          "internalType": "address",
          "name": "to",
          "type": "address"
        },
        {
          "indexed": true,
          "internalType": "uint256",
          "name": "tokenId",
          "type": "uint256"
        }
      ],
      "name": "Transfer",
      "type": "event"
    },
    {
      "inputs": [
        {
          "internalType": "bytes32",
          "name": "_myid",
          "type": "bytes32"
        },
        {
          "internalType": "string",
          "name": "_result",
          "type": "string"
        }
      ],
      "name": "__callback",
      "outputs": [],
      "stateMutability": "nonpayable",
      "type": "function"
    },
    {
      "inputs": [
        {
          "internalType": "bytes32",
          "name": "_myid",
          "type": "bytes32"
        },
        {
          "internalType": "string",
          "name": "_result",
          "type": "string"
        },
        {
          "internalType": "bytes",
          "name": "_proof",
          "type": "bytes"
        }
      ],
      "name": "__callback",
      "outputs": [],
      "stateMutability": "nonpayable",
      "type": "function"
    },
    {
      "inputs": [
        {
          "internalType": "address",
          "name": "to",
          "type": "address"
        },
        {
          "internalType": "uint256",
          "name": "tokenId",
          "type": "uint256"
        }
      ],
      "name": "approve",
      "outputs": [],
      "stateMutability": "nonpayable",
      "type": "function"
    },
    {
      "inputs": [
        {
          "internalType": "address",
          "name": "owner",
          "type": "address"
        }
      ],
      "name": "balanceOf",
      "outputs": [
        {
          "internalType": "uint256",
          "name": "",
          "type": "uint256"
        }
      ],
      "stateMutability": "view",
      "type": "function"
    },
    {
      "inputs": [],
      "name": "baseTokenURI",
      "outputs": [
        {
          "internalType": "string",
          "name": "",
          "type": "string"
        }
      ],
      "stateMutability": "view",
      "type": "function"
    },
    {
      "inputs": [
        {
          "internalType": "uint256",
          "name": "tokenId",
          "type": "uint256"
        }
      ],
      "name": "getApproved",
      "outputs": [
        {
          "internalType": "address",
          "name": "",
          "type": "address"
        }
      ],
      "stateMutability": "view",
      "type": "function"
    },
    {
      "inputs": [],
      "name": "getOwner",
      "outputs": [
        {
          "internalType": "address",
          "name": "",
          "type": "address"
        }
      ],
      "stateMutability": "view",
      "type": "function"
    },
    {
      "inputs": [
        {
          "internalType": "address",
          "name": "owner",
          "type": "address"
        },
        {
          "internalType": "address",
          "name": "operator",
          "type": "address"
        }
      ],
      "name": "isApprovedForAll",
      "outputs": [
        {
          "internalType": "bool",
          "name": "",
          "type": "bool"
        }
      ],
      "stateMutability": "view",
      "type": "function"
    },
    {
      "inputs": [],
      "name": "name",
      "outputs": [
        {
          "internalType": "string",
          "name": "",
          "type": "string"
        }
      ],
      "stateMutability": "view",
      "type": "function"
    },
    {
      "inputs": [
        {
          "internalType": "uint256",
          "name": "tokenId",
          "type": "uint256"
        }
      ],
      "name": "ownerOf",
      "outputs": [
        {
          "internalType": "address",
          "name": "",
          "type": "address"
        }
      ],
      "stateMutability": "view",
      "type": "function"
    },
    {
      "inputs": [
        {
          "internalType": "address",
          "name": "from",
          "type": "address"
        },
        {
          "internalType": "address",
          "name": "to",
          "type": "address"
        },
        {
          "internalType": "uint256",
          "name": "tokenId",
          "type": "uint256"
        }
      ],
      "name": "safeTransferFrom",
      "outputs": [],
      "stateMutability": "nonpayable",
      "type": "function"
    },
    {
      "inputs": [
        {
          "internalType": "address",
          "name": "from",
          "type": "address"
        },
        {
          "internalType": "address",
          "name": "to",
          "type": "address"
        },
        {
          "internalType": "uint256",
          "name": "tokenId",
          "type": "uint256"
        },
        {
          "internalType": "bytes",
          "name": "_data",
          "type": "bytes"
        }
      ],
      "name": "safeTransferFrom",
      "outputs": [],
      "stateMutability": "nonpayable",
      "type": "function"
    },
    {
      "inputs": [
        {
          "internalType": "address",
          "name": "to",
          "type": "address"
        },
        {
          "internalType": "bool",
          "name": "approved",
          "type": "bool"
        }
      ],
      "name": "setApprovalForAll",
      "outputs": [],
      "stateMutability": "nonpayable",
      "type": "function"
    },
    {
      "inputs": [
        {
          "internalType": "bool",
          "name": "_newStatus",
          "type": "bool"
        }
      ],
      "name": "setPausable",
      "outputs": [],
      "stateMutability": "nonpayable",
      "type": "function"
    },
    {
      "inputs": [
        {
          "internalType": "bytes4",
          "name": "interfaceId",
          "type": "bytes4"
        }
      ],
      "name": "supportsInterface",
      "outputs": [
        {
          "internalType": "bool",
          "name": "",
          "type": "bool"
        }
      ],
      "stateMutability": "view",
      "type": "function"
    },
    {
      "inputs": [],
      "name": "symbol",
      "outputs": [
        {
          "internalType": "string",
          "name": "",
          "type": "string"
        }
      ],
      "stateMutability": "view",
      "type": "function"
    },
    {
      "inputs": [
        {
          "internalType": "uint256",
          "name": "index",
          "type": "uint256"
        }
      ],
      "name": "tokenByIndex",
      "outputs": [
        {
          "internalType": "uint256",
          "name": "",
          "type": "uint256"
        }
      ],
      "stateMutability": "view",
      "type": "function"
    },
    {
      "inputs": [
        {
          "internalType": "address",
          "name": "owner",
          "type": "address"
        },
        {
          "internalType": "uint256",
          "name": "index",
          "type": "uint256"
        }
      ],
      "name": "tokenOfOwnerByIndex",
      "outputs": [
        {
          "internalType": "uint256",
          "name": "",
          "type": "uint256"
        }
      ],
      "stateMutability": "view",
      "type": "function"
    },
    {
      "inputs": [
        {
          "internalType": "uint256",
          "name": "_tokenId",
          "type": "uint256"
        }
      ],
      "name": "tokenURI",
      "outputs": [
        {
          "internalType": "string",
          "name": "",
          "type": "string"
        }
      ],
      "stateMutability": "view",
      "type": "function"
    },
    {
      "inputs": [],
      "name": "totalSupply",
      "outputs": [
        {
          "internalType": "uint256",
          "name": "",
          "type": "uint256"
        }
      ],
      "stateMutability": "view",
      "type": "function"
    },
    {
      "inputs": [
        {
          "internalType": "address",
          "name": "from",
          "type": "address"
        },
        {
          "internalType": "address",
          "name": "to",
          "type": "address"
        },
        {
          "internalType": "uint256",
          "name": "tokenId",
          "type": "uint256"
        }
      ],
      "name": "transferFrom",
      "outputs": [],
      "stateMutability": "nonpayable",
      "type": "function"
    },
    {
      "inputs": [
        {
          "internalType": "address",
          "name": "newOwner",
          "type": "address"
        }
      ],
      "name": "transferOwnership",
      "outputs": [],
      "stateMutability": "nonpayable",
      "type": "function"
    },
    {
      "inputs": [
        {
          "internalType": "address",
          "name": "to",
          "type": "address"
        },
        {
          "internalType": "uint256",
          "name": "tokenId",
          "type": "uint256"
        }
      ],
      "name": "mint",
      "outputs": [
        {
          "internalType": "bool",
          "name": "",
          "type": "bool"
        }
      ],
      "stateMutability": "nonpayable",
      "type": "function"
    }
  ],
  "bytecode": "0x60806040523480156200001157600080fd5b506040516200383638038062003836833981810160405281019062000037919062000348565b828282336000806101000a81548173ffffffffffffffffffffffffffffffffffffffff021916908373ffffffffffffffffffffffffffffffffffffffff1602179055507f0d18b5fd22306e373229b9439188228edca81207d1667f604daf6cef8aa3ee673333604051620000ad929190620003fa565b60405180910390a160008060146101000a81548160ff021916908315150217905550620000e76301ffc9a760e01b6200018660201b60201c565b620000ff6380ac58cd60e01b6200018660201b60201c565b6200011763780e9d6360e01b6200018660201b60201c565b82600f90805190602001906200012f92919062000226565b5081601090805190602001906200014892919062000226565b5080601190805190602001906200016192919062000226565b506200017a635b5e139f60e01b6200018660201b60201c565b5050505050506200058c565b63ffffffff60e01b817bffffffffffffffffffffffffffffffffffffffffffffffffffffffff19161415620001ba57600080fd5b6001806000837bffffffffffffffffffffffffffffffffffffffffffffffffffffffff19167bffffffffffffffffffffffffffffffffffffffffffffffffffffffff1916815260200190815260200160002060006101000a81548160ff02191690831515021790555050565b8280546200023490620004f8565b90600052602060002090601f016020900481019282620002585760008555620002a4565b82601f106200027357805160ff1916838001178555620002a4565b82800160010185558215620002a4579182015b82811115620002a357825182559160200191906001019062000286565b5b509050620002b39190620002b7565b5090565b5b80821115620002d2576000816000905550600101620002b8565b5090565b6000620002ed620002e7846200045b565b62000427565b9050828152602081018484840111156200030657600080fd5b62000313848285620004c2565b509392505050565b600082601f8301126200032d57600080fd5b81516200033f848260208601620002d6565b91505092915050565b6000806000606084860312156200035e57600080fd5b600084015167ffffffffffffffff8111156200037957600080fd5b62000387868287016200031b565b935050602084015167ffffffffffffffff811115620003a557600080fd5b620003b3868287016200031b565b925050604084015167ffffffffffffffff811115620003d157600080fd5b620003df868287016200031b565b9150509250925092565b620003f4816200048e565b82525050565b6000604082019050620004116000830185620003e9565b620004206020830184620003e9565b9392505050565b6000604051905081810181811067ffffffffffffffff821117156200045157620004506200055d565b5b8060405250919050565b600067ffffffffffffffff8211156200047957620004786200055d565b5b601f19601f8301169050602081019050919050565b60006200049b82620004a2565b9050919050565b600073ffffffffffffffffffffffffffffffffffffffff82169050919050565b60005b83811015620004e2578082015181840152602081019050620004c5565b83811115620004f2576000848401525b50505050565b600060028204905060018216806200051157607f821691505b602082108114156200052857620005276200052e565b5b50919050565b7f4e487b7100000000000000000000000000000000000000000000000000000000600052602260045260246000fd5b7f4e487b7100000000000000000000000000000000000000000000000000000000600052604160045260246000fd5b61329a806200059c6000396000f3fe608060405234801561001057600080fd5b506004361061014d5760003560e01c80634f6ccce7116100c3578063a22cb4651161007c578063a22cb465146103c2578063b88d4fde146103de578063c87b56dd146103fa578063d547cfb71461042a578063e985e9c514610448578063f2fde38b146104785761014d565b80634f6ccce7146102da5780636352211e1461030a57806370a082311461033a578063736d323a1461036a578063893d20e81461038657806395d89b41146103a45761014d565b806323b872dd1161011557806323b872dd1461020a57806327dc297e146102265780632f745c591461024257806338bbfa501461027257806340c10f191461028e57806342842e0e146102be5761014d565b806301ffc9a71461015257806306fdde0314610182578063081812fc146101a0578063095ea7b3146101d057806318160ddd146101ec575b600080fd5b61016c6004803603810190610167919061276d565b610494565b6040516101799190612c3d565b60405180910390f35b61018a6104fc565b6040516101979190612c81565b60405180910390f35b6101ba60048036038101906101b591906127bf565b61058e565b6040516101c79190612bad565b60405180910390f35b6101ea60048036038101906101e59190612635565b6105dd565b005b6101f46107c7565b6040516102019190612e23565b60405180910390f35b610224600480360381019061021f919061252f565b6107d4565b005b610240600480360381019061023b919061269a565b61083f565b005b61025c60048036038101906102579190612635565b6108c1565b6040516102699190612e23565b60405180910390f35b61028c600480360381019061028791906126ee565b610961565b005b6102a860048036038101906102a39190612635565b610984565b6040516102b59190612c3d565b60405180910390f35b6102d860048036038101906102d3919061252f565b610a88565b005b6102f460048036038101906102ef91906127bf565b610aba565b6040516103019190612e23565b60405180910390f35b610324600480360381019061031f91906127bf565b610b1b565b6040516103319190612bad565b60405180910390f35b610354600480360381019061034f91906124ca565b610b6a565b6040516103619190612e23565b60405180910390f35b610384600480360381019061037f9190612671565b610bba565b005b61038e610ca5565b60405161039b9190612bad565b60405180910390f35b6103ac610cce565b6040516103b99190612c81565b60405180910390f35b6103dc60048036038101906103d791906125f9565b610d60565b005b6103f860048036038101906103f3919061257e565b610e96565b005b610414600480360381019061040f91906127bf565b610f04565b6040516104219190612c81565b60405180910390f35b610432610fbb565b60405161043f9190612c81565b60405180910390f35b610462600480360381019061045d91906124f3565b61104d565b60405161046f9190612c3d565b60405180910390f35b610492600480360381019061048d91906124ca565b6110e1565b005b600060016000837bffffffffffffffffffffffffffffffffffffffffffffffffffffffff19167bffffffffffffffffffffffffffffffffffffffffffffffffffffffff1916815260200190815260200160002060009054906101000a900460ff169050919050565b6060600f805461050b90613078565b80601f016020809104026020016040519081016040528092919081815260200182805461053790613078565b80156105845780601f1061055957610100808354040283529160200191610584565b820191906000526020600020905b81548152906001019060200180831161056757829003601f168201915b5050505050905090565b60006105998261125b565b6105a257600080fd5b6003600083815260200190815260200160002060009054906101000a900473ffffffffffffffffffffffffffffffffffffffff169050919050565b6105e68161125b565b6105ef57600080fd5b60006002600083815260200190815260200160002060009054906101000a900473ffffffffffffffffffffffffffffffffffffffff1690508073ffffffffffffffffffffffffffffffffffffffff168373ffffffffffffffffffffffffffffffffffffffff161415610696576040517f08c379a000000000000000000000000000000000000000000000000000000000815260040161068d90612d63565b60405180910390fd5b8073ffffffffffffffffffffffffffffffffffffffff163373ffffffffffffffffffffffffffffffffffffffff1614806106d657506106d5813361104d565b5b610715576040517f08c379a000000000000000000000000000000000000000000000000000000000815260040161070c90612d43565b60405180910390fd5b826003600084815260200190815260200160002060006101000a81548173ffffffffffffffffffffffffffffffffffffffff021916908373ffffffffffffffffffffffffffffffffffffffff160217905550818373ffffffffffffffffffffffffffffffffffffffff163373ffffffffffffffffffffffffffffffffffffffff167f8c5be1e5ebec7d5bd14f71427d1e84f3dd0314c0f7b2291e5b200ac8c7c3b92560405160405180910390a4505050565b6000600880549050905090565b6107dd8161125b565b6107e657600080fd5b6107f033826112cd565b61082f576040517f08c379a000000000000000000000000000000000000000000000000000000000815260040161082690612d83565b60405180910390fd5b61083a838383611362565b505050565b6108bd8282600067ffffffffffffffff811115610885577f4e487b7100000000000000000000000000000000000000000000000000000000600052604160045260246000fd5b6040519080825280601f01601f1916602001820160405280156108b75781602001600182028036833780820191505090505b50610961565b5050565b60006108cc83610b6a565b82106108d757600080fd5b600660008473ffffffffffffffffffffffffffffffffffffffff1673ffffffffffffffffffffffffffffffffffffffff168152602001908152602001600020828154811061094e577f4e487b7100000000000000000000000000000000000000000000000000000000600052603260045260246000fd5b9060005260206000200154905092915050565b6000801b600d60008060001b815260200190815260200160002081905550505050565b60008060009054906101000a900473ffffffffffffffffffffffffffffffffffffffff1673ffffffffffffffffffffffffffffffffffffffff163373ffffffffffffffffffffffffffffffffffffffff1614610a15576040517f08c379a0000000000000000000000000000000000000000000000000000000008152600401610a0c90612ca3565b60405180910390fd5b60001515600060149054906101000a900460ff16151514610a6b576040517f08c379a0000000000000000000000000000000000000000000000000000000008152600401610a6290612de3565b60405180910390fd5b610a758383611606565b610a7e82611627565b6001905092915050565b610a918161125b565b610a9a57600080fd5b610ab583838360405180602001604052806000815250610e96565b505050565b6000610ac46107c7565b8210610acf57600080fd5b60088281548110610b09577f4e487b7100000000000000000000000000000000000000000000000000000000600052603260045260246000fd5b90600052602060002001549050919050565b6000610b268261125b565b610b2f57600080fd5b6002600083815260200190815260200160002060009054906101000a900473ffffffffffffffffffffffffffffffffffffffff169050919050565b6000610bb3600460008473ffffffffffffffffffffffffffffffffffffffff1673ffffffffffffffffffffffffffffffffffffffff168152602001908152602001600020611705565b9050919050565b60008054906101000a900473ffffffffffffffffffffffffffffffffffffffff1673ffffffffffffffffffffffffffffffffffffffff163373ffffffffffffffffffffffffffffffffffffffff1614610c48576040517f08c379a0000000000000000000000000000000000000000000000000000000008152600401610c3f90612ca3565b60405180910390fd5b801515600060149054906101000a905050507f765b92da8b9fa48aefa40c871e948fe27f74aa6821a8cd0bd44340ea68571590600060149054906101000a900460ff1633604051610c9a929190612c58565b60405180910390a150565b60008060009054906101000a900473ffffffffffffffffffffffffffffffffffffffff16905090565b606060108054610cdd90613078565b80601f0160208091040260200160405190810160405280929190818152602001828054610d0990613078565b8015610d565780601f10610d2b57610100808354040283529160200191610d56565b820191906000526020600020905b815481529060010190602001808311610d3957829003601f168201915b5050505050905090565b3373ffffffffffffffffffffffffffffffffffffffff168273ffffffffffffffffffffffffffffffffffffffff161415610d9957600080fd5b80600560003373ffffffffffffffffffffffffffffffffffffffff1673ffffffffffffffffffffffffffffffffffffffff16815260200190815260200160002060008473ffffffffffffffffffffffffffffffffffffffff1673ffffffffffffffffffffffffffffffffffffffff16815260200190815260200160002060006101000a81548160ff0219169083151502179055508173ffffffffffffffffffffffffffffffffffffffff163373ffffffffffffffffffffffffffffffffffffffff167f17307eab39ab6107e8899845ad3d59bd9653f200f220920489ca2b5937696c3183604051610e8a9190612c3d565b60405180910390a35050565b610e9f8261125b565b610ea857600080fd5b610eb38484846107d4565b610ebf84848484611713565b610efe576040517f08c379a0000000000000000000000000000000000000000000000000000000008152600401610ef590612da3565b60405180910390fd5b50505050565b6060610f0f8261125b565b610f1857600080fd5b601260008381526020019081526020016000208054610f3690613078565b80601f0160208091040260200160405190810160405280929190818152602001828054610f6290613078565b8015610faf5780601f10610f8457610100808354040283529160200191610faf565b820191906000526020600020905b815481529060010190602001808311610f9257829003601f168201915b50505050509050919050565b606060118054610fca90613078565b80601f0160208091040260200160405190810160405280929190818152602001828054610ff690613078565b80156110435780601f1061101857610100808354040283529160200191611043565b820191906000526020600020905b81548152906001019060200180831161102657829003601f168201915b5050505050905090565b6000600560008473ffffffffffffffffffffffffffffffffffffffff1673ffffffffffffffffffffffffffffffffffffffff16815260200190815260200160002060008373ffffffffffffffffffffffffffffffffffffffff1673ffffffffffffffffffffffffffffffffffffffff16815260200190815260200160002060009054906101000a900460ff16905092915050565b60008054906101000a900473ffffffffffffffffffffffffffffffffffffffff1673ffffffffffffffffffffffffffffffffffffffff163373ffffffffffffffffffffffffffffffffffffffff161461116f576040517f08c379a000000000000000000000000000000000000000000000000000000000815260040161116690612ca3565b60405180910390fd5b600073ffffffffffffffffffffffffffffffffffffffff168173ffffffffffffffffffffffffffffffffffffffff1614156111df576040517f08c379a00000000000000000000000000000000000000000000000000000000081526004016111d690612dc3565b60405180910390fd5b806000806101000a81548173ffffffffffffffffffffffffffffffffffffffff021916908373ffffffffffffffffffffffffffffffffffffffff1602179055507f0d18b5fd22306e373229b9439188228edca81207d1667f604daf6cef8aa3ee673382604051611250929190612bc8565b60405180910390a150565b6000806002600084815260200190815260200160002060009054906101000a900473ffffffffffffffffffffffffffffffffffffffff169050600073ffffffffffffffffffffffffffffffffffffffff168173ffffffffffffffffffffffffffffffffffffffff161415915050919050565b6000806112d983610b1b565b90508073ffffffffffffffffffffffffffffffffffffffff168473ffffffffffffffffffffffffffffffffffffffff16148061134857508373ffffffffffffffffffffffffffffffffffffffff166113308461058e565b73ffffffffffffffffffffffffffffffffffffffff16145b806113595750611358818561104d565b5b91505092915050565b8273ffffffffffffffffffffffffffffffffffffffff166002600083815260200190815260200160002060009054906101000a900473ffffffffffffffffffffffffffffffffffffffff1673ffffffffffffffffffffffffffffffffffffffff1614611403576040517f08c379a00000000000000000000000000000000000000000000000000000000081526004016113fa90612e03565b60405180910390fd5b600073ffffffffffffffffffffffffffffffffffffffff168273ffffffffffffffffffffffffffffffffffffffff161415611473576040517f08c379a000000000000000000000000000000000000000000000000000000000815260040161146a90612cc3565b60405180910390fd5b60006003600083815260200190815260200160002060006101000a81548173ffffffffffffffffffffffffffffffffffffffff021916908373ffffffffffffffffffffffffffffffffffffffff16021790555061150d600460008573ffffffffffffffffffffffffffffffffffffffff1673ffffffffffffffffffffffffffffffffffffffff16815260200190815260200160002061182a565b611554600460008473ffffffffffffffffffffffffffffffffffffffff1673ffffffffffffffffffffffffffffffffffffffff168152602001908152602001600020611886565b816002600083815260200190815260200160002060006101000a81548173ffffffffffffffffffffffffffffffffffffffff021916908373ffffffffffffffffffffffffffffffffffffffff160217905550808273ffffffffffffffffffffffffffffffffffffffff168473ffffffffffffffffffffffffffffffffffffffff167fddf252ad1be2c89b69c2b068fc378daa952ba7f163c4a11628f55a4df523b3ef60405160405180910390a4505050565b611610828261189c565b61161a8282611aa6565b61162381611b6a565b5050565b6116308161125b565b61163957600080fd5b60006116d76011805461164b90613078565b80601f016020809104026020016040519081016040528092919081815260200182805461167790613078565b80156116c45780601f10611699576101008083540402835291602001916116c4565b820191906000526020600020905b8154815290600101906020018083116116a757829003601f168201915b50505050506116d284611bb3565b611d65565b9050806012600084815260200190815260200160002090805190602001906117009291906122d9565b505050565b600081600001549050919050565b60006117348473ffffffffffffffffffffffffffffffffffffffff16611da9565b6117415760019050611822565b60008473ffffffffffffffffffffffffffffffffffffffff1663150b7a02338887876040518563ffffffff1660e01b81526004016117829493929190612bf1565b602060405180830381600087803b15801561179c57600080fd5b505af11580156117b0573d6000803e3d6000fd5b505050506040513d601f19601f820116820180604052508101906117d49190612796565b905063150b7a0260e01b7bffffffffffffffffffffffffffffffffffffffffffffffffffffffff1916817bffffffffffffffffffffffffffffffffffffffffffffffffffffffff1916149150505b949350505050565b60008160000154905060008111611876576040517f08c379a000000000000000000000000000000000000000000000000000000000815260040161186d90612ce3565b60405180910390fd5b6001810382600001819055505050565b6001816000016000828254019250508190555050565b600073ffffffffffffffffffffffffffffffffffffffff166002600083815260200190815260200160002060009054906101000a900473ffffffffffffffffffffffffffffffffffffffff1673ffffffffffffffffffffffffffffffffffffffff161461193e576040517f08c379a000000000000000000000000000000000000000000000000000000000815260040161193590612d23565b60405180910390fd5b600073ffffffffffffffffffffffffffffffffffffffff168273ffffffffffffffffffffffffffffffffffffffff1614156119ae576040517f08c379a00000000000000000000000000000000000000000000000000000000081526004016119a590612d03565b60405180910390fd5b816002600083815260200190815260200160002060006101000a81548173ffffffffffffffffffffffffffffffffffffffff021916908373ffffffffffffffffffffffffffffffffffffffff160217905550611a47600460008473ffffffffffffffffffffffffffffffffffffffff1673ffffffffffffffffffffffffffffffffffffffff168152602001908152602001600020611886565b808273ffffffffffffffffffffffffffffffffffffffff163373ffffffffffffffffffffffffffffffffffffffff167fddf252ad1be2c89b69c2b068fc378daa952ba7f163c4a11628f55a4df523b3ef60405160405180910390a45050565b600660008373ffffffffffffffffffffffffffffffffffffffff1673ffffffffffffffffffffffffffffffffffffffff168152602001908152602001600020805490506007600083815260200190815260200160002081905550600660008373ffffffffffffffffffffffffffffffffffffffff1673ffffffffffffffffffffffffffffffffffffffff1681526020019081526020016000208190806001815401808255809150506001900390600052602060002001600090919091909150555050565b6008805490506009600083815260200190815260200160002081905550600881908060018154018082558091505060019003906000526020600020016000909190919091505550565b60606000821415611bfb576040518060400160405280600181526020017f30000000000000000000000000000000000000000000000000000000000000008152509050611d60565b600082905060005b60008214611c2d578080611c16906130aa565b915050600a82611c269190612f5d565b9150611c03565b60008167ffffffffffffffff811115611c6f577f4e487b7100000000000000000000000000000000000000000000000000000000600052604160045260246000fd5b6040519080825280601f01601f191660200182016040528015611ca15781602001600182028036833780820191505090505b50905060008290505b60008614611d58578080611cbd9061304e565b915050600a86611ccd91906130f3565b6030611cd99190612f07565b60f81b828281518110611d15577f4e487b7100000000000000000000000000000000000000000000000000000000600052603260045260246000fd5b60200101907effffffffffffffffffffffffffffffffffffffffffffffffffffffffffffff1916908160001a905350600a86611d519190612f5d565b9550611caa565b819450505050505b919050565b6060611da18383604051806020016040528060008152506040518060200160405280600081525060405180602001604052806000815250611dbc565b905092915050565b600080823b905060008111915050919050565b606060008690506000869050600086905060008690506000869050600081518351855187518951611ded9190612f07565b611df79190612f07565b611e019190612f07565b611e0b9190612f07565b67ffffffffffffffff811115611e4a577f4e487b7100000000000000000000000000000000000000000000000000000000600052604160045260246000fd5b6040519080825280601f01601f191660200182016040528015611e7c5781602001600182028036833780820191505090505b5090506000819050600080600090505b8851811015611f6057888181518110611ece577f4e487b7100000000000000000000000000000000000000000000000000000000600052603260045260246000fd5b602001015160f81c60f81b838380611ee5906130aa565b945081518110611f1e577f4e487b7100000000000000000000000000000000000000000000000000000000600052603260045260246000fd5b60200101907effffffffffffffffffffffffffffffffffffffffffffffffffffffffffffff1916908160001a9053508080611f58906130aa565b915050611e8c565b600090505b875181101561203957878181518110611fa7577f4e487b7100000000000000000000000000000000000000000000000000000000600052603260045260246000fd5b602001015160f81c60f81b838380611fbe906130aa565b945081518110611ff7577f4e487b7100000000000000000000000000000000000000000000000000000000600052603260045260246000fd5b60200101907effffffffffffffffffffffffffffffffffffffffffffffffffffffffffffff1916908160001a9053508080612031906130aa565b915050611f65565b600090505b865181101561211257868181518110612080577f4e487b7100000000000000000000000000000000000000000000000000000000600052603260045260246000fd5b602001015160f81c60f81b838380612097906130aa565b9450815181106120d0577f4e487b7100000000000000000000000000000000000000000000000000000000600052603260045260246000fd5b60200101907effffffffffffffffffffffffffffffffffffffffffffffffffffffffffffff1916908160001a905350808061210a906130aa565b91505061203e565b600090505b85518110156121eb57858181518110612159577f4e487b7100000000000000000000000000000000000000000000000000000000600052603260045260246000fd5b602001015160f81c60f81b838380612170906130aa565b9450815181106121a9577f4e487b7100000000000000000000000000000000000000000000000000000000600052603260045260246000fd5b60200101907effffffffffffffffffffffffffffffffffffffffffffffffffffffffffffff1916908160001a90535080806121e3906130aa565b915050612117565b600090505b84518110156122c457848181518110612232577f4e487b7100000000000000000000000000000000000000000000000000000000600052603260045260246000fd5b602001015160f81c60f81b838380612249906130aa565b945081518110612282577f4e487b7100000000000000000000000000000000000000000000000000000000600052603260045260246000fd5b60200101907effffffffffffffffffffffffffffffffffffffffffffffffffffffffffffff1916908160001a90535080806122bc906130aa565b9150506121f0565b82995050505050505050505095945050505050565b8280546122e590613078565b90600052602060002090601f016020900481019282612307576000855561234e565b82601f1061232057805160ff191683800117855561234e565b8280016001018555821561234e579182015b8281111561234d578251825591602001919060010190612332565b5b50905061235b919061235f565b5090565b5b80821115612378576000816000905550600101612360565b5090565b600061238f61238a84612e6f565b612e3e565b9050828152602081018484840111156123a757600080fd5b6123b284828561300c565b509392505050565b60006123cd6123c884612e9f565b612e3e565b9050828152602081018484840111156123e557600080fd5b6123f084828561300c565b509392505050565b600081359050612407816131f1565b92915050565b60008135905061241c81613208565b92915050565b6000813590506124318161321f565b92915050565b60008135905061244681613236565b92915050565b60008151905061245b81613236565b92915050565b600082601f83011261247257600080fd5b813561248284826020860161237c565b91505092915050565b600082601f83011261249c57600080fd5b81356124ac8482602086016123ba565b91505092915050565b6000813590506124c48161324d565b92915050565b6000602082840312156124dc57600080fd5b60006124ea848285016123f8565b91505092915050565b6000806040838503121561250657600080fd5b6000612514858286016123f8565b9250506020612525858286016123f8565b9150509250929050565b60008060006060848603121561254457600080fd5b6000612552868287016123f8565b9350506020612563868287016123f8565b9250506040612574868287016124b5565b9150509250925092565b6000806000806080858703121561259457600080fd5b60006125a2878288016123f8565b94505060206125b3878288016123f8565b93505060406125c4878288016124b5565b925050606085013567ffffffffffffffff8111156125e157600080fd5b6125ed87828801612461565b91505092959194509250565b6000806040838503121561260c57600080fd5b600061261a858286016123f8565b925050602061262b8582860161240d565b9150509250929050565b6000806040838503121561264857600080fd5b6000612656858286016123f8565b9250506020612667858286016124b5565b9150509250929050565b60006020828403121561268357600080fd5b60006126918482850161240d565b91505092915050565b600080604083850312156126ad57600080fd5b60006126bb85828601612422565b925050602083013567ffffffffffffffff8111156126d857600080fd5b6126e48582860161248b565b9150509250929050565b60008060006060848603121561270357600080fd5b600061271186828701612422565b935050602084013567ffffffffffffffff81111561272e57600080fd5b61273a8682870161248b565b925050604084013567ffffffffffffffff81111561275757600080fd5b61276386828701612461565b9150509250925092565b60006020828403121561277f57600080fd5b600061278d84828501612437565b91505092915050565b6000602082840312156127a857600080fd5b60006127b68482850161244c565b91505092915050565b6000602082840312156127d157600080fd5b60006127df848285016124b5565b91505092915050565b6127f181612f8e565b82525050565b61280081612fa0565b82525050565b600061281182612ecf565b61281b8185612ee5565b935061282b81856020860161301b565b612834816131e0565b840191505092915050565b600061284a82612eda565b6128548185612ef6565b935061286481856020860161301b565b61286d816131e0565b840191505092915050565b6000612885602583612ef6565b91507f4f6e6c7920746865206f776e65722063616e2063616c6c20746869732066756e60008301527f6374696f6e0000000000000000000000000000000000000000000000000000006020830152604082019050919050565b60006128eb601e83612ef6565b91507f526563656976696e672061646472657373206973206e6f742076616c696400006000830152602082019050919050565b600061292b601b83612ef6565b91507f436f756e7465723a2064656372656d656e74206f766572666c6f7700000000006000830152602082019050919050565b600061296b600f83612ef6565b91507f4164647265737320696e76616c696400000000000000000000000000000000006000830152602082019050919050565b60006129ab601383612ef6565b91507f546f6b656e20616c7265616479206578697374000000000000000000000000006000830152602082019050919050565b60006129eb601f83612ef6565b91507f53656e646572206973206e6f74206f776e6572206f7220617070726f766564006000830152602082019050919050565b6000612a2b601f83612ef6565b91507f52656365697665722069732073616d6520617320746f6b656e206f776e6572006000830152602082019050919050565b6000612a6b600c83612ef6565b91507f4e6f7420617070726f76656400000000000000000000000000000000000000006000830152602082019050919050565b6000612aab600c83612ef6565b91507f4e6f7420726563656976656400000000000000000000000000000000000000006000830152602082019050919050565b6000612aeb601983612ef6565b91507f506173736564206164647265737320697320696e76616c6964000000000000006000830152602082019050919050565b6000612b2b601283612ef6565b91507f436f6e74726163742069732070617573656400000000000000000000000000006000830152602082019050919050565b6000612b6b601983612ef6565b91507f53656e646572206973206e6f7420746f6b656e206f776e6572000000000000006000830152602082019050919050565b612ba781613002565b82525050565b6000602082019050612bc260008301846127e8565b92915050565b6000604082019050612bdd60008301856127e8565b612bea60208301846127e8565b9392505050565b6000608082019050612c0660008301876127e8565b612c1360208301866127e8565b612c206040830185612b9e565b8181036060830152612c328184612806565b905095945050505050565b6000602082019050612c5260008301846127f7565b92915050565b6000604082019050612c6d60008301856127f7565b612c7a60208301846127e8565b9392505050565b60006020820190508181036000830152612c9b818461283f565b905092915050565b60006020820190508181036000830152612cbc81612878565b9050919050565b60006020820190508181036000830152612cdc816128de565b9050919050565b60006020820190508181036000830152612cfc8161291e565b9050919050565b60006020820190508181036000830152612d1c8161295e565b9050919050565b60006020820190508181036000830152612d3c8161299e565b9050919050565b60006020820190508181036000830152612d5c816129de565b9050919050565b60006020820190508181036000830152612d7c81612a1e565b9050919050565b60006020820190508181036000830152612d9c81612a5e565b9050919050565b60006020820190508181036000830152612dbc81612a9e565b9050919050565b60006020820190508181036000830152612ddc81612ade565b9050919050565b60006020820190508181036000830152612dfc81612b1e565b9050919050565b60006020820190508181036000830152612e1c81612b5e565b9050919050565b6000602082019050612e386000830184612b9e565b92915050565b6000604051905081810181811067ffffffffffffffff82111715612e6557612e646131b1565b5b8060405250919050565b600067ffffffffffffffff821115612e8a57612e896131b1565b5b601f19601f8301169050602081019050919050565b600067ffffffffffffffff821115612eba57612eb96131b1565b5b601f19601f8301169050602081019050919050565b600081519050919050565b600081519050919050565b600082825260208201905092915050565b600082825260208201905092915050565b6000612f1282613002565b9150612f1d83613002565b9250827fffffffffffffffffffffffffffffffffffffffffffffffffffffffffffffffff03821115612f5257612f51613124565b5b828201905092915050565b6000612f6882613002565b9150612f7383613002565b925082612f8357612f82613153565b5b828204905092915050565b6000612f9982612fe2565b9050919050565b60008115159050919050565b6000819050919050565b60007fffffffff0000000000000000000000000000000000000000000000000000000082169050919050565b600073ffffffffffffffffffffffffffffffffffffffff82169050919050565b6000819050919050565b82818337600083830152505050565b60005b8381101561303957808201518184015260208101905061301e565b83811115613048576000848401525b50505050565b600061305982613002565b9150600082141561306d5761306c613124565b5b600182039050919050565b6000600282049050600182168061309057607f821691505b602082108114156130a4576130a3613182565b5b50919050565b60006130b582613002565b91507fffffffffffffffffffffffffffffffffffffffffffffffffffffffffffffffff8214156130e8576130e7613124565b5b600182019050919050565b60006130fe82613002565b915061310983613002565b92508261311957613118613153565b5b828206905092915050565b7f4e487b7100000000000000000000000000000000000000000000000000000000600052601160045260246000fd5b7f4e487b7100000000000000000000000000000000000000000000000000000000600052601260045260246000fd5b7f4e487b7100000000000000000000000000000000000000000000000000000000600052602260045260246000fd5b7f4e487b7100000000000000000000000000000000000000000000000000000000600052604160045260246000fd5b6000601f19601f8301169050919050565b6131fa81612f8e565b811461320557600080fd5b50565b61321181612fa0565b811461321c57600080fd5b50565b61322881612fac565b811461323357600080fd5b50565b61323f81612fb6565b811461324a57600080fd5b50565b61325681613002565b811461326157600080fd5b5056fea2646970667358221220ad459b2e6c96b2550cb13c0729a580b55f5f5288ffb971a90834a8a140afd99c64736f6c63430008000033",
  "immutableReferences": {},
  "source": "// SPDX-License-Identifier: MIT\r\n\r\npragma solidity ^0.8.0;\r\n\r\nimport 'openzeppelin-solidity/contracts/utils/Address.sol';\r\nimport 'openzeppelin-solidity/contracts/utils/Counters.sol';\r\nimport 'openzeppelin-solidity/contracts/utils/math/SafeMath.sol';\r\nimport 'openzeppelin-solidity/contracts/token/ERC721/IERC721Receiver.sol';\r\nimport \"./Oraclize.sol\";\r\n\r\ncontract Ownable {\r\n    address private _owner;\r\n    \r\n    event OwnershipTransfered(address prevOwner, address newOwner);\r\n\r\n    constructor() {\r\n        _owner = msg.sender;\r\n        emit OwnershipTransfered(msg.sender, msg.sender);\r\n    }\r\n\r\n    /**\r\n     * @dev get current owner of contract\r\n     */\r\n    function getOwner() public view returns (address) {\r\n        return _owner;\r\n    }\r\n\r\n    /**\r\n     * @dev modifier to restrict function access to only contract owner\r\n     */\r\n    modifier onlyOwner() {\r\n        require(msg.sender == _owner, \"Only the owner can call this function\");\r\n        _;\r\n    }\r\n\r\n    /**\r\n     * @dev transfer contract ownership and emit respective event\r\n     * @param newOwner address of owner contract is transfered to\r\n     * only callable by current owner\r\n     */\r\n    function transferOwnership(address newOwner) public onlyOwner {\r\n        require(newOwner != address(0), \"Passed address is invalid\");\r\n\r\n        _owner = newOwner;\r\n        emit OwnershipTransfered(msg.sender, newOwner);\r\n    }\r\n}\r\n\r\ncontract Pausable is Ownable {    \r\n    /**\r\n     * @dev status of contract\r\n     */\r\n    bool private _paused;\r\n\r\n    event PausableStatus(bool _status, address _triggerAddress);\r\n\r\n    constructor() Ownable() {\r\n        _paused = false;\r\n    }\r\n\r\n    /**\r\n     * @dev owner can pause contract\r\n     */\r\n    function setPausable(bool _newStatus) public onlyOwner {\r\n        _paused == _newStatus;\r\n        \r\n        emit PausableStatus(_paused, msg.sender);\r\n    }\r\n\r\n    /**\r\n     * @dev modifier to allow function to run when contract is paused\r\n     */\r\n    modifier onlyPaused()  {\r\n        require(_paused == true, \"Contract is not paused\");\r\n        _;\r\n    }\r\n\r\n    /**\r\n     * @dev modifier to allow function to run when contract is running (!paused)\r\n     */\r\n    modifier onlyNotPaused() {\r\n        require(_paused == false, \"Contract is paused\");\r\n        _;\r\n    }\r\n}\r\n\r\ncontract ERC165 {\r\n    bytes4 private constant _INTERFACE_ID_ERC165 = 0x01ffc9a7;\r\n\r\n    /**\r\n     * @dev a mapping of interface id to whether or not it's supported\r\n     */\r\n    mapping(bytes4 => bool) private _supportedInterfaces;\r\n\r\n    /**\r\n     * @dev A contract implementing SupportsInterfaceWithLookup\r\n     * implement ERC165 itself\r\n     */\r\n    constructor () {\r\n        _registerInterface(_INTERFACE_ID_ERC165);\r\n    }\r\n\r\n    /**\r\n     * @dev implement supportsInterface(bytes4) using a lookup table\r\n     */\r\n    function supportsInterface(bytes4 interfaceId) external view returns (bool) {\r\n        return _supportedInterfaces[interfaceId];\r\n    }\r\n\r\n    /**\r\n     * @dev internal method for registering an interface\r\n     */\r\n    function _registerInterface(bytes4 interfaceId) internal {\r\n        require(interfaceId != 0xffffffff);\r\n        _supportedInterfaces[interfaceId] = true;\r\n    }\r\n}\r\n\r\ncontract ERC721 is Pausable, ERC165 {\r\n\r\n    event Transfer(address indexed from, address indexed to, uint256 indexed tokenId);\r\n\r\n    event Approval(address indexed owner, address indexed approved, uint256 indexed tokenId);\r\n\r\n    event ApprovalForAll(address indexed owner, address indexed operator, bool approved);\r\n    \r\n    using SafeMath for uint256;\r\n    using Address for address;\r\n    using Counters for Counters.Counter;\r\n\r\n    // Equals to `bytes4(keccak256(\"onERC721Received(address,address,uint256,bytes)\"))`\r\n    // which can be also obtained as `IERC721Receiver(0).onERC721Received.selector`\r\n    bytes4 private constant _ERC721_RECEIVED = 0x150b7a02;\r\n\r\n    // Mapping from token ID to owner\r\n    mapping (uint256 => address) private _tokenOwner;\r\n\r\n    // Mapping from token ID to approved address\r\n    mapping (uint256 => address) private _tokenApprovals;\r\n\r\n    // Mapping from owner to number of owned token\r\n    // IMPORTANT: this mapping uses Counters lib which is used to protect overflow when incrementing/decrementing a uint\r\n    // use the following functions when interacting with Counters: increment(), decrement(), and current() to get the value\r\n    // see: https://github.com/OpenZeppelin/openzeppelin-solidity/blob/master/contracts/drafts/Counters.sol\r\n    mapping (address => Counters.Counter) private _ownedTokensCount;\r\n\r\n    // Mapping from owner to operator approvals\r\n    mapping (address => mapping (address => bool)) private _operatorApprovals;\r\n\r\n    bytes4 private constant _INTERFACE_ID_ERC721 = 0x80ac58cd;\r\n\r\n    constructor () {\r\n        // register the supported interfaces to conform to ERC721 via ERC165\r\n        _registerInterface(_INTERFACE_ID_ERC721);\r\n    }\r\n\r\n    /**\r\n     * @dev get amount of owned tokens for account\r\n     * @param owner account balance to be checked for\r\n     */\r\n    function balanceOf(address owner) public view returns (uint256) {\r\n        return _ownedTokensCount[owner].current();\r\n    }\r\n\r\n    /**\r\n     * @dev retrieve owner of a token if it exists\r\n     * @param tokenId token ID owner to be retrieved for \r\n     */\r\n    function ownerOf(uint256 tokenId) public view returns (address) {\r\n        require(_exists(tokenId));\r\n        return _tokenOwner[tokenId];\r\n    }\r\n\r\n    /**\r\n     * @dev Approves another address to transfer the given token ID\r\n     * @param to address to be approved for transferral\r\n     * @param tokenId token ID the address gets transferral approved for\r\n     */\r\n    function approve(address to, uint256 tokenId) public {\r\n        require(_exists(tokenId));\r\n\r\n        address currOwner = _tokenOwner[tokenId];\r\n\r\n        require(to != currOwner, \"Receiver is same as token owner\");\r\n        require(msg.sender == currOwner || isApprovedForAll(currOwner, msg.sender), \"Sender is not owner or approved\");\r\n\r\n        _tokenApprovals[tokenId] = to;\r\n\r\n        emit Approval(msg.sender, to, tokenId);\r\n    }\r\n\r\n    /**\r\n     * @dev Approves another address to transfer the given token ID\r\n     * @param tokenId token ID for which approved addresses are returned\r\n     * @return address which has approval\r\n     */\r\n    function getApproved(uint256 tokenId) public view returns (address) {\r\n        require(_exists(tokenId));\r\n        return _tokenApprovals[tokenId];\r\n    }\r\n\r\n    /**\r\n     * @dev Sets or unsets the approval of a given operator\r\n     * An operator is allowed to transfer all tokens of the sender on their behalf\r\n     * @param to operator address to set the approval\r\n     * @param approved representing the status of the approval to be set\r\n     */\r\n    function setApprovalForAll(address to, bool approved) public {\r\n        require(to != msg.sender);\r\n        _operatorApprovals[msg.sender][to] = approved;\r\n        emit ApprovalForAll(msg.sender, to, approved);\r\n    }\r\n\r\n    /**\r\n     * @dev Tells whether an operator is approved by a given owner\r\n     * @param owner owner address which you want to query the approval of\r\n     * @param operator operator address which you want to query the approval of\r\n     * @return bool whether the given operator is approved by the given owner\r\n     */\r\n    function isApprovedForAll(address owner, address operator) public view returns (bool) {\r\n        return _operatorApprovals[owner][operator];\r\n    }\r\n\r\n    /**\r\n     * @dev transfer token from one address to another\r\n     * @param from address from wich the token will be transferred from\r\n     * @param to address to which token will be address\r\n     * @param tokenId token ID to be transferred\r\n     */\r\n    function transferFrom(address from, address to, uint256 tokenId) public {\r\n        require(_exists(tokenId));\r\n        require(_isApprovedOrOwner(msg.sender, tokenId), \"Not approved\");\r\n\r\n        _transferFrom(from, to, tokenId);\r\n    }\r\n\r\n    /**\r\n     * @dev safe transfer token from one address to another\r\n     * @param from address from wich the token will be transferred from\r\n     * @param to address to which token will be address\r\n     * @param tokenId token ID to be transferred\r\n     */\r\n    function safeTransferFrom(address from, address to, uint256 tokenId) public {\r\n        require(_exists(tokenId));\r\n        safeTransferFrom(from, to, tokenId, \"\");\r\n    }\r\n\r\n    /**\r\n     * @dev safe transfer token from one address to another\r\n     * @param from address from wich the token will be transferred from\r\n     * @param to address to which token will be address\r\n     * @param tokenId token ID to be transferred\r\n     */\r\n    function safeTransferFrom(address from, address to, uint256 tokenId, bytes memory _data) public {\r\n        require(_exists(tokenId));\r\n        transferFrom(from, to, tokenId);\r\n        require(_checkOnERC721Received(from, to, tokenId, _data), \"Not received\");\r\n    }\r\n\r\n    /**\r\n     * @dev Returns whether the specified token exists\r\n     * @param tokenId uint256 ID of the token to query the existence of\r\n     * @return bool whether the token exists\r\n     */\r\n    function _exists(uint256 tokenId) internal view returns (bool) {\r\n        address owner = _tokenOwner[tokenId];\r\n        return owner != address(0);\r\n    }\r\n\r\n    /**\r\n     * @dev Returns whether the given spender can transfer a given token ID\r\n     * @param spender address of the spender to query\r\n     * @param tokenId uint256 ID of the token to be transferred\r\n     * @return bool whether the msg.sender is approved for the given token ID,\r\n     * is an operator of the owner, or is the owner of the token\r\n     */\r\n    function _isApprovedOrOwner(address spender, uint256 tokenId) internal view returns (bool) {\r\n        address owner = ownerOf(tokenId);\r\n        return (spender == owner || getApproved(tokenId) == spender || isApprovedForAll(owner, spender));\r\n    }\r\n\r\n    /**\r\n     * @dev mint a new token and set owner\r\n     * @param to address to which token will be addressed\r\n     * @param tokenId token ID to be minted\r\n     */\r\n     function _mint(address to, uint256 tokenId) internal {\r\n\r\n        require(_tokenOwner[tokenId] == address(0), \"Token already exist\");\r\n        require(to != address(0), \"Address invalid\");\r\n        \r\n        _tokenOwner[tokenId] = to;\r\n        _ownedTokensCount[to].increment();\r\n\r\n        emit Transfer(msg.sender, to, tokenId);\r\n\r\n    }\r\n\r\n    /**\r\n     * @dev Internal function to transfer ownership of a given token ID to another address\r\n     */\r\n    function _transferFrom(address from, address to, uint256 tokenId) internal {\r\n\r\n        require(_tokenOwner[tokenId] == from, \"Sender is not token owner\");\r\n        require(to != address(0), \"Receiving address is not valid\");\r\n\r\n        _tokenApprovals[tokenId] = address(0);\r\n\r\n        _ownedTokensCount[from].decrement();\r\n        _ownedTokensCount[to].increment();\r\n        _tokenOwner[tokenId] = to;\r\n\r\n        emit Transfer(from, to, tokenId);\r\n    }\r\n\r\n    /**\r\n     * @dev Internal function to invoke `onERC721Received` on a target address\r\n     * The call is not executed if the target address is not a contract\r\n     * @param from address representing the previous owner of the given token ID\r\n     * @param to target address that will receive the tokens\r\n     * @param tokenId uint256 ID of the token to be transferred\r\n     * @param _data bytes optional data to send along with the call\r\n     * @return bool whether the call correctly returned the expected magic value\r\n     */\r\n    function _checkOnERC721Received(address from, address to, uint256 tokenId, bytes memory _data)\r\n        internal returns (bool)\r\n    {\r\n        if (!to.isContract()) {\r\n            return true;\r\n        }\r\n\r\n        bytes4 retval = IERC721Receiver(to).onERC721Received(msg.sender, from, tokenId, _data);\r\n        return (retval == _ERC721_RECEIVED);\r\n    }\r\n\r\n    /**\r\n     * @dev Private function to clear current approval of a given token ID\r\n     */\r\n    function _clearApproval(uint256 tokenId) private {\r\n        if (_tokenApprovals[tokenId] != address(0)) {\r\n            _tokenApprovals[tokenId] = address(0);\r\n        }\r\n    }\r\n}\r\n\r\ncontract ERC721Enumerable is ERC165, ERC721 {\r\n    // Mapping from owner to list of owned token IDs\r\n    mapping(address => uint256[]) private _ownedTokens;\r\n\r\n    // Mapping from token ID to index of the owner tokens list\r\n    mapping(uint256 => uint256) private _ownedTokensIndex;\r\n\r\n    // Array with all token ids, used for enumeration\r\n    uint256[] private _allTokens;\r\n\r\n    // Mapping from token id to position in the allTokens array\r\n    mapping(uint256 => uint256) private _allTokensIndex;\r\n\r\n    bytes4 private constant _INTERFACE_ID_ERC721_ENUMERABLE = 0x780e9d63;\r\n    /**\r\n     * @dev Constructor function\r\n     */\r\n    constructor () {\r\n        // register the supported interface to conform to ERC721Enumerable via ERC165\r\n        _registerInterface(_INTERFACE_ID_ERC721_ENUMERABLE);\r\n    }\r\n\r\n    /**\r\n     * @dev Gets the token ID at a given index of the tokens list of the requested owner\r\n     * @param owner address owning the tokens list to be accessed\r\n     * @param index uint256 representing the index to be accessed of the requested tokens list\r\n     * @return uint256 token ID at the given index of the tokens list owned by the requested address\r\n     */\r\n    function tokenOfOwnerByIndex(address owner, uint256 index) public view returns (uint256) {\r\n        require(index < balanceOf(owner));\r\n        return _ownedTokens[owner][index];\r\n    }\r\n\r\n    /**\r\n     * @dev Gets the total amount of tokens stored by the contract\r\n     * @return uint256 representing the total amount of tokens\r\n     */\r\n    function totalSupply() public view returns (uint256) {\r\n        return _allTokens.length;\r\n    }\r\n\r\n    /**\r\n     * @dev Gets the token ID at a given index of all the tokens in this contract\r\n     * Reverts if the index is greater or equal to the total number of tokens\r\n     * @param index uint256 representing the index to be accessed of the tokens list\r\n     * @return uint256 token ID at the given index of the tokens list\r\n     */\r\n    function tokenByIndex(uint256 index) public view returns (uint256) {\r\n        require(index < totalSupply());\r\n        return _allTokens[index];\r\n    }\r\n\r\n    /**\r\n     * @dev Internal function to transfer ownership of a given token ID to another address.\r\n     * As opposed to transferFrom, this imposes no restrictions on msg.sender.\r\n     * @param from current owner of the token\r\n     * @param to address to receive the ownership of the given token ID\r\n     * @param tokenId uint256 ID of the token to be transferred\r\n     */\r\n    function _transferFromEnumeration(address from, address to, uint256 tokenId) internal {\r\n        super._transferFrom(from, to, tokenId);\r\n\r\n        _removeTokenFromOwnerEnumeration(from, tokenId);\r\n\r\n        _addTokenToOwnerEnumeration(to, tokenId);\r\n    }\r\n\r\n    /**\r\n     * @dev Internal function to mint a new token\r\n     * Reverts if the given token ID already exists\r\n     * @param to address the beneficiary that will own the minted token\r\n     * @param tokenId uint256 ID of the token to be minted\r\n     */\r\n    function _mintEnumerable(address to, uint256 tokenId) internal {\r\n        super._mint(to, tokenId);\r\n\r\n        _addTokenToOwnerEnumeration(to, tokenId);\r\n\r\n        _addTokenToAllTokensEnumeration(tokenId);\r\n    }\r\n\r\n    /**\r\n     * @dev Gets the list of token IDs of the requested owner\r\n     * @param owner address owning the tokens\r\n     * @return uint256[] List of token IDs owned by the requested address\r\n     */\r\n    function _tokensOfOwner(address owner) internal view returns (uint256[] storage) {\r\n        return _ownedTokens[owner];\r\n    }\r\n\r\n    /**\r\n     * @dev Private function to add a token to this extension's ownership-tracking data structures.\r\n     * @param to address representing the new owner of the given token ID\r\n     * @param tokenId uint256 ID of the token to be added to the tokens list of the given address\r\n     */\r\n    function _addTokenToOwnerEnumeration(address to, uint256 tokenId) private {\r\n        _ownedTokensIndex[tokenId] = _ownedTokens[to].length;\r\n        _ownedTokens[to].push(tokenId);\r\n    }\r\n\r\n    /**\r\n     * @dev Private function to add a token to this extension's token tracking data structures.\r\n     * @param tokenId uint256 ID of the token to be added to the tokens list\r\n     */\r\n    function _addTokenToAllTokensEnumeration(uint256 tokenId) private {\r\n        _allTokensIndex[tokenId] = _allTokens.length;\r\n        _allTokens.push(tokenId);\r\n    }\r\n\r\n    /**\r\n     * @dev Private function to remove a token from this extension's ownership-tracking data structures. Note that\r\n     * while the token is not assigned a new owner, the _ownedTokensIndex mapping is _not_ updated: this allows for\r\n     * gas optimizations e.g. when performing a transfer operation (avoiding double writes).\r\n     * This has O(1) time complexity, but alters the order of the _ownedTokens array.\r\n     * @param from address representing the previous owner of the given token ID\r\n     * @param tokenId uint256 ID of the token to be removed from the tokens list of the given address\r\n     */\r\n    function _removeTokenFromOwnerEnumeration(address from, uint256 tokenId) private {\r\n        // To prevent a gap in from's tokens array, we store the last token in the index of the token to delete, and\r\n        // then delete the last slot (swap and pop).\r\n\r\n        uint256 lastTokenIndex = _ownedTokens[from].length - 1;\r\n        uint256 tokenIndex = _ownedTokensIndex[tokenId];\r\n\r\n        // When the token to delete is the last token, the swap operation is unnecessary\r\n        if (tokenIndex != lastTokenIndex) {\r\n            uint256 lastTokenId = _ownedTokens[from][lastTokenIndex];\r\n\r\n            _ownedTokens[from][tokenIndex] = lastTokenId; // Move the last token to the slot of the to-delete token\r\n            _ownedTokensIndex[lastTokenId] = tokenIndex; // Update the moved token's index\r\n        }\r\n\r\n        // This also deletes the contents at the last position of the array\r\n        _ownedTokens[from].pop();\r\n\r\n        // Note that _ownedTokensIndex[tokenId] hasn't been cleared: it still points to the old slot (now occupied by\r\n        // lastTokenId, or just over the end of the array if the token was the last one).\r\n    }\r\n\r\n    /**\r\n     * @dev Private function to remove a token from this extension's token tracking data structures.\r\n     * This has O(1) time complexity, but alters the order of the _allTokens array.\r\n     * @param tokenId uint256 ID of the token to be removed from the tokens list\r\n     */\r\n    function _removeTokenFromAllTokensEnumeration(uint256 tokenId) private {\r\n        // To prevent a gap in the tokens array, we store the last token in the index of the token to delete, and\r\n        // then delete the last slot (swap and pop).\r\n\r\n        uint256 lastTokenIndex = _allTokens.length - 1;\r\n        uint256 tokenIndex = _allTokensIndex[tokenId];\r\n\r\n        // When the token to delete is the last token, the swap operation is unnecessary. However, since this occurs so\r\n        // rarely (when the last minted token is burnt) that we still do the swap here to avoid the gas cost of adding\r\n        // an 'if' statement (like in _removeTokenFromOwnerEnumeration)\r\n        uint256 lastTokenId = _allTokens[lastTokenIndex];\r\n\r\n        _allTokens[tokenIndex] = lastTokenId; // Move the last token to the slot of the to-delete token\r\n        _allTokensIndex[lastTokenId] = tokenIndex; // Update the moved token's index\r\n\r\n        // This also deletes the contents at the last position of the array\r\n        _allTokens.pop();\r\n        _allTokensIndex[tokenId] = 0;\r\n    }\r\n}\r\n\r\ncontract ERC721Metadata is ERC721Enumerable, usingOraclize {\r\n    \r\n    string private _name;\r\n    string private _symbol;\r\n    string private _baseTokenURI;\r\n\r\n    mapping (uint256 => string) private _tokenURIs;\r\n\r\n    bytes4 private constant _INTERFACE_ID_ERC721_METADATA = 0x5b5e139f;\r\n\r\n    constructor (string memory newName, string memory newSymbol, string memory newBaseTokenURI) {\r\n        _name = newName;\r\n        _symbol = newSymbol;\r\n        _baseTokenURI = newBaseTokenURI;\r\n        _registerInterface(_INTERFACE_ID_ERC721_METADATA);\r\n    }\r\n\r\n    // getter functions   \r\n    function name() external view returns (string memory) {\r\n        return _name;\r\n    }\r\n\r\n    function symbol() external view returns (string memory) {\r\n        return _symbol;\r\n    }\r\n\r\n    function baseTokenURI() external view returns (string memory) {\r\n        return _baseTokenURI;\r\n    }\r\n\r\n    function tokenURI(uint256 _tokenId) external view returns (string memory) {\r\n        require(_exists(_tokenId));\r\n        return _tokenURIs[_tokenId];\r\n    }\r\n\r\n    // TODO: Create an internal function to set the tokenURI of a specified tokenId\r\n    // It should be the _baseTokenURI + the tokenId in string form\r\n    // TIP #1: use strConcat() from the imported oraclizeAPI lib to set the complete token URI\r\n    // TIP #2: you can also use uint2str() to convert a uint to a string\r\n        // see https://github.com/oraclize/ethereum-api/blob/master/oraclizeAPI_0.5.sol for strConcat()\r\n    // require the token exists before setting\r\n    function _setTokenURI(uint tokenId) internal {\r\n        require(_exists(tokenId));\r\n        string memory _tokenURI = usingOraclize.strConcat(_baseTokenURI, usingOraclize.uint2str(tokenId));\r\n        _tokenURIs[tokenId] = _tokenURI;\r\n    }\r\n\r\n}\r\n\r\n//  TODO's: Create CustomERC721Token contract that inherits from the ERC721Metadata contract. You can name this contract as you please\r\n//  1) Pass in appropriate values for the inherited ERC721Metadata contract\r\n//      - make the base token uri: https://s3-us-west-2.amazonaws.com/udacity-blockchain/capstone/\r\n//  2) create a public mint() that does the following:\r\n//      -can only be executed by the contract owner\r\n//      -takes in a 'to' address, tokenId, and tokenURI as parameters\r\n//      -returns a true boolean upon completion of the function\r\n//      -calls the superclass mint and setTokenURI functions\r\n\r\ncontract propertyERC721Token is ERC721Metadata {\r\n    constructor(\r\n        string memory name,\r\n        string memory symbol,\r\n        string memory baseURI\r\n    ) ERC721Metadata(name, symbol, baseURI) {}\r\n\r\n    /**\r\n     * @dev public function to mint new tokens\r\n     * @param tokenId uint256 ID of the token to be added to the tokens list\r\n     * @param to owner address of the new token\r\n     */\r\n    function mint(address to, uint256 tokenId) public onlyOwner onlyNotPaused returns (bool) {\r\n        super._mintEnumerable(to, tokenId);\r\n        super._setTokenURI(tokenId);\r\n        return true;\r\n    }\r\n}\r\n\r\n",
  "sourcePath": "C:/Users/Daniel/Documents/GitHub/Property-Title_Smart-Contract/eth-contracts/contracts/ERC721Mintable.sol",
  "compiler": {
    "name": "solc",
    "version": "0.8.0+commit.c7dfd78e.Emscripten.clang"
  },
  "schemaVersion": "3.4.1",
  "updatedAt": "2021-09-19T23:17:16.307Z",
  "devdoc": {
    "kind": "dev",
    "methods": {
      "__callback(bytes32,string)": {
        "details": "The following `__callback` functions are just placeholders ideally      meant to be defined in child contract when proofs are used.      The function bodies simply silence compiler warnings."
      },
      "approve(address,uint256)": {
        "details": "Approves another address to transfer the given token ID",
        "params": {
          "to": "address to be approved for transferral",
          "tokenId": "token ID the address gets transferral approved for"
        }
      },
      "balanceOf(address)": {
        "details": "get amount of owned tokens for account",
        "params": {
          "owner": "account balance to be checked for"
        }
      },
      "getApproved(uint256)": {
        "details": "Approves another address to transfer the given token ID",
        "params": {
          "tokenId": "token ID for which approved addresses are returned"
        },
        "returns": {
          "_0": "address which has approval"
        }
      },
      "getOwner()": {
        "details": "get current owner of contract"
      },
      "isApprovedForAll(address,address)": {
        "details": "Tells whether an operator is approved by a given owner",
        "params": {
          "operator": "operator address which you want to query the approval of",
          "owner": "owner address which you want to query the approval of"
        },
        "returns": {
          "_0": "bool whether the given operator is approved by the given owner"
        }
      },
      "mint(address,uint256)": {
        "details": "public function to mint new tokens",
        "params": {
          "to": "owner address of the new token",
          "tokenId": "uint256 ID of the token to be added to the tokens list"
        }
      },
      "ownerOf(uint256)": {
        "details": "retrieve owner of a token if it exists",
        "params": {
          "tokenId": "token ID owner to be retrieved for "
        }
      },
      "safeTransferFrom(address,address,uint256)": {
        "details": "safe transfer token from one address to another",
        "params": {
          "from": "address from wich the token will be transferred from",
          "to": "address to which token will be address",
          "tokenId": "token ID to be transferred"
        }
      },
      "safeTransferFrom(address,address,uint256,bytes)": {
        "details": "safe transfer token from one address to another",
        "params": {
          "from": "address from wich the token will be transferred from",
          "to": "address to which token will be address",
          "tokenId": "token ID to be transferred"
        }
      },
      "setApprovalForAll(address,bool)": {
        "details": "Sets or unsets the approval of a given operator An operator is allowed to transfer all tokens of the sender on their behalf",
        "params": {
          "approved": "representing the status of the approval to be set",
          "to": "operator address to set the approval"
        }
      },
      "setPausable(bool)": {
        "details": "owner can pause contract"
      },
      "supportsInterface(bytes4)": {
        "details": "implement supportsInterface(bytes4) using a lookup table"
      },
      "tokenByIndex(uint256)": {
        "details": "Gets the token ID at a given index of all the tokens in this contract Reverts if the index is greater or equal to the total number of tokens",
        "params": {
          "index": "uint256 representing the index to be accessed of the tokens list"
        },
        "returns": {
          "_0": "uint256 token ID at the given index of the tokens list"
        }
      },
      "tokenOfOwnerByIndex(address,uint256)": {
        "details": "Gets the token ID at a given index of the tokens list of the requested owner",
        "params": {
          "index": "uint256 representing the index to be accessed of the requested tokens list",
          "owner": "address owning the tokens list to be accessed"
        },
        "returns": {
          "_0": "uint256 token ID at the given index of the tokens list owned by the requested address"
        }
      },
      "totalSupply()": {
        "details": "Gets the total amount of tokens stored by the contract",
        "returns": {
          "_0": "uint256 representing the total amount of tokens"
        }
      },
      "transferFrom(address,address,uint256)": {
        "details": "transfer token from one address to another",
        "params": {
          "from": "address from wich the token will be transferred from",
          "to": "address to which token will be address",
          "tokenId": "token ID to be transferred"
        }
      },
      "transferOwnership(address)": {
        "details": "transfer contract ownership and emit respective event",
        "params": {
          "newOwner": "address of owner contract is transfered to only callable by current owner"
        }
      }
    },
    "version": 1
  },
  "userdoc": {
    "kind": "user",
    "methods": {},
    "version": 1
  }
}