{
  "contractName": "SolnSquareVerifier",
  "abi": [
    {
      "inputs": [
        {
          "internalType": "address payable",
          "name": "verifierAddress",
          "type": "address"
        }
      ],
      "stateMutability": "nonpayable",
      "type": "constructor"
    },
    {
      "anonymous": false,
      "inputs": [
        {
          "indexed": true,
          "internalType": "address",
          "name": "owner",
          "type": "address"
        },
        {
          "indexed": true,
          "internalType": "address",
          "name": "approved",
          "type": "address"
        },
        {
          "indexed": true,
          "internalType": "uint256",
          "name": "tokenId",
          "type": "uint256"
        }
      ],
      "name": "Approval",
      "type": "event"
    },
    {
      "anonymous": false,
      "inputs": [
        {
          "indexed": true,
          "internalType": "address",
          "name": "owner",
          "type": "address"
        },
        {
          "indexed": true,
          "internalType": "address",
          "name": "operator",
          "type": "address"
        },
        {
          "indexed": false,
          "internalType": "bool",
          "name": "approved",
          "type": "bool"
        }
      ],
      "name": "ApprovalForAll",
      "type": "event"
    },
    {
      "anonymous": false,
      "inputs": [
        {
          "indexed": false,
          "internalType": "address",
          "name": "prevOwner",
          "type": "address"
        },
        {
          "indexed": false,
          "internalType": "address",
          "name": "newOwner",
          "type": "address"
        }
      ],
      "name": "OwnershipTransfered",
      "type": "event"
    },
    {
      "anonymous": false,
      "inputs": [
        {
          "indexed": false,
          "internalType": "bool",
          "name": "_status",
          "type": "bool"
        },
        {
          "indexed": false,
          "internalType": "address",
          "name": "_triggerAddress",
          "type": "address"
        }
      ],
      "name": "PausableStatus",
      "type": "event"
    },
    {
      "anonymous": false,
      "inputs": [
        {
          "indexed": true,
          "internalType": "address",
          "name": "from",
          "type": "address"
        },
        {
          "indexed": true,
          "internalType": "address",
          "name": "to",
          "type": "address"
        },
        {
          "indexed": true,
          "internalType": "uint256",
          "name": "tokenId",
          "type": "uint256"
        }
      ],
      "name": "Transfer",
      "type": "event"
    },
    {
      "anonymous": false,
      "inputs": [
        {
          "indexed": false,
          "internalType": "uint256",
          "name": "tokenId",
          "type": "uint256"
        },
        {
          "indexed": false,
          "internalType": "address",
          "name": "to",
          "type": "address"
        }
      ],
      "name": "solutionAdded",
      "type": "event"
    },
    {
      "inputs": [
        {
          "internalType": "bytes32",
          "name": "_myid",
          "type": "bytes32"
        },
        {
          "internalType": "string",
          "name": "_result",
          "type": "string"
        }
      ],
      "name": "__callback",
      "outputs": [],
      "stateMutability": "nonpayable",
      "type": "function"
    },
    {
      "inputs": [
        {
          "internalType": "bytes32",
          "name": "_myid",
          "type": "bytes32"
        },
        {
          "internalType": "string",
          "name": "_result",
          "type": "string"
        },
        {
          "internalType": "bytes",
          "name": "_proof",
          "type": "bytes"
        }
      ],
      "name": "__callback",
      "outputs": [],
      "stateMutability": "nonpayable",
      "type": "function"
    },
    {
      "inputs": [
        {
          "internalType": "address",
          "name": "to",
          "type": "address"
        },
        {
          "internalType": "uint256",
          "name": "tokenId",
          "type": "uint256"
        }
      ],
      "name": "approve",
      "outputs": [],
      "stateMutability": "nonpayable",
      "type": "function"
    },
    {
      "inputs": [
        {
          "internalType": "address",
          "name": "owner",
          "type": "address"
        }
      ],
      "name": "balanceOf",
      "outputs": [
        {
          "internalType": "uint256",
          "name": "",
          "type": "uint256"
        }
      ],
      "stateMutability": "view",
      "type": "function",
      "constant": true
    },
    {
      "inputs": [],
      "name": "baseTokenURI",
      "outputs": [
        {
          "internalType": "string",
          "name": "",
          "type": "string"
        }
      ],
      "stateMutability": "view",
      "type": "function",
      "constant": true
    },
    {
      "inputs": [
        {
          "internalType": "uint256",
          "name": "tokenId",
          "type": "uint256"
        }
      ],
      "name": "getApproved",
      "outputs": [
        {
          "internalType": "address",
          "name": "",
          "type": "address"
        }
      ],
      "stateMutability": "view",
      "type": "function",
      "constant": true
    },
    {
      "inputs": [],
      "name": "getOwner",
      "outputs": [
        {
          "internalType": "address",
          "name": "",
          "type": "address"
        }
      ],
      "stateMutability": "view",
      "type": "function",
      "constant": true
    },
    {
      "inputs": [
        {
          "internalType": "address",
          "name": "owner",
          "type": "address"
        },
        {
          "internalType": "address",
          "name": "operator",
          "type": "address"
        }
      ],
      "name": "isApprovedForAll",
      "outputs": [
        {
          "internalType": "bool",
          "name": "",
          "type": "bool"
        }
      ],
      "stateMutability": "view",
      "type": "function",
      "constant": true
    },
    {
      "inputs": [
        {
          "internalType": "address",
          "name": "to",
          "type": "address"
        },
        {
          "internalType": "uint256",
          "name": "tokenId",
          "type": "uint256"
        }
      ],
      "name": "mint",
      "outputs": [
        {
          "internalType": "bool",
          "name": "",
          "type": "bool"
        }
      ],
      "stateMutability": "nonpayable",
      "type": "function"
    },
    {
      "inputs": [],
      "name": "name",
      "outputs": [
        {
          "internalType": "string",
          "name": "",
          "type": "string"
        }
      ],
      "stateMutability": "view",
      "type": "function",
      "constant": true
    },
    {
      "inputs": [
        {
          "internalType": "uint256",
          "name": "tokenId",
          "type": "uint256"
        }
      ],
      "name": "ownerOf",
      "outputs": [
        {
          "internalType": "address",
          "name": "",
          "type": "address"
        }
      ],
      "stateMutability": "view",
      "type": "function",
      "constant": true
    },
    {
      "inputs": [
        {
          "internalType": "address",
          "name": "from",
          "type": "address"
        },
        {
          "internalType": "address",
          "name": "to",
          "type": "address"
        },
        {
          "internalType": "uint256",
          "name": "tokenId",
          "type": "uint256"
        }
      ],
      "name": "safeTransferFrom",
      "outputs": [],
      "stateMutability": "nonpayable",
      "type": "function"
    },
    {
      "inputs": [
        {
          "internalType": "address",
          "name": "from",
          "type": "address"
        },
        {
          "internalType": "address",
          "name": "to",
          "type": "address"
        },
        {
          "internalType": "uint256",
          "name": "tokenId",
          "type": "uint256"
        },
        {
          "internalType": "bytes",
          "name": "_data",
          "type": "bytes"
        }
      ],
      "name": "safeTransferFrom",
      "outputs": [],
      "stateMutability": "nonpayable",
      "type": "function"
    },
    {
      "inputs": [
        {
          "internalType": "address",
          "name": "to",
          "type": "address"
        },
        {
          "internalType": "bool",
          "name": "approved",
          "type": "bool"
        }
      ],
      "name": "setApprovalForAll",
      "outputs": [],
      "stateMutability": "nonpayable",
      "type": "function"
    },
    {
      "inputs": [
        {
          "internalType": "bool",
          "name": "_newStatus",
          "type": "bool"
        }
      ],
      "name": "setPausable",
      "outputs": [],
      "stateMutability": "nonpayable",
      "type": "function"
    },
    {
      "inputs": [
        {
          "internalType": "bytes4",
          "name": "interfaceId",
          "type": "bytes4"
        }
      ],
      "name": "supportsInterface",
      "outputs": [
        {
          "internalType": "bool",
          "name": "",
          "type": "bool"
        }
      ],
      "stateMutability": "view",
      "type": "function",
      "constant": true
    },
    {
      "inputs": [],
      "name": "symbol",
      "outputs": [
        {
          "internalType": "string",
          "name": "",
          "type": "string"
        }
      ],
      "stateMutability": "view",
      "type": "function",
      "constant": true
    },
    {
      "inputs": [
        {
          "internalType": "uint256",
          "name": "index",
          "type": "uint256"
        }
      ],
      "name": "tokenByIndex",
      "outputs": [
        {
          "internalType": "uint256",
          "name": "",
          "type": "uint256"
        }
      ],
      "stateMutability": "view",
      "type": "function",
      "constant": true
    },
    {
      "inputs": [
        {
          "internalType": "address",
          "name": "owner",
          "type": "address"
        },
        {
          "internalType": "uint256",
          "name": "index",
          "type": "uint256"
        }
      ],
      "name": "tokenOfOwnerByIndex",
      "outputs": [
        {
          "internalType": "uint256",
          "name": "",
          "type": "uint256"
        }
      ],
      "stateMutability": "view",
      "type": "function",
      "constant": true
    },
    {
      "inputs": [
        {
          "internalType": "uint256",
          "name": "_tokenId",
          "type": "uint256"
        }
      ],
      "name": "tokenURI",
      "outputs": [
        {
          "internalType": "string",
          "name": "",
          "type": "string"
        }
      ],
      "stateMutability": "view",
      "type": "function",
      "constant": true
    },
    {
      "inputs": [],
      "name": "totalSupply",
      "outputs": [
        {
          "internalType": "uint256",
          "name": "",
          "type": "uint256"
        }
      ],
      "stateMutability": "view",
      "type": "function",
      "constant": true
    },
    {
      "inputs": [
        {
          "internalType": "address",
          "name": "from",
          "type": "address"
        },
        {
          "internalType": "address",
          "name": "to",
          "type": "address"
        },
        {
          "internalType": "uint256",
          "name": "tokenId",
          "type": "uint256"
        }
      ],
      "name": "transferFrom",
      "outputs": [],
      "stateMutability": "nonpayable",
      "type": "function"
    },
    {
      "inputs": [
        {
          "internalType": "address",
          "name": "newOwner",
          "type": "address"
        }
      ],
      "name": "transferOwnership",
      "outputs": [],
      "stateMutability": "nonpayable",
      "type": "function"
    },
    {
      "inputs": [
        {
          "internalType": "uint256[2]",
          "name": "a",
          "type": "uint256[2]"
        },
        {
          "internalType": "uint256[2][2]",
          "name": "b",
          "type": "uint256[2][2]"
        },
        {
          "internalType": "uint256[2]",
          "name": "c",
          "type": "uint256[2]"
        },
        {
          "internalType": "uint256[2]",
          "name": "input",
          "type": "uint256[2]"
        }
      ],
      "name": "verifyTx",
      "outputs": [
        {
          "internalType": "bool",
          "name": "r",
          "type": "bool"
        }
      ],
      "stateMutability": "view",
      "type": "function",
      "constant": true
    },
    {
      "inputs": [
        {
          "internalType": "address",
          "name": "_to",
          "type": "address"
        },
        {
          "internalType": "uint256",
          "name": "_tokenId",
          "type": "uint256"
        },
        {
          "internalType": "bytes32",
          "name": "_index",
          "type": "bytes32"
        }
      ],
      "name": "addSolution",
      "outputs": [],
      "stateMutability": "nonpayable",
      "type": "function"
    },
    {
      "inputs": [
        {
          "internalType": "address",
          "name": "_to",
          "type": "address"
        },
        {
          "internalType": "uint256",
          "name": "_tokenId",
          "type": "uint256"
        },
        {
          "internalType": "uint256[2]",
          "name": "_a",
          "type": "uint256[2]"
        },
        {
          "internalType": "uint256[2][2]",
          "name": "_b",
          "type": "uint256[2][2]"
        },
        {
          "internalType": "uint256[2]",
          "name": "_c",
          "type": "uint256[2]"
        },
        {
          "internalType": "uint256[2]",
          "name": "_input",
          "type": "uint256[2]"
        }
      ],
      "name": "mintToken",
      "outputs": [
        {
          "internalType": "bool",
          "name": "",
          "type": "bool"
        }
      ],
      "stateMutability": "nonpayable",
      "type": "function"
    }
  ],
  "bytecode": "0x60806040523480156200001157600080fd5b5060405162005d9d38038062005d9d8339818101604052810190620000379190620003b5565b6040518060400160405280601681526020017f50726f7065727479207a6b534e41524b20546f6b656e000000000000000000008152506040518060400160405280600481526020017f505a4b54000000000000000000000000000000000000000000000000000000008152506040518060600160405280603f815260200162005d5e603f9139828282336000806101000a81548173ffffffffffffffffffffffffffffffffffffffff021916908373ffffffffffffffffffffffffffffffffffffffff1602179055507f0d18b5fd22306e373229b9439188228edca81207d1667f604daf6cef8aa3ee67333360405162000133929190620003f2565b60405180910390a160008060146101000a81548160ff0219169083151502179055506200016d6301ffc9a760e01b6200024e60201b60201c565b620001856380ac58cd60e01b6200024e60201b60201c565b6200019d63780e9d6360e01b6200024e60201b60201c565b82600f9080519060200190620001b5929190620002ee565b508160109080519060200190620001ce929190620002ee565b508060119080519060200190620001e7929190620002ee565b5062000200635b5e139f60e01b6200024e60201b60201c565b50505050505080601360006101000a81548173ffffffffffffffffffffffffffffffffffffffff021916908373ffffffffffffffffffffffffffffffffffffffff16021790555050620004e6565b63ffffffff60e01b817bffffffffffffffffffffffffffffffffffffffffffffffffffffffff191614156200028257600080fd5b6001806000837bffffffffffffffffffffffffffffffffffffffffffffffffffffffff19167bffffffffffffffffffffffffffffffffffffffffffffffffffffffff1916815260200190815260200160002060006101000a81548160ff02191690831515021790555050565b828054620002fc9062000467565b90600052602060002090601f0160209004810192826200032057600085556200036c565b82601f106200033b57805160ff19168380011785556200036c565b828001600101855582156200036c579182015b828111156200036b5782518255916020019190600101906200034e565b5b5090506200037b91906200037f565b5090565b5b808211156200039a57600081600090555060010162000380565b5090565b600081519050620003af81620004cc565b92915050565b600060208284031215620003c857600080fd5b6000620003d8848285016200039e565b91505092915050565b620003ec816200041f565b82525050565b6000604082019050620004096000830185620003e1565b620004186020830184620003e1565b9392505050565b60006200042c8262000447565b9050919050565b6000620004408262000447565b9050919050565b600073ffffffffffffffffffffffffffffffffffffffff82169050919050565b600060028204905060018216806200048057607f821691505b602082108114156200049757620004966200049d565b5b50919050565b7f4e487b7100000000000000000000000000000000000000000000000000000000600052602260045260246000fd5b620004d78162000433565b8114620004e357600080fd5b50565b61586880620004f66000396000f3fe608060405234801561001057600080fd5b506004361061018e5760003560e01c80636352211e116100de578063a22cb46511610097578063ccd5835a11610071578063ccd5835a146104b7578063d547cfb7146104e7578063e985e9c514610505578063f2fde38b146105355761018e565b8063a22cb4651461044f578063b88d4fde1461046b578063c87b56dd146104875761018e565b80636352211e1461037b57806370a08231146103ab578063736d323a146103db57806374690502146103f7578063893d20e81461041357806395d89b41146104315761018e565b806327dc297e1161014b57806340c10f191161012557806340c10f19146102cf57806342842e0e146102ff5780634f6ccce71461031b578063621e9ec01461034b5761018e565b806327dc297e146102675780632f745c591461028357806338bbfa50146102b35761018e565b806301ffc9a71461019357806306fdde03146101c3578063081812fc146101e1578063095ea7b31461021157806318160ddd1461022d57806323b872dd1461024b575b600080fd5b6101ad60048036038101906101a891906147d5565b610551565b6040516101ba9190615042565b60405180910390f35b6101cb6105b9565b6040516101d89190615086565b60405180910390f35b6101fb60048036038101906101f69190614827565b61064b565b6040516102089190614f6b565b60405180910390f35b61022b60048036038101906102269190614534565b61069a565b005b610235610884565b6040516102429190615268565b60405180910390f35b6102656004803603810190610260919061442e565b610891565b005b610281600480360381019061027c9190614702565b6108fc565b005b61029d60048036038101906102989190614534565b61097e565b6040516102aa9190615268565b60405180910390f35b6102cd60048036038101906102c89190614756565b610a1e565b005b6102e960048036038101906102e49190614534565b610a41565b6040516102f69190615042565b60405180910390f35b6103196004803603810190610314919061442e565b610b45565b005b61033560048036038101906103309190614827565b610b77565b6040516103429190615268565b60405180910390f35b6103656004803603810190610360919061464b565b610bd8565b6040516103729190615042565b60405180910390f35b61039560048036038101906103909190614827565b61108c565b6040516103a29190614f6b565b60405180910390f35b6103c560048036038101906103c091906143c9565b6110db565b6040516103d29190615268565b60405180910390f35b6103f560048036038101906103f091906146b0565b61112b565b005b610411600480360381019061040c91906145fc565b611216565b005b61041b61138f565b6040516104289190614f6b565b60405180910390f35b6104396113b8565b6040516104469190615086565b60405180910390f35b610469600480360381019061046491906144f8565b61144a565b005b6104856004803603810190610480919061447d565b611580565b005b6104a1600480360381019061049c9190614827565b6115ee565b6040516104ae9190615086565b60405180910390f35b6104d160048036038101906104cc9190614570565b6116a5565b6040516104de9190615042565b60405180910390f35b6104ef611899565b6040516104fc9190615086565b60405180910390f35b61051f600480360381019061051a91906143f2565b61192b565b60405161052c9190615042565b60405180910390f35b61054f600480360381019061054a91906143c9565b6119bf565b005b600060016000837bffffffffffffffffffffffffffffffffffffffffffffffffffffffff19167bffffffffffffffffffffffffffffffffffffffffffffffffffffffff1916815260200190815260200160002060009054906101000a900460ff169050919050565b6060600f80546105c890615646565b80601f01602080910402602001604051908101604052809291908181526020018280546105f490615646565b80156106415780601f1061061657610100808354040283529160200191610641565b820191906000526020600020905b81548152906001019060200180831161062457829003601f168201915b5050505050905090565b600061065682611b39565b61065f57600080fd5b6003600083815260200190815260200160002060009054906101000a900473ffffffffffffffffffffffffffffffffffffffff169050919050565b6106a381611b39565b6106ac57600080fd5b60006002600083815260200190815260200160002060009054906101000a900473ffffffffffffffffffffffffffffffffffffffff1690508073ffffffffffffffffffffffffffffffffffffffff168373ffffffffffffffffffffffffffffffffffffffff161415610753576040517f08c379a000000000000000000000000000000000000000000000000000000000815260040161074a90615188565b60405180910390fd5b8073ffffffffffffffffffffffffffffffffffffffff163373ffffffffffffffffffffffffffffffffffffffff1614806107935750610792813361192b565b5b6107d2576040517f08c379a00000000000000000000000000000000000000000000000000000000081526004016107c990615168565b60405180910390fd5b826003600084815260200190815260200160002060006101000a81548173ffffffffffffffffffffffffffffffffffffffff021916908373ffffffffffffffffffffffffffffffffffffffff160217905550818373ffffffffffffffffffffffffffffffffffffffff163373ffffffffffffffffffffffffffffffffffffffff167f8c5be1e5ebec7d5bd14f71427d1e84f3dd0314c0f7b2291e5b200ac8c7c3b92560405160405180910390a4505050565b6000600880549050905090565b61089a81611b39565b6108a357600080fd5b6108ad3382611bab565b6108ec576040517f08c379a00000000000000000000000000000000000000000000000000000000081526004016108e3906151a8565b60405180910390fd5b6108f7838383611c40565b505050565b61097a8282600067ffffffffffffffff811115610942577f4e487b7100000000000000000000000000000000000000000000000000000000600052604160045260246000fd5b6040519080825280601f01601f1916602001820160405280156109745781602001600182028036833780820191505090505b50610a1e565b5050565b6000610989836110db565b821061099457600080fd5b600660008473ffffffffffffffffffffffffffffffffffffffff1673ffffffffffffffffffffffffffffffffffffffff1681526020019081526020016000208281548110610a0b577f4e487b7100000000000000000000000000000000000000000000000000000000600052603260045260246000fd5b9060005260206000200154905092915050565b6000801b600d60008060001b815260200190815260200160002081905550505050565b60008060009054906101000a900473ffffffffffffffffffffffffffffffffffffffff1673ffffffffffffffffffffffffffffffffffffffff163373ffffffffffffffffffffffffffffffffffffffff1614610ad2576040517f08c379a0000000000000000000000000000000000000000000000000000000008152600401610ac9906150a8565b60405180910390fd5b60001515600060149054906101000a900460ff16151514610b28576040517f08c379a0000000000000000000000000000000000000000000000000000000008152600401610b1f90615208565b60405180910390fd5b610b328383611ee4565b610b3b82611f05565b6001905092915050565b610b4e81611b39565b610b5757600080fd5b610b7283838360405180602001604052806000815250611580565b505050565b6000610b81610884565b8210610b8c57600080fd5b60088281548110610bc6577f4e487b7100000000000000000000000000000000000000000000000000000000600052603260045260246000fd5b90600052602060002001549050919050565b6000610be2613f6d565b604051806040016040528087600060028110610c27577f4e487b7100000000000000000000000000000000000000000000000000000000600052603260045260246000fd5b6020020151815260200187600160028110610c6b577f4e487b7100000000000000000000000000000000000000000000000000000000600052603260045260246000fd5b602002015181525081600001819052506040518060400160405280604051806040016040528088600060028110610ccb577f4e487b7100000000000000000000000000000000000000000000000000000000600052603260045260246000fd5b6020020151600060028110610d09577f4e487b7100000000000000000000000000000000000000000000000000000000600052603260045260246000fd5b6020020151815260200188600060028110610d4d577f4e487b7100000000000000000000000000000000000000000000000000000000600052603260045260246000fd5b6020020151600160028110610d8b577f4e487b7100000000000000000000000000000000000000000000000000000000600052603260045260246000fd5b60200201518152508152602001604051806040016040528088600160028110610ddd577f4e487b7100000000000000000000000000000000000000000000000000000000600052603260045260246000fd5b6020020151600060028110610e1b577f4e487b7100000000000000000000000000000000000000000000000000000000600052603260045260246000fd5b6020020151815260200188600160028110610e5f577f4e487b7100000000000000000000000000000000000000000000000000000000600052603260045260246000fd5b6020020151600160028110610e9d577f4e487b7100000000000000000000000000000000000000000000000000000000600052603260045260246000fd5b60200201518152508152508160200181905250604051806040016040528085600060028110610ef5577f4e487b7100000000000000000000000000000000000000000000000000000000600052603260045260246000fd5b6020020151815260200185600160028110610f39577f4e487b7100000000000000000000000000000000000000000000000000000000600052603260045260246000fd5b602002015181525081604001819052506000600267ffffffffffffffff811115610f8c577f4e487b7100000000000000000000000000000000000000000000000000000000600052604160045260246000fd5b604051908082528060200260200182016040528015610fba5781602001602082028036833780820191505090505b50905060005b600281101561105f57848160028110611002577f4e487b7100000000000000000000000000000000000000000000000000000000600052603260045260246000fd5b6020020151828281518110611040577f4e487b7100000000000000000000000000000000000000000000000000000000600052603260045260246000fd5b602002602001018181525050808061105790615678565b915050610fc0565b50600061106c8284611fe3565b141561107d57600192505050611084565b6000925050505b949350505050565b600061109782611b39565b6110a057600080fd5b6002600083815260200190815260200160002060009054906101000a900473ffffffffffffffffffffffffffffffffffffffff169050919050565b6000611124600460008473ffffffffffffffffffffffffffffffffffffffff1673ffffffffffffffffffffffffffffffffffffffff168152602001908152602001600020612212565b9050919050565b60008054906101000a900473ffffffffffffffffffffffffffffffffffffffff1673ffffffffffffffffffffffffffffffffffffffff163373ffffffffffffffffffffffffffffffffffffffff16146111b9576040517f08c379a00000000000000000000000000000000000000000000000000000000081526004016111b0906150a8565b60405180910390fd5b801515600060149054906101000a905050507f765b92da8b9fa48aefa40c871e948fe27f74aa6821a8cd0bd44340ea68571590600060149054906101000a900460ff163360405161120b92919061505d565b60405180910390a150565b601460405180604001604052808481526020018573ffffffffffffffffffffffffffffffffffffffff1681525090806001815401808255809150506001900390600052602060002090600202016000909190919091506000820151816000015560208201518160010160006101000a81548173ffffffffffffffffffffffffffffffffffffffff021916908373ffffffffffffffffffffffffffffffffffffffff160217905550505060405180604001604052808381526020018473ffffffffffffffffffffffffffffffffffffffff16815250601560008381526020019081526020016000206000820151816000015560208201518160010160006101000a81548173ffffffffffffffffffffffffffffffffffffffff021916908373ffffffffffffffffffffffffffffffffffffffff1602179055509050507f529aebee0fa53cdfb493ac455bd2a7b5924a502f5e34b85b84ebda0e84e62cb28284604051611382929190615283565b60405180910390a1505050565b60008060009054906101000a900473ffffffffffffffffffffffffffffffffffffffff16905090565b6060601080546113c790615646565b80601f01602080910402602001604051908101604052809291908181526020018280546113f390615646565b80156114405780601f1061141557610100808354040283529160200191611440565b820191906000526020600020905b81548152906001019060200180831161142357829003601f168201915b5050505050905090565b3373ffffffffffffffffffffffffffffffffffffffff168273ffffffffffffffffffffffffffffffffffffffff16141561148357600080fd5b80600560003373ffffffffffffffffffffffffffffffffffffffff1673ffffffffffffffffffffffffffffffffffffffff16815260200190815260200160002060008473ffffffffffffffffffffffffffffffffffffffff1673ffffffffffffffffffffffffffffffffffffffff16815260200190815260200160002060006101000a81548160ff0219169083151502179055508173ffffffffffffffffffffffffffffffffffffffff163373ffffffffffffffffffffffffffffffffffffffff167f17307eab39ab6107e8899845ad3d59bd9653f200f220920489ca2b5937696c31836040516115749190615042565b60405180910390a35050565b61158982611b39565b61159257600080fd5b61159d848484610891565b6115a984848484612220565b6115e8576040517f08c379a00000000000000000000000000000000000000000000000000000000081526004016115df906151c8565b60405180910390fd5b50505050565b60606115f982611b39565b61160257600080fd5b60126000838152602001908152602001600020805461162090615646565b80601f016020809104026020016040519081016040528092919081815260200182805461164c90615646565b80156116995780601f1061166e57610100808354040283529160200191611699565b820191906000526020600020905b81548152906001019060200180831161167c57829003601f168201915b50505050509050919050565b600080858585856040516020016116bf9493929190614f1d565b604051602081830303815290604052805190602001209050600073ffffffffffffffffffffffffffffffffffffffff166015600083815260200190815260200160002060010160009054906101000a900473ffffffffffffffffffffffffffffffffffffffff1673ffffffffffffffffffffffffffffffffffffffff161461177c576040517f08c379a000000000000000000000000000000000000000000000000000000000815260040161177390615248565b60405180910390fd5b601360009054906101000a900473ffffffffffffffffffffffffffffffffffffffff1673ffffffffffffffffffffffffffffffffffffffff1663621e9ec0878787876040518563ffffffff1660e01b81526004016117dd9493929190614ffb565b60206040518083038186803b1580156117f557600080fd5b505afa158015611809573d6000803e3d6000fd5b505050506040513d601f19601f8201168201806040525081019061182d91906146d9565b61186c576040517f08c379a000000000000000000000000000000000000000000000000000000000815260040161186390615148565b60405180910390fd5b611877888883611216565b6118818888611ee4565b61188a87611f05565b60019150509695505050505050565b6060601180546118a890615646565b80601f01602080910402602001604051908101604052809291908181526020018280546118d490615646565b80156119215780601f106118f657610100808354040283529160200191611921565b820191906000526020600020905b81548152906001019060200180831161190457829003601f168201915b5050505050905090565b6000600560008473ffffffffffffffffffffffffffffffffffffffff1673ffffffffffffffffffffffffffffffffffffffff16815260200190815260200160002060008373ffffffffffffffffffffffffffffffffffffffff1673ffffffffffffffffffffffffffffffffffffffff16815260200190815260200160002060009054906101000a900460ff16905092915050565b60008054906101000a900473ffffffffffffffffffffffffffffffffffffffff1673ffffffffffffffffffffffffffffffffffffffff163373ffffffffffffffffffffffffffffffffffffffff1614611a4d576040517f08c379a0000000000000000000000000000000000000000000000000000000008152600401611a44906150a8565b60405180910390fd5b600073ffffffffffffffffffffffffffffffffffffffff168173ffffffffffffffffffffffffffffffffffffffff161415611abd576040517f08c379a0000000000000000000000000000000000000000000000000000000008152600401611ab4906151e8565b60405180910390fd5b806000806101000a81548173ffffffffffffffffffffffffffffffffffffffff021916908373ffffffffffffffffffffffffffffffffffffffff1602179055507f0d18b5fd22306e373229b9439188228edca81207d1667f604daf6cef8aa3ee673382604051611b2e929190614f86565b60405180910390a150565b6000806002600084815260200190815260200160002060009054906101000a900473ffffffffffffffffffffffffffffffffffffffff169050600073ffffffffffffffffffffffffffffffffffffffff168173ffffffffffffffffffffffffffffffffffffffff161415915050919050565b600080611bb78361108c565b90508073ffffffffffffffffffffffffffffffffffffffff168473ffffffffffffffffffffffffffffffffffffffff161480611c2657508373ffffffffffffffffffffffffffffffffffffffff16611c0e8461064b565b73ffffffffffffffffffffffffffffffffffffffff16145b80611c375750611c36818561192b565b5b91505092915050565b8273ffffffffffffffffffffffffffffffffffffffff166002600083815260200190815260200160002060009054906101000a900473ffffffffffffffffffffffffffffffffffffffff1673ffffffffffffffffffffffffffffffffffffffff1614611ce1576040517f08c379a0000000000000000000000000000000000000000000000000000000008152600401611cd890615228565b60405180910390fd5b600073ffffffffffffffffffffffffffffffffffffffff168273ffffffffffffffffffffffffffffffffffffffff161415611d51576040517f08c379a0000000000000000000000000000000000000000000000000000000008152600401611d48906150c8565b60405180910390fd5b60006003600083815260200190815260200160002060006101000a81548173ffffffffffffffffffffffffffffffffffffffff021916908373ffffffffffffffffffffffffffffffffffffffff160217905550611deb600460008573ffffffffffffffffffffffffffffffffffffffff1673ffffffffffffffffffffffffffffffffffffffff168152602001908152602001600020612337565b611e32600460008473ffffffffffffffffffffffffffffffffffffffff1673ffffffffffffffffffffffffffffffffffffffff168152602001908152602001600020612393565b816002600083815260200190815260200160002060006101000a81548173ffffffffffffffffffffffffffffffffffffffff021916908373ffffffffffffffffffffffffffffffffffffffff160217905550808273ffffffffffffffffffffffffffffffffffffffff168473ffffffffffffffffffffffffffffffffffffffff167fddf252ad1be2c89b69c2b068fc378daa952ba7f163c4a11628f55a4df523b3ef60405160405180910390a4505050565b611eee82826123a9565b611ef882826125b3565b611f0181612677565b5050565b611f0e81611b39565b611f1757600080fd5b6000611fb560118054611f2990615646565b80601f0160208091040260200160405190810160405280929190818152602001828054611f5590615646565b8015611fa25780601f10611f7757610100808354040283529160200191611fa2565b820191906000526020600020905b815481529060010190602001808311611f8557829003601f168201915b5050505050611fb0846126c0565b612872565b905080601260008481526020019081526020016000209080519060200190611fde929190613fa0565b505050565b6000807f30644e72e131a029b85045b68181585d2833e84879b9709143e1f593f0000001905060006120136128b6565b9050806080015151600186516120299190615447565b1461203357600080fd5b60006040518060400160405280600081526020016000815250905060005b865181101561215e5783878281518110612094577f4e487b7100000000000000000000000000000000000000000000000000000000600052603260045260246000fd5b6020026020010151106120a657600080fd5b6121498261214485608001516001856120bf9190615447565b815181106120f6577f4e487b7100000000000000000000000000000000000000000000000000000000600052603260045260246000fd5b60200260200101518a8581518110612137577f4e487b7100000000000000000000000000000000000000000000000000000000600052603260045260246000fd5b6020026020010151612dca565b612ee3565b9150808061215690615678565b915050612051565b506121ae8183608001516000815181106121a1577f4e487b7100000000000000000000000000000000000000000000000000000000600052603260045260246000fd5b6020026020010151612ee3565b90506121f4856000015186602001516121c684613048565b85604001516121d88a60400151613048565b87606001516121ea8960000151613048565b89602001516130ed565b612204576001935050505061220c565b600093505050505b92915050565b600081600001549050919050565b60006122418473ffffffffffffffffffffffffffffffffffffffff16613436565b61224e576001905061232f565b60008473ffffffffffffffffffffffffffffffffffffffff1663150b7a02338887876040518563ffffffff1660e01b815260040161228f9493929190614faf565b602060405180830381600087803b1580156122a957600080fd5b505af11580156122bd573d6000803e3d6000fd5b505050506040513d601f19601f820116820180604052508101906122e191906147fe565b905063150b7a0260e01b7bffffffffffffffffffffffffffffffffffffffffffffffffffffffff1916817bffffffffffffffffffffffffffffffffffffffffffffffffffffffff1916149150505b949350505050565b60008160000154905060008111612383576040517f08c379a000000000000000000000000000000000000000000000000000000000815260040161237a906150e8565b60405180910390fd5b6001810382600001819055505050565b6001816000016000828254019250508190555050565b600073ffffffffffffffffffffffffffffffffffffffff166002600083815260200190815260200160002060009054906101000a900473ffffffffffffffffffffffffffffffffffffffff1673ffffffffffffffffffffffffffffffffffffffff161461244b576040517f08c379a000000000000000000000000000000000000000000000000000000000815260040161244290615128565b60405180910390fd5b600073ffffffffffffffffffffffffffffffffffffffff168273ffffffffffffffffffffffffffffffffffffffff1614156124bb576040517f08c379a00000000000000000000000000000000000000000000000000000000081526004016124b290615108565b60405180910390fd5b816002600083815260200190815260200160002060006101000a81548173ffffffffffffffffffffffffffffffffffffffff021916908373ffffffffffffffffffffffffffffffffffffffff160217905550612554600460008473ffffffffffffffffffffffffffffffffffffffff1673ffffffffffffffffffffffffffffffffffffffff168152602001908152602001600020612393565b808273ffffffffffffffffffffffffffffffffffffffff163373ffffffffffffffffffffffffffffffffffffffff167fddf252ad1be2c89b69c2b068fc378daa952ba7f163c4a11628f55a4df523b3ef60405160405180910390a45050565b600660008373ffffffffffffffffffffffffffffffffffffffff1673ffffffffffffffffffffffffffffffffffffffff168152602001908152602001600020805490506007600083815260200190815260200160002081905550600660008373ffffffffffffffffffffffffffffffffffffffff1673ffffffffffffffffffffffffffffffffffffffff1681526020019081526020016000208190806001815401808255809150506001900390600052602060002001600090919091909150555050565b6008805490506009600083815260200190815260200160002081905550600881908060018154018082558091505060019003906000526020600020016000909190919091505550565b60606000821415612708576040518060400160405280600181526020017f3000000000000000000000000000000000000000000000000000000000000000815250905061286d565b600082905060005b6000821461273a57808061272390615678565b915050600a82612733919061549d565b9150612710565b60008167ffffffffffffffff81111561277c577f4e487b7100000000000000000000000000000000000000000000000000000000600052604160045260246000fd5b6040519080825280601f01601f1916602001820160405280156127ae5781602001600182028036833780820191505090505b50905060008290505b600086146128655780806127ca9061561c565b915050600a866127da91906156c1565b60306127e69190615447565b60f81b828281518110612822577f4e487b7100000000000000000000000000000000000000000000000000000000600052603260045260246000fd5b60200101907effffffffffffffffffffffffffffffffffffffffffffffffffffffffffffff1916908160001a905350600a8661285e919061549d565b95506127b7565b819450505050505b919050565b60606128ae8383604051806020016040528060008152506040518060200160405280600081525060405180602001604052806000815250613449565b905092915050565b6128be614026565b60405180604001604052807f25e76f223f582ebb97ff0a3abb75eca47fa198a11237e4e4cff560124855c7bb81526020017f0fefba243a02e4f196b917868ef2ad3cee1ca24fd9b53413e0c4c4c95bdd7d938152508160000181905250604051806040016040528060405180604001604052807f06eb11db91cdbe47970a084a7a540a2ae7cf640586393843daa08318d09d6f0181526020017f1bd78a91ff3a9cac0464cd4c34191f8074729d58573e434ef41d59586bed3fd2815250815260200160405180604001604052807f09ade47f8a9c095256a70769210b710ab960c30ed70b777ba8f5d9a65b7c42c581526020017f1d5b584b0185e620c8051e2ca074ad181e4229cfeaff77ec5b82a8c44d2579dd8152508152508160200181905250604051806040016040528060405180604001604052807f2f884ff2ef2dfd41ff0d02efbf1d7bedf710d4818f4b7311986ad2a9a836f94781526020017f2aa67de2112c02a71b2f338a0aee03359e5e8029cfcc79c96d37241db7df1db5815250815260200160405180604001604052807f187663c1eaca3c6febe216fb7fb7dde38f15c32437365731816af68f49a801de81526020017f2021c0f267cc7c51f781012c18b4be1ae79d8cbdabb98d6d7db23169b2ff72c98152508152508160400181905250604051806040016040528060405180604001604052807f0fca88576dbef3273b2708fe1e97c85eb8a40312605c07625d87052c8f4fbf0981526020017f203399d23ae419509977ec4a7a22526f57e4941e02aefa984e274c81713fde91815250815260200160405180604001604052807f2a965e680607ba7d41cc7b9c99418231719b358befd82cec7bf42e5f27d09fd381526020017f198d6b8b42f8029ecd77f1af563f38f9c1e7039eeb92d8e995534f2457704a768152508152508160600181905250600367ffffffffffffffff811115612bab577f4e487b7100000000000000000000000000000000000000000000000000000000600052604160045260246000fd5b604051908082528060200260200182016040528015612be457816020015b612bd161406d565b815260200190600190039081612bc95790505b50816080018190525060405180604001604052807f2f0cd887c38b2ae6fce3efa999503fb309f2bf2573affbac87d88ddbcb18ed1081526020017f2ef615834a3cc14da655909cd328257f433c59e7945d33b46eb04be80635e6258152508160800151600081518110612c80577f4e487b7100000000000000000000000000000000000000000000000000000000600052603260045260246000fd5b602002602001018190525060405180604001604052807f2246a47c6db085a7b8fb097c5cea33043c838b2589b1eafaea674ed93f6c543281526020017f08aee2da643d4591abed1fd1cfe48326397a606b9a93af6a370603350e35d0f48152508160800151600181518110612d1e577f4e487b7100000000000000000000000000000000000000000000000000000000600052603260045260246000fd5b602002602001018190525060405180604001604052807f1e6624f3eada3da6e5199126d07bdfa568ba9929ab7fadc8cdb224545594fb8381526020017f1446b628bbf03dd851170ca08fc53574ea9c573c3d22cb5fa3736a87e70717138152508160800151600281518110612dbc577f4e487b7100000000000000000000000000000000000000000000000000000000600052603260045260246000fd5b602002602001018190525090565b612dd261406d565b612dda614087565b836000015181600060038110612e19577f4e487b7100000000000000000000000000000000000000000000000000000000600052603260045260246000fd5b602002018181525050836020015181600160038110612e61577f4e487b7100000000000000000000000000000000000000000000000000000000600052603260045260246000fd5b6020020181815250508281600260038110612ea5577f4e487b7100000000000000000000000000000000000000000000000000000000600052603260045260246000fd5b602002018181525050600060608360808460076107d05a03fa90508060008114612ece57612ed0565bfe5b5080612edb57600080fd5b505092915050565b612eeb61406d565b612ef36140a9565b836000015181600060048110612f32577f4e487b7100000000000000000000000000000000000000000000000000000000600052603260045260246000fd5b602002018181525050836020015181600160048110612f7a577f4e487b7100000000000000000000000000000000000000000000000000000000600052603260045260246000fd5b602002018181525050826000015181600260048110612fc2577f4e487b7100000000000000000000000000000000000000000000000000000000600052603260045260246000fd5b60200201818152505082602001518160036004811061300a577f4e487b7100000000000000000000000000000000000000000000000000000000600052603260045260246000fd5b602002018181525050600060608360c08460066107d05a03fa9050806000811461303357613035565bfe5b508061304057600080fd5b505092915050565b61305061406d565b60007f30644e72e131a029b85045b68181585d97816a916871ca8d3c208c16d87cfd4790506000836000015114801561308d575060008360200151145b156130b15760405180604001604052806000815260200160008152509150506130e8565b6040518060400160405280846000015181526020018285602001516130d691906156c1565b836130e19190615528565b8152509150505b919050565b600080600467ffffffffffffffff811115613131577f4e487b7100000000000000000000000000000000000000000000000000000000600052604160045260246000fd5b60405190808252806020026020018201604052801561316a57816020015b61315761406d565b81526020019060019003908161314f5790505b5090506000600467ffffffffffffffff8111156131b0577f4e487b7100000000000000000000000000000000000000000000000000000000600052604160045260246000fd5b6040519080825280602002602001820160405280156131e957816020015b6131d66140cb565b8152602001906001900390816131ce5790505b5090508a82600081518110613227577f4e487b7100000000000000000000000000000000000000000000000000000000600052603260045260246000fd5b6020026020010181905250888260018151811061326d577f4e487b7100000000000000000000000000000000000000000000000000000000600052603260045260246000fd5b602002602001018190525086826002815181106132b3577f4e487b7100000000000000000000000000000000000000000000000000000000600052603260045260246000fd5b602002602001018190525084826003815181106132f9577f4e487b7100000000000000000000000000000000000000000000000000000000600052603260045260246000fd5b6020026020010181905250898160008151811061333f577f4e487b7100000000000000000000000000000000000000000000000000000000600052603260045260246000fd5b60200260200101819052508781600181518110613385577f4e487b7100000000000000000000000000000000000000000000000000000000600052603260045260246000fd5b602002602001018190525085816002815181106133cb577f4e487b7100000000000000000000000000000000000000000000000000000000600052603260045260246000fd5b60200260200101819052508381600381518110613411577f4e487b7100000000000000000000000000000000000000000000000000000000600052603260045260246000fd5b60200260200101819052506134268282613966565b9250505098975050505050505050565b600080823b905060008111915050919050565b60606000869050600086905060008690506000869050600086905060008151835185518751895161347a9190615447565b6134849190615447565b61348e9190615447565b6134989190615447565b67ffffffffffffffff8111156134d7577f4e487b7100000000000000000000000000000000000000000000000000000000600052604160045260246000fd5b6040519080825280601f01601f1916602001820160405280156135095781602001600182028036833780820191505090505b5090506000819050600080600090505b88518110156135ed5788818151811061355b577f4e487b7100000000000000000000000000000000000000000000000000000000600052603260045260246000fd5b602001015160f81c60f81b83838061357290615678565b9450815181106135ab577f4e487b7100000000000000000000000000000000000000000000000000000000600052603260045260246000fd5b60200101907effffffffffffffffffffffffffffffffffffffffffffffffffffffffffffff1916908160001a90535080806135e590615678565b915050613519565b600090505b87518110156136c657878181518110613634577f4e487b7100000000000000000000000000000000000000000000000000000000600052603260045260246000fd5b602001015160f81c60f81b83838061364b90615678565b945081518110613684577f4e487b7100000000000000000000000000000000000000000000000000000000600052603260045260246000fd5b60200101907effffffffffffffffffffffffffffffffffffffffffffffffffffffffffffff1916908160001a90535080806136be90615678565b9150506135f2565b600090505b865181101561379f5786818151811061370d577f4e487b7100000000000000000000000000000000000000000000000000000000600052603260045260246000fd5b602001015160f81c60f81b83838061372490615678565b94508151811061375d577f4e487b7100000000000000000000000000000000000000000000000000000000600052603260045260246000fd5b60200101907effffffffffffffffffffffffffffffffffffffffffffffffffffffffffffff1916908160001a905350808061379790615678565b9150506136cb565b600090505b8551811015613878578581815181106137e6577f4e487b7100000000000000000000000000000000000000000000000000000000600052603260045260246000fd5b602001015160f81c60f81b8383806137fd90615678565b945081518110613836577f4e487b7100000000000000000000000000000000000000000000000000000000600052603260045260246000fd5b60200101907effffffffffffffffffffffffffffffffffffffffffffffffffffffffffffff1916908160001a905350808061387090615678565b9150506137a4565b600090505b8451811015613951578481815181106138bf577f4e487b7100000000000000000000000000000000000000000000000000000000600052603260045260246000fd5b602001015160f81c60f81b8383806138d690615678565b94508151811061390f577f4e487b7100000000000000000000000000000000000000000000000000000000600052603260045260246000fd5b60200101907effffffffffffffffffffffffffffffffffffffffffffffffffffffffffffff1916908160001a905350808061394990615678565b91505061387d565b82995050505050505050505095945050505050565b6000815183511461397657600080fd5b600083519050600060068261398b91906154ce565b905060008167ffffffffffffffff8111156139cf577f4e487b7100000000000000000000000000000000000000000000000000000000600052604160045260246000fd5b6040519080825280602002602001820160405280156139fd5781602001602082028036833780820191505090505b50905060005b83811015613ee257868181518110613a44577f4e487b7100000000000000000000000000000000000000000000000000000000600052603260045260246000fd5b602002602001015160000151826000600684613a6091906154ce565b613a6a9190615447565b81518110613aa1577f4e487b7100000000000000000000000000000000000000000000000000000000600052603260045260246000fd5b602002602001018181525050868181518110613ae6577f4e487b7100000000000000000000000000000000000000000000000000000000600052603260045260246000fd5b602002602001015160200151826001600684613b0291906154ce565b613b0c9190615447565b81518110613b43577f4e487b7100000000000000000000000000000000000000000000000000000000600052603260045260246000fd5b602002602001018181525050858181518110613b88577f4e487b7100000000000000000000000000000000000000000000000000000000600052603260045260246000fd5b602002602001015160000151600160028110613bcd577f4e487b7100000000000000000000000000000000000000000000000000000000600052603260045260246000fd5b6020020151826002600684613be291906154ce565b613bec9190615447565b81518110613c23577f4e487b7100000000000000000000000000000000000000000000000000000000600052603260045260246000fd5b602002602001018181525050858181518110613c68577f4e487b7100000000000000000000000000000000000000000000000000000000600052603260045260246000fd5b602002602001015160000151600060028110613cad577f4e487b7100000000000000000000000000000000000000000000000000000000600052603260045260246000fd5b6020020151826003600684613cc291906154ce565b613ccc9190615447565b81518110613d03577f4e487b7100000000000000000000000000000000000000000000000000000000600052603260045260246000fd5b602002602001018181525050858181518110613d48577f4e487b7100000000000000000000000000000000000000000000000000000000600052603260045260246000fd5b602002602001015160200151600160028110613d8d577f4e487b7100000000000000000000000000000000000000000000000000000000600052603260045260246000fd5b6020020151826004600684613da291906154ce565b613dac9190615447565b81518110613de3577f4e487b7100000000000000000000000000000000000000000000000000000000600052603260045260246000fd5b602002602001018181525050858181518110613e28577f4e487b7100000000000000000000000000000000000000000000000000000000600052603260045260246000fd5b602002602001015160200151600060028110613e6d577f4e487b7100000000000000000000000000000000000000000000000000000000600052603260045260246000fd5b6020020151826005600684613e8291906154ce565b613e8c9190615447565b81518110613ec3577f4e487b7100000000000000000000000000000000000000000000000000000000600052603260045260246000fd5b6020026020010181815250508080613eda90615678565b915050613a03565b50613eeb6140f1565b6000602082602086026020860160086107d05a03fa90508060008114613f1057613f12565bfe5b5080613f1d57600080fd5b600082600060018110613f59577f4e487b7100000000000000000000000000000000000000000000000000000000600052603260045260246000fd5b602002015114159550505050505092915050565b6040518060600160405280613f8061406d565b8152602001613f8d6140cb565b8152602001613f9a61406d565b81525090565b828054613fac90615646565b90600052602060002090601f016020900481019282613fce5760008555614015565b82601f10613fe757805160ff1916838001178555614015565b82800160010185558215614015579182015b82811115614014578251825591602001919060010190613ff9565b5b5090506140229190614113565b5090565b6040518060a0016040528061403961406d565b81526020016140466140cb565b81526020016140536140cb565b81526020016140606140cb565b8152602001606081525090565b604051806040016040528060008152602001600081525090565b6040518060600160405280600390602082028036833780820191505090505090565b6040518060800160405280600490602082028036833780820191505090505090565b60405180604001604052806140de614130565b81526020016140eb614130565b81525090565b6040518060200160405280600190602082028036833780820191505090505090565b5b8082111561412c576000816000905550600101614114565b5090565b6040518060400160405280600290602082028036833780820191505090505090565b6000614165614160846152dd565b6152ac565b9050808285604086028201111561417b57600080fd5b60005b858110156141ab578161419188826142d0565b84526020840193506040830192505060018101905061417e565b5050509392505050565b60006141c86141c384615303565b6152ac565b905080828560208602820111156141de57600080fd5b60005b8581101561420e57816141f488826143b4565b8452602084019350602083019250506001810190506141e1565b5050509392505050565b600061422b61422684615329565b6152ac565b90508281526020810184848401111561424357600080fd5b61424e8482856155da565b509392505050565b600061426961426484615359565b6152ac565b90508281526020810184848401111561428157600080fd5b61428c8482856155da565b509392505050565b6000813590506142a3816157bf565b92915050565b600082601f8301126142ba57600080fd5b60026142c7848285614152565b91505092915050565b600082601f8301126142e157600080fd5b60026142ee8482856141b5565b91505092915050565b600081359050614306816157d6565b92915050565b60008151905061431b816157d6565b92915050565b600081359050614330816157ed565b92915050565b60008135905061434581615804565b92915050565b60008151905061435a81615804565b92915050565b600082601f83011261437157600080fd5b8135614381848260208601614218565b91505092915050565b600082601f83011261439b57600080fd5b81356143ab848260208601614256565b91505092915050565b6000813590506143c38161581b565b92915050565b6000602082840312156143db57600080fd5b60006143e984828501614294565b91505092915050565b6000806040838503121561440557600080fd5b600061441385828601614294565b925050602061442485828601614294565b9150509250929050565b60008060006060848603121561444357600080fd5b600061445186828701614294565b935050602061446286828701614294565b9250506040614473868287016143b4565b9150509250925092565b6000806000806080858703121561449357600080fd5b60006144a187828801614294565b94505060206144b287828801614294565b93505060406144c3878288016143b4565b925050606085013567ffffffffffffffff8111156144e057600080fd5b6144ec87828801614360565b91505092959194509250565b6000806040838503121561450b57600080fd5b600061451985828601614294565b925050602061452a858286016142f7565b9150509250929050565b6000806040838503121561454757600080fd5b600061455585828601614294565b9250506020614566858286016143b4565b9150509250929050565b600080600080600080610180878903121561458a57600080fd5b600061459889828a01614294565b96505060206145a989828a016143b4565b95505060406145ba89828a016142d0565b94505060806145cb89828a016142a9565b9350506101006145dd89828a016142d0565b9250506101406145ef89828a016142d0565b9150509295509295509295565b60008060006060848603121561461157600080fd5b600061461f86828701614294565b9350506020614630868287016143b4565b925050604061464186828701614321565b9150509250925092565b600080600080610140858703121561466257600080fd5b6000614670878288016142d0565b9450506040614681878288016142a9565b93505060c0614692878288016142d0565b9250506101006146a4878288016142d0565b91505092959194509250565b6000602082840312156146c257600080fd5b60006146d0848285016142f7565b91505092915050565b6000602082840312156146eb57600080fd5b60006146f98482850161430c565b91505092915050565b6000806040838503121561471557600080fd5b600061472385828601614321565b925050602083013567ffffffffffffffff81111561474057600080fd5b61474c8582860161438a565b9150509250929050565b60008060006060848603121561476b57600080fd5b600061477986828701614321565b935050602084013567ffffffffffffffff81111561479657600080fd5b6147a28682870161438a565b925050604084013567ffffffffffffffff8111156147bf57600080fd5b6147cb86828701614360565b9150509250925092565b6000602082840312156147e757600080fd5b60006147f584828501614336565b91505092915050565b60006020828403121561481057600080fd5b600061481e8482850161434b565b91505092915050565b60006020828403121561483957600080fd5b6000614847848285016143b4565b91505092915050565b600061485c838361496d565b60408301905092915050565b60006148748383614a1b565b60408301905092915050565b600061488c8383614ef0565b60208301905092915050565b60006148a48383614f0e565b60208301905092915050565b6148b98161555c565b82525050565b6148c88161539d565b6148d281846153e3565b92506148dd82615389565b8060005b8381101561490e5781516148f58782614850565b9650614900836153c9565b9250506001810190506148e1565b505050505050565b61491f8161539d565b61492981846153ee565b925061493482615389565b8060005b8381101561496557815161494c8782614868565b9650614957836153c9565b925050600181019050614938565b505050505050565b614976816153a8565b61498081846153f9565b925061498b82615393565b8060005b838110156149bc5781516149a38782614880565b96506149ae836153d6565b92505060018101905061498f565b505050505050565b6149cd816153a8565b6149d78184615404565b92506149e282615393565b8060005b83811015614a135781516149fa8782614880565b9650614a05836153d6565b9250506001810190506149e6565b505050505050565b614a24816153a8565b614a2e818461540f565b9250614a3982615393565b8060005b83811015614a6a578151614a518782614898565b9650614a5c836153d6565b925050600181019050614a3d565b505050505050565b614a7b816153a8565b614a85818461541a565b9250614a9082615393565b8060005b83811015614ac1578151614aa88782614898565b9650614ab3836153d6565b925050600181019050614a94565b505050505050565b614ad28161556e565b82525050565b6000614ae3826153b3565b614aed8185615425565b9350614afd8185602086016155e9565b614b06816157ae565b840191505092915050565b6000614b1c826153be565b614b268185615436565b9350614b368185602086016155e9565b614b3f816157ae565b840191505092915050565b6000614b57602583615436565b91507f4f6e6c7920746865206f776e65722063616e2063616c6c20746869732066756e60008301527f6374696f6e0000000000000000000000000000000000000000000000000000006020830152604082019050919050565b6000614bbd601e83615436565b91507f526563656976696e672061646472657373206973206e6f742076616c696400006000830152602082019050919050565b6000614bfd601b83615436565b91507f436f756e7465723a2064656372656d656e74206f766572666c6f7700000000006000830152602082019050919050565b6000614c3d600f83615436565b91507f4164647265737320696e76616c696400000000000000000000000000000000006000830152602082019050919050565b6000614c7d601383615436565b91507f546f6b656e20616c7265616479206578697374000000000000000000000000006000830152602082019050919050565b6000614cbd601083615436565b91507f50726f6f6620697320696e76616c6964000000000000000000000000000000006000830152602082019050919050565b6000614cfd601f83615436565b91507f53656e646572206973206e6f74206f776e6572206f7220617070726f766564006000830152602082019050919050565b6000614d3d601f83615436565b91507f52656365697665722069732073616d6520617320746f6b656e206f776e6572006000830152602082019050919050565b6000614d7d600c83615436565b91507f4e6f7420617070726f76656400000000000000000000000000000000000000006000830152602082019050919050565b6000614dbd600c83615436565b91507f4e6f7420726563656976656400000000000000000000000000000000000000006000830152602082019050919050565b6000614dfd601983615436565b91507f506173736564206164647265737320697320696e76616c6964000000000000006000830152602082019050919050565b6000614e3d601283615436565b91507f436f6e74726163742069732070617573656400000000000000000000000000006000830152602082019050919050565b6000614e7d601983615436565b91507f53656e646572206973206e6f7420746f6b656e206f776e6572000000000000006000830152602082019050919050565b6000614ebd601883615436565b91507f536f6c7574696f6e20616c726561647920696e207573652e00000000000000006000830152602082019050919050565b614ef9816155d0565b82525050565b614f08816155d0565b82525050565b614f17816155d0565b82525050565b6000614f298287614a72565b604082019150614f398286614916565b608082019150614f498285614a72565b604082019150614f598284614a72565b60408201915081905095945050505050565b6000602082019050614f8060008301846148b0565b92915050565b6000604082019050614f9b60008301856148b0565b614fa860208301846148b0565b9392505050565b6000608082019050614fc460008301876148b0565b614fd160208301866148b0565b614fde6040830185614eff565b8181036060830152614ff08184614ad8565b905095945050505050565b60006101408201905061501160008301876149c4565b61501e60408301866148bf565b61502b60c08301856149c4565b6150396101008301846149c4565b95945050505050565b60006020820190506150576000830184614ac9565b92915050565b60006040820190506150726000830185614ac9565b61507f60208301846148b0565b9392505050565b600060208201905081810360008301526150a08184614b11565b905092915050565b600060208201905081810360008301526150c181614b4a565b9050919050565b600060208201905081810360008301526150e181614bb0565b9050919050565b6000602082019050818103600083015261510181614bf0565b9050919050565b6000602082019050818103600083015261512181614c30565b9050919050565b6000602082019050818103600083015261514181614c70565b9050919050565b6000602082019050818103600083015261516181614cb0565b9050919050565b6000602082019050818103600083015261518181614cf0565b9050919050565b600060208201905081810360008301526151a181614d30565b9050919050565b600060208201905081810360008301526151c181614d70565b9050919050565b600060208201905081810360008301526151e181614db0565b9050919050565b6000602082019050818103600083015261520181614df0565b9050919050565b6000602082019050818103600083015261522181614e30565b9050919050565b6000602082019050818103600083015261524181614e70565b9050919050565b6000602082019050818103600083015261526181614eb0565b9050919050565b600060208201905061527d6000830184614eff565b92915050565b60006040820190506152986000830185614eff565b6152a560208301846148b0565b9392505050565b6000604051905081810181811067ffffffffffffffff821117156152d3576152d261577f565b5b8060405250919050565b600067ffffffffffffffff8211156152f8576152f761577f565b5b602082029050919050565b600067ffffffffffffffff82111561531e5761531d61577f565b5b602082029050919050565b600067ffffffffffffffff8211156153445761534361577f565b5b601f19601f8301169050602081019050919050565b600067ffffffffffffffff8211156153745761537361577f565b5b601f19601f8301169050602081019050919050565b6000819050919050565b6000819050919050565b600060029050919050565b600060029050919050565b600081519050919050565b600081519050919050565b6000602082019050919050565b6000602082019050919050565b600081905092915050565b600081905092915050565b600081905092915050565b600081905092915050565b600081905092915050565b600081905092915050565b600082825260208201905092915050565b600082825260208201905092915050565b6000615452826155d0565b915061545d836155d0565b9250827fffffffffffffffffffffffffffffffffffffffffffffffffffffffffffffffff03821115615492576154916156f2565b5b828201905092915050565b60006154a8826155d0565b91506154b3836155d0565b9250826154c3576154c2615721565b5b828204905092915050565b60006154d9826155d0565b91506154e4836155d0565b9250817fffffffffffffffffffffffffffffffffffffffffffffffffffffffffffffffff048311821515161561551d5761551c6156f2565b5b828202905092915050565b6000615533826155d0565b915061553e836155d0565b925082821015615551576155506156f2565b5b828203905092915050565b6000615567826155b0565b9050919050565b60008115159050919050565b6000819050919050565b60007fffffffff0000000000000000000000000000000000000000000000000000000082169050919050565b600073ffffffffffffffffffffffffffffffffffffffff82169050919050565b6000819050919050565b82818337600083830152505050565b60005b838110156156075780820151818401526020810190506155ec565b83811115615616576000848401525b50505050565b6000615627826155d0565b9150600082141561563b5761563a6156f2565b5b600182039050919050565b6000600282049050600182168061565e57607f821691505b6020821081141561567257615671615750565b5b50919050565b6000615683826155d0565b91507fffffffffffffffffffffffffffffffffffffffffffffffffffffffffffffffff8214156156b6576156b56156f2565b5b600182019050919050565b60006156cc826155d0565b91506156d7836155d0565b9250826156e7576156e6615721565b5b828206905092915050565b7f4e487b7100000000000000000000000000000000000000000000000000000000600052601160045260246000fd5b7f4e487b7100000000000000000000000000000000000000000000000000000000600052601260045260246000fd5b7f4e487b7100000000000000000000000000000000000000000000000000000000600052602260045260246000fd5b7f4e487b7100000000000000000000000000000000000000000000000000000000600052604160045260246000fd5b6000601f19601f8301169050919050565b6157c88161555c565b81146157d357600080fd5b50565b6157df8161556e565b81146157ea57600080fd5b50565b6157f68161557a565b811461580157600080fd5b50565b61580d81615584565b811461581857600080fd5b50565b615824816155d0565b811461582f57600080fd5b5056fea2646970667358221220a9496e4676b4d67b83de3e051de36e11b8ce262a5a3ebf6dceb85194156358d464736f6c6343000800003368747470733a2f2f73332d75732d776573742d322e616d617a6f6e6177732e636f6d2f756461636974792d626c6f636b636861696e2f63617073746f6e652f",
  "immutableReferences": {},
  "source": "// SPDX-License-Identifier: MIT\r\n\r\npragma solidity ^0.8.0;\r\n\r\nimport \"./Verifier.sol\";\r\nimport \"./ERC721Mintable.sol\";\r\n\r\ncontract SquareVerifier is Verifier { }\r\n\r\ncontract SolnSquareVerifier is Verifier, propertyERC721Token {\r\n    SquareVerifier private squareContract;\r\n    \r\n    constructor(address payable verifierAddress) propertyERC721Token(\r\n        \"Property zkSNARK Token\", \"PZKT\", \"https://s3-us-west-2.amazonaws.com/udacity-blockchain/capstone/\"\r\n    ) {\r\n        squareContract = SquareVerifier(verifierAddress);\r\n    }\r\n\r\n    struct solution {\r\n        uint256 tokenId;\r\n        address to;\r\n    }\r\n\r\n    solution[] private solutionsArr; \r\n\r\n    mapping(bytes32 => solution) solutionsMap;\r\n\r\n    event solutionAdded(uint tokenId, address to);\r\n\r\n    /**\r\n     * @dev add Solution to array of used solutions\r\n     */\r\n    function addSolution(address _to, uint256 _tokenId, bytes32 _index) public {\r\n        solutionsArr.push(solution(_tokenId, _to));\r\n        solutionsMap[_index] = solution(_tokenId, _to);\r\n        emit solutionAdded(_tokenId, _to);\r\n    }\r\n\r\n    /**\r\n     * @dev mint new NFT only after the solution has been verified\r\n     */\r\n    function mintToken(\r\n        address _to,\r\n        uint256 _tokenId,\r\n        uint256[2] memory _a,\r\n        uint256[2][2] memory _b,\r\n        uint256[2] memory _c,\r\n        uint256[2] memory _input\r\n    ) public returns (bool) {\r\n        \r\n        bytes32 _inputHash = keccak256(abi.encodePacked(_a,_b,_c,_input));\r\n        require(solutionsMap[_inputHash].to == address(0), \"Solution already in use.\");\r\n        require(squareContract.verifyTx(_a, _b, _c, _input), \"Proof is invalid\");\r\n\r\n        addSolution(_to, _tokenId, _inputHash);\r\n        super._mintEnumerable(_to, _tokenId);\r\n        super._setTokenURI(_tokenId);\r\n\r\n        return true;\r\n    }\r\n}\r\n",
  "sourcePath": "C:/Users/Daniel/Documents/GitHub/Property-Title_Smart-Contract/eth-contracts/contracts/SolnSquareVerifier.sol",
  "compiler": {
    "name": "solc",
    "version": "0.8.0+commit.c7dfd78e.Emscripten.clang"
  },
  "schemaVersion": "3.4.1",
  "updatedAt": "2021-09-19T23:29:25.456Z",
  "networkType": "ethereum",
  "devdoc": {
    "kind": "dev",
    "methods": {
      "__callback(bytes32,string)": {
        "details": "The following `__callback` functions are just placeholders ideally      meant to be defined in child contract when proofs are used.      The function bodies simply silence compiler warnings."
      },
      "addSolution(address,uint256,bytes32)": {
        "details": "add Solution to array of used solutions"
      },
      "approve(address,uint256)": {
        "details": "Approves another address to transfer the given token ID",
        "params": {
          "to": "address to be approved for transferral",
          "tokenId": "token ID the address gets transferral approved for"
        }
      },
      "balanceOf(address)": {
        "details": "get amount of owned tokens for account",
        "params": {
          "owner": "account balance to be checked for"
        }
      },
      "getApproved(uint256)": {
        "details": "Approves another address to transfer the given token ID",
        "params": {
          "tokenId": "token ID for which approved addresses are returned"
        },
        "returns": {
          "_0": "address which has approval"
        }
      },
      "getOwner()": {
        "details": "get current owner of contract"
      },
      "isApprovedForAll(address,address)": {
        "details": "Tells whether an operator is approved by a given owner",
        "params": {
          "operator": "operator address which you want to query the approval of",
          "owner": "owner address which you want to query the approval of"
        },
        "returns": {
          "_0": "bool whether the given operator is approved by the given owner"
        }
      },
      "mint(address,uint256)": {
        "details": "public function to mint new tokens",
        "params": {
          "to": "owner address of the new token",
          "tokenId": "uint256 ID of the token to be added to the tokens list"
        }
      },
      "mintToken(address,uint256,uint256[2],uint256[2][2],uint256[2],uint256[2])": {
        "details": "mint new NFT only after the solution has been verified"
      },
      "ownerOf(uint256)": {
        "details": "retrieve owner of a token if it exists",
        "params": {
          "tokenId": "token ID owner to be retrieved for "
        }
      },
      "safeTransferFrom(address,address,uint256)": {
        "details": "safe transfer token from one address to another",
        "params": {
          "from": "address from wich the token will be transferred from",
          "to": "address to which token will be address",
          "tokenId": "token ID to be transferred"
        }
      },
      "safeTransferFrom(address,address,uint256,bytes)": {
        "details": "safe transfer token from one address to another",
        "params": {
          "from": "address from wich the token will be transferred from",
          "to": "address to which token will be address",
          "tokenId": "token ID to be transferred"
        }
      },
      "setApprovalForAll(address,bool)": {
        "details": "Sets or unsets the approval of a given operator An operator is allowed to transfer all tokens of the sender on their behalf",
        "params": {
          "approved": "representing the status of the approval to be set",
          "to": "operator address to set the approval"
        }
      },
      "setPausable(bool)": {
        "details": "owner can pause contract"
      },
      "supportsInterface(bytes4)": {
        "details": "implement supportsInterface(bytes4) using a lookup table"
      },
      "tokenByIndex(uint256)": {
        "details": "Gets the token ID at a given index of all the tokens in this contract Reverts if the index is greater or equal to the total number of tokens",
        "params": {
          "index": "uint256 representing the index to be accessed of the tokens list"
        },
        "returns": {
          "_0": "uint256 token ID at the given index of the tokens list"
        }
      },
      "tokenOfOwnerByIndex(address,uint256)": {
        "details": "Gets the token ID at a given index of the tokens list of the requested owner",
        "params": {
          "index": "uint256 representing the index to be accessed of the requested tokens list",
          "owner": "address owning the tokens list to be accessed"
        },
        "returns": {
          "_0": "uint256 token ID at the given index of the tokens list owned by the requested address"
        }
      },
      "totalSupply()": {
        "details": "Gets the total amount of tokens stored by the contract",
        "returns": {
          "_0": "uint256 representing the total amount of tokens"
        }
      },
      "transferFrom(address,address,uint256)": {
        "details": "transfer token from one address to another",
        "params": {
          "from": "address from wich the token will be transferred from",
          "to": "address to which token will be address",
          "tokenId": "token ID to be transferred"
        }
      },
      "transferOwnership(address)": {
        "details": "transfer contract ownership and emit respective event",
        "params": {
          "newOwner": "address of owner contract is transfered to only callable by current owner"
        }
      }
    },
    "version": 1
  },
  "userdoc": {
    "kind": "user",
    "methods": {},
    "version": 1
  }
}