{
  "contractName": "SquareVerifier",
  "abi": [
    {
      "inputs": [
        {
          "internalType": "uint256[2]",
          "name": "a",
          "type": "uint256[2]"
        },
        {
          "internalType": "uint256[2][2]",
          "name": "b",
          "type": "uint256[2][2]"
        },
        {
          "internalType": "uint256[2]",
          "name": "c",
          "type": "uint256[2]"
        },
        {
          "internalType": "uint256[2]",
          "name": "input",
          "type": "uint256[2]"
        }
      ],
      "name": "verifyTx",
      "outputs": [
        {
          "internalType": "bool",
          "name": "r",
          "type": "bool"
        }
      ],
      "stateMutability": "view",
      "type": "function"
    }
  ],
  "bytecode": "0x608060405234801561001057600080fd5b50611e8f806100206000396000f3fe608060405234801561001057600080fd5b506004361061002b5760003560e01c8063621e9ec014610030575b600080fd5b61004a60048036038101906100459190611b35565b610060565b6040516100579190611ba9565b60405180910390f35b600061006a6118ca565b6040518060400160405280876000600281106100af577f4e487b7100000000000000000000000000000000000000000000000000000000600052603260045260246000fd5b60200201518152602001876001600281106100f3577f4e487b7100000000000000000000000000000000000000000000000000000000600052603260045260246000fd5b602002015181525081600001819052506040518060400160405280604051806040016040528088600060028110610153577f4e487b7100000000000000000000000000000000000000000000000000000000600052603260045260246000fd5b6020020151600060028110610191577f4e487b7100000000000000000000000000000000000000000000000000000000600052603260045260246000fd5b60200201518152602001886000600281106101d5577f4e487b7100000000000000000000000000000000000000000000000000000000600052603260045260246000fd5b6020020151600160028110610213577f4e487b7100000000000000000000000000000000000000000000000000000000600052603260045260246000fd5b60200201518152508152602001604051806040016040528088600160028110610265577f4e487b7100000000000000000000000000000000000000000000000000000000600052603260045260246000fd5b60200201516000600281106102a3577f4e487b7100000000000000000000000000000000000000000000000000000000600052603260045260246000fd5b60200201518152602001886001600281106102e7577f4e487b7100000000000000000000000000000000000000000000000000000000600052603260045260246000fd5b6020020151600160028110610325577f4e487b7100000000000000000000000000000000000000000000000000000000600052603260045260246000fd5b6020020151815250815250816020018190525060405180604001604052808560006002811061037d577f4e487b7100000000000000000000000000000000000000000000000000000000600052603260045260246000fd5b60200201518152602001856001600281106103c1577f4e487b7100000000000000000000000000000000000000000000000000000000600052603260045260246000fd5b602002015181525081604001819052506000600267ffffffffffffffff811115610414577f4e487b7100000000000000000000000000000000000000000000000000000000600052604160045260246000fd5b6040519080825280602002602001820160405280156104425781602001602082028036833780820191505090505b50905060005b60028110156104e75784816002811061048a577f4e487b7100000000000000000000000000000000000000000000000000000000600052603260045260246000fd5b60200201518282815181106104c8577f4e487b7100000000000000000000000000000000000000000000000000000000600052603260045260246000fd5b60200260200101818152505080806104df90611d3b565b915050610448565b5060006104f48284610514565b14156105055760019250505061050c565b6000925050505b949350505050565b6000807f30644e72e131a029b85045b68181585d2833e84879b9709143e1f593f000000190506000610544610743565b90508060800151516001865161055a9190611c41565b1461056457600080fd5b60006040518060400160405280600081526020016000815250905060005b865181101561068f57838782815181106105c5577f4e487b7100000000000000000000000000000000000000000000000000000000600052603260045260246000fd5b6020026020010151106105d757600080fd5b61067a8261067585608001516001856105f09190611c41565b81518110610627577f4e487b7100000000000000000000000000000000000000000000000000000000600052603260045260246000fd5b60200260200101518a8581518110610668577f4e487b7100000000000000000000000000000000000000000000000000000000600052603260045260246000fd5b6020026020010151610c57565b610d70565b9150808061068790611d3b565b915050610582565b506106df8183608001516000815181106106d2577f4e487b7100000000000000000000000000000000000000000000000000000000600052603260045260246000fd5b6020026020010151610d70565b9050610725856000015186602001516106f784610ed5565b85604001516107098a60400151610ed5565b876060015161071b8960000151610ed5565b8960200151610f7a565b610735576001935050505061073d565b600093505050505b92915050565b61074b6118fd565b60405180604001604052807f25e76f223f582ebb97ff0a3abb75eca47fa198a11237e4e4cff560124855c7bb81526020017f0fefba243a02e4f196b917868ef2ad3cee1ca24fd9b53413e0c4c4c95bdd7d938152508160000181905250604051806040016040528060405180604001604052807f06eb11db91cdbe47970a084a7a540a2ae7cf640586393843daa08318d09d6f0181526020017f1bd78a91ff3a9cac0464cd4c34191f8074729d58573e434ef41d59586bed3fd2815250815260200160405180604001604052807f09ade47f8a9c095256a70769210b710ab960c30ed70b777ba8f5d9a65b7c42c581526020017f1d5b584b0185e620c8051e2ca074ad181e4229cfeaff77ec5b82a8c44d2579dd8152508152508160200181905250604051806040016040528060405180604001604052807f2f884ff2ef2dfd41ff0d02efbf1d7bedf710d4818f4b7311986ad2a9a836f94781526020017f2aa67de2112c02a71b2f338a0aee03359e5e8029cfcc79c96d37241db7df1db5815250815260200160405180604001604052807f187663c1eaca3c6febe216fb7fb7dde38f15c32437365731816af68f49a801de81526020017f2021c0f267cc7c51f781012c18b4be1ae79d8cbdabb98d6d7db23169b2ff72c98152508152508160400181905250604051806040016040528060405180604001604052807f0fca88576dbef3273b2708fe1e97c85eb8a40312605c07625d87052c8f4fbf0981526020017f203399d23ae419509977ec4a7a22526f57e4941e02aefa984e274c81713fde91815250815260200160405180604001604052807f2a965e680607ba7d41cc7b9c99418231719b358befd82cec7bf42e5f27d09fd381526020017f198d6b8b42f8029ecd77f1af563f38f9c1e7039eeb92d8e995534f2457704a768152508152508160600181905250600367ffffffffffffffff811115610a38577f4e487b7100000000000000000000000000000000000000000000000000000000600052604160045260246000fd5b604051908082528060200260200182016040528015610a7157816020015b610a5e611944565b815260200190600190039081610a565790505b50816080018190525060405180604001604052807f2f0cd887c38b2ae6fce3efa999503fb309f2bf2573affbac87d88ddbcb18ed1081526020017f2ef615834a3cc14da655909cd328257f433c59e7945d33b46eb04be80635e6258152508160800151600081518110610b0d577f4e487b7100000000000000000000000000000000000000000000000000000000600052603260045260246000fd5b602002602001018190525060405180604001604052807f2246a47c6db085a7b8fb097c5cea33043c838b2589b1eafaea674ed93f6c543281526020017f08aee2da643d4591abed1fd1cfe48326397a606b9a93af6a370603350e35d0f48152508160800151600181518110610bab577f4e487b7100000000000000000000000000000000000000000000000000000000600052603260045260246000fd5b602002602001018190525060405180604001604052807f1e6624f3eada3da6e5199126d07bdfa568ba9929ab7fadc8cdb224545594fb8381526020017f1446b628bbf03dd851170ca08fc53574ea9c573c3d22cb5fa3736a87e70717138152508160800151600281518110610c49577f4e487b7100000000000000000000000000000000000000000000000000000000600052603260045260246000fd5b602002602001018190525090565b610c5f611944565b610c6761195e565b836000015181600060038110610ca6577f4e487b7100000000000000000000000000000000000000000000000000000000600052603260045260246000fd5b602002018181525050836020015181600160038110610cee577f4e487b7100000000000000000000000000000000000000000000000000000000600052603260045260246000fd5b6020020181815250508281600260038110610d32577f4e487b7100000000000000000000000000000000000000000000000000000000600052603260045260246000fd5b602002018181525050600060608360808460076107d05a03fa90508060008114610d5b57610d5d565bfe5b5080610d6857600080fd5b505092915050565b610d78611944565b610d80611980565b836000015181600060048110610dbf577f4e487b7100000000000000000000000000000000000000000000000000000000600052603260045260246000fd5b602002018181525050836020015181600160048110610e07577f4e487b7100000000000000000000000000000000000000000000000000000000600052603260045260246000fd5b602002018181525050826000015181600260048110610e4f577f4e487b7100000000000000000000000000000000000000000000000000000000600052603260045260246000fd5b602002018181525050826020015181600360048110610e97577f4e487b7100000000000000000000000000000000000000000000000000000000600052603260045260246000fd5b602002018181525050600060608360c08460066107d05a03fa90508060008114610ec057610ec2565bfe5b5080610ecd57600080fd5b505092915050565b610edd611944565b60007f30644e72e131a029b85045b68181585d97816a916871ca8d3c208c16d87cfd47905060008360000151148015610f1a575060008360200151145b15610f3e576040518060400160405280600081526020016000815250915050610f75565b604051806040016040528084600001518152602001828560200151610f639190611d84565b83610f6e9190611cf1565b8152509150505b919050565b600080600467ffffffffffffffff811115610fbe577f4e487b7100000000000000000000000000000000000000000000000000000000600052604160045260246000fd5b604051908082528060200260200182016040528015610ff757816020015b610fe4611944565b815260200190600190039081610fdc5790505b5090506000600467ffffffffffffffff81111561103d577f4e487b7100000000000000000000000000000000000000000000000000000000600052604160045260246000fd5b60405190808252806020026020018201604052801561107657816020015b6110636119a2565b81526020019060019003908161105b5790505b5090508a826000815181106110b4577f4e487b7100000000000000000000000000000000000000000000000000000000600052603260045260246000fd5b602002602001018190525088826001815181106110fa577f4e487b7100000000000000000000000000000000000000000000000000000000600052603260045260246000fd5b60200260200101819052508682600281518110611140577f4e487b7100000000000000000000000000000000000000000000000000000000600052603260045260246000fd5b60200260200101819052508482600381518110611186577f4e487b7100000000000000000000000000000000000000000000000000000000600052603260045260246000fd5b602002602001018190525089816000815181106111cc577f4e487b7100000000000000000000000000000000000000000000000000000000600052603260045260246000fd5b60200260200101819052508781600181518110611212577f4e487b7100000000000000000000000000000000000000000000000000000000600052603260045260246000fd5b60200260200101819052508581600281518110611258577f4e487b7100000000000000000000000000000000000000000000000000000000600052603260045260246000fd5b6020026020010181905250838160038151811061129e577f4e487b7100000000000000000000000000000000000000000000000000000000600052603260045260246000fd5b60200260200101819052506112b382826112c3565b9250505098975050505050505050565b600081518351146112d357600080fd5b60008351905060006006826112e89190611c97565b905060008167ffffffffffffffff81111561132c577f4e487b7100000000000000000000000000000000000000000000000000000000600052604160045260246000fd5b60405190808252806020026020018201604052801561135a5781602001602082028036833780820191505090505b50905060005b8381101561183f578681815181106113a1577f4e487b7100000000000000000000000000000000000000000000000000000000600052603260045260246000fd5b6020026020010151600001518260006006846113bd9190611c97565b6113c79190611c41565b815181106113fe577f4e487b7100000000000000000000000000000000000000000000000000000000600052603260045260246000fd5b602002602001018181525050868181518110611443577f4e487b7100000000000000000000000000000000000000000000000000000000600052603260045260246000fd5b60200260200101516020015182600160068461145f9190611c97565b6114699190611c41565b815181106114a0577f4e487b7100000000000000000000000000000000000000000000000000000000600052603260045260246000fd5b6020026020010181815250508581815181106114e5577f4e487b7100000000000000000000000000000000000000000000000000000000600052603260045260246000fd5b60200260200101516000015160016002811061152a577f4e487b7100000000000000000000000000000000000000000000000000000000600052603260045260246000fd5b602002015182600260068461153f9190611c97565b6115499190611c41565b81518110611580577f4e487b7100000000000000000000000000000000000000000000000000000000600052603260045260246000fd5b6020026020010181815250508581815181106115c5577f4e487b7100000000000000000000000000000000000000000000000000000000600052603260045260246000fd5b60200260200101516000015160006002811061160a577f4e487b7100000000000000000000000000000000000000000000000000000000600052603260045260246000fd5b602002015182600360068461161f9190611c97565b6116299190611c41565b81518110611660577f4e487b7100000000000000000000000000000000000000000000000000000000600052603260045260246000fd5b6020026020010181815250508581815181106116a5577f4e487b7100000000000000000000000000000000000000000000000000000000600052603260045260246000fd5b6020026020010151602001516001600281106116ea577f4e487b7100000000000000000000000000000000000000000000000000000000600052603260045260246000fd5b60200201518260046006846116ff9190611c97565b6117099190611c41565b81518110611740577f4e487b7100000000000000000000000000000000000000000000000000000000600052603260045260246000fd5b602002602001018181525050858181518110611785577f4e487b7100000000000000000000000000000000000000000000000000000000600052603260045260246000fd5b6020026020010151602001516000600281106117ca577f4e487b7100000000000000000000000000000000000000000000000000000000600052603260045260246000fd5b60200201518260056006846117df9190611c97565b6117e99190611c41565b81518110611820577f4e487b7100000000000000000000000000000000000000000000000000000000600052603260045260246000fd5b602002602001018181525050808061183790611d3b565b915050611360565b506118486119c8565b6000602082602086026020860160086107d05a03fa9050806000811461186d5761186f565bfe5b508061187a57600080fd5b6000826000600181106118b6577f4e487b7100000000000000000000000000000000000000000000000000000000600052603260045260246000fd5b602002015114159550505050505092915050565b60405180606001604052806118dd611944565b81526020016118ea6119a2565b81526020016118f7611944565b81525090565b6040518060a00160405280611910611944565b815260200161191d6119a2565b815260200161192a6119a2565b81526020016119376119a2565b8152602001606081525090565b604051806040016040528060008152602001600081525090565b6040518060600160405280600390602082028036833780820191505090505090565b6040518060800160405280600490602082028036833780820191505090505090565b60405180604001604052806119b56119ea565b81526020016119c26119ea565b81525090565b6040518060200160405280600190602082028036833780820191505090505090565b6040518060400160405280600290602082028036833780820191505090505090565b6000611a1f611a1a84611bf5565b611bc4565b90508082856040860282011115611a3557600080fd5b60005b85811015611a655781611a4b8882611af9565b845260208401935060408301925050600181019050611a38565b5050509392505050565b6000611a82611a7d84611c1b565b611bc4565b90508082856020860282011115611a9857600080fd5b60005b85811015611ac85781611aae8882611b20565b845260208401935060208301925050600181019050611a9b565b5050509392505050565b600082601f830112611ae357600080fd5b6002611af0848285611a0c565b91505092915050565b600082601f830112611b0a57600080fd5b6002611b17848285611a6f565b91505092915050565b600081359050611b2f81611e42565b92915050565b6000806000806101408587031215611b4c57600080fd5b6000611b5a87828801611af9565b9450506040611b6b87828801611ad2565b93505060c0611b7c87828801611af9565b925050610100611b8e87828801611af9565b91505092959194509250565b611ba381611d25565b82525050565b6000602082019050611bbe6000830184611b9a565b92915050565b6000604051905081810181811067ffffffffffffffff82111715611beb57611bea611e13565b5b8060405250919050565b600067ffffffffffffffff821115611c1057611c0f611e13565b5b602082029050919050565b600067ffffffffffffffff821115611c3657611c35611e13565b5b602082029050919050565b6000611c4c82611d31565b9150611c5783611d31565b9250827fffffffffffffffffffffffffffffffffffffffffffffffffffffffffffffffff03821115611c8c57611c8b611db5565b5b828201905092915050565b6000611ca282611d31565b9150611cad83611d31565b9250817fffffffffffffffffffffffffffffffffffffffffffffffffffffffffffffffff0483118215151615611ce657611ce5611db5565b5b828202905092915050565b6000611cfc82611d31565b9150611d0783611d31565b925082821015611d1a57611d19611db5565b5b828203905092915050565b60008115159050919050565b6000819050919050565b6000611d4682611d31565b91507fffffffffffffffffffffffffffffffffffffffffffffffffffffffffffffffff821415611d7957611d78611db5565b5b600182019050919050565b6000611d8f82611d31565b9150611d9a83611d31565b925082611daa57611da9611de4565b5b828206905092915050565b7f4e487b7100000000000000000000000000000000000000000000000000000000600052601160045260246000fd5b7f4e487b7100000000000000000000000000000000000000000000000000000000600052601260045260246000fd5b7f4e487b7100000000000000000000000000000000000000000000000000000000600052604160045260246000fd5b611e4b81611d31565b8114611e5657600080fd5b5056fea264697066735822122073ec6dd2844e96ac508cdddb8c8d62ccce80c1bf959b33d20c36afdb22caa5f964736f6c63430008000033",
  "immutableReferences": {},
  "source": "// SPDX-License-Identifier: MIT\r\n\r\npragma solidity ^0.8.0;\r\n\r\nimport \"./Verifier.sol\";\r\nimport \"./ERC721Mintable.sol\";\r\n\r\ncontract SquareVerifier is Verifier { }\r\n\r\ncontract SolnSquareVerifier is Verifier, propertyERC721Token {\r\n    SquareVerifier private squareContract;\r\n    \r\n    constructor(address payable verifierAddress) propertyERC721Token(\r\n        \"Property zkSNARK Token\", \"PZKT\", \"https://s3-us-west-2.amazonaws.com/udacity-blockchain/capstone/\"\r\n    ) {\r\n        squareContract = SquareVerifier(verifierAddress);\r\n    }\r\n\r\n    struct solution {\r\n        uint256 tokenId;\r\n        address to;\r\n    }\r\n\r\n    solution[] private solutionsArr; \r\n\r\n    mapping(bytes32 => solution) solutionsMap;\r\n\r\n    event solutionAdded(uint tokenId, address to);\r\n\r\n    /**\r\n     * @dev add Solution to array of used solutions\r\n     */\r\n    function addSolution(address _to, uint256 _tokenId, bytes32 _index) public {\r\n        solutionsArr.push(solution(_tokenId, _to));\r\n        solutionsMap[_index] = solution(_tokenId, _to);\r\n        emit solutionAdded(_tokenId, _to);\r\n    }\r\n\r\n    /**\r\n     * @dev mint new NFT only after the solution has been verified\r\n     */\r\n    function mintToken(\r\n        address _to,\r\n        uint256 _tokenId,\r\n        uint256[2] memory _a,\r\n        uint256[2][2] memory _b,\r\n        uint256[2] memory _c,\r\n        uint256[2] memory _input\r\n    ) public returns (bool) {\r\n        \r\n        bytes32 _inputHash = keccak256(abi.encodePacked(_a,_b,_c,_input));\r\n        require(solutionsMap[_inputHash].to == address(0), \"Solution already in use.\");\r\n        require(squareContract.verifyTx(_a, _b, _c, _input), \"Proof is invalid\");\r\n\r\n        addSolution(_to, _tokenId, _inputHash);\r\n        super._mintEnumerable(_to, _tokenId);\r\n        super._setTokenURI(_tokenId);\r\n\r\n        return true;\r\n    }\r\n}\r\n",
  "sourcePath": "C:/Users/Daniel/Documents/GitHub/Property-Title_Smart-Contract/eth-contracts/contracts/SolnSquareVerifier.sol",
  "compiler": {
    "name": "solc",
    "version": "0.8.0+commit.c7dfd78e.Emscripten.clang"
  },
  "schemaVersion": "3.4.1",
  "updatedAt": "2021-09-19T23:17:18.377Z",
  "devdoc": {
    "kind": "dev",
    "methods": {},
    "version": 1
  },
  "userdoc": {
    "kind": "user",
    "methods": {},
    "version": 1
  }
}